S02B00002F73747564656E74732F6E643433352F576172702D6669726D776172652F6275696C642F6B73646B20
S1130000000600201D050000450500004505000010
S113001000000000000000000000000000000000DC
S11300200000000000000000000000004505000082
S11300300000000000000000450500004505000028
S11300404505000045050000450500004505000084
S11300504505000045050000450500004505000074
S1130060CF4E000045050000D94E000045050000B4
S11300704505000045050000450500004505000054
S11300804505000045050000450500004505000044
S1130090D13A0000E93A000045050000450500009A
S11300A04505000045050000450500004505000024
S11300B04505000045050000450500004505000014
S1130400FFFFFFFFFFFFFFFFFFFFFFFFFE3DFFFFBB
S11304100448054B10B5834203D0044B002B00D095
S1130420984710BDA8FFFF1FA8FFFF1F0000000092
S113043006480749091A8B10C90FC91810B5491085
S113044003D0044B002B00D0984710BDA8FFFF1F1A
S1130450A8FFFF1F0000000010B5074C2378002BF5
S113046009D1FFF7D5FF054B002B02D0044800E06B
S113047000BF0123237010BDA8FFFF1F0000000070
S113048040720000054B10B5002B03D00449054809
S113049000E000BFFFF7CCFF10BDC0460000000025
S11304A0ACFFFF1F40720000402292029A1A92464B
S11304B07047C046154B002B00D1114B9D46FFF7EA
S11304C0F3FF00218B460F461148124A121A00F01E
S11304D053F90C4B002B00D098470B4B002B00D04A
S11304E098470020002104000D000B4800F082F81A
S11304F000F0B8F82000290003F0F2FB00F088F8BF
S113050000000800000000000000000000060020B9
S1130510A8FFFF1F5C0300203D06000072B60648DA
S11305200649074A02600A6004F0DCFC04F01CFD82
S113053062B6FFF7BFFF000080E100E080E200E068
S1130540FFFFFFFF0048004745050000F8B54B00DA
S1130550244C5B0D1D190A000600132D1ADC002D16
S113056008DB214B0C002B411A000A40024309D13D
S11305702100F8BDC90FC9076B1C2DD00A0000204B
S11305801400F5E7802212032A4152189A430020EE
S11305901400EDE7332D0ADD80230C00DB009D42BF
S11305A0E6D102000B0001F055FD0C00E0E70F4C12
S11305B0A446012463446442DC4004420AD0332349
S11305C05D1B323BAB401818864200D94A1CA0433D
S11305D01400CDE70C00CBE7054A00200A431400C1
S11305E0C6E7C04601FCFFFFFFFF0F00EDFBFFFF66
S11305F00000F03F10B5010000230022002000F0AD
S113060055FA10BD014B18687047C04600FEFF1F25
S1130610084B10B50400002B02D0002100F0B4FAFE
S1130620054B1868836A002B00D09847200003F01C
S113063021FAC046890B0000F46C000070B5074D28
S1130640074C641BA41005D0013CA300EB58984749
S1130650002CF9D106F0FAFD70BDC04664720000AA
S11306606872000070B50C4D0C4E761BB61005D0A8
S1130670002408CD01349847A642FAD106F0E0FDE3
S1130680074D084E761BB61005D0002408CD013462
S11306909847A642FAD170BD6072000060720000F3
S11306A0607200006472000010B5034B010018680A
S11306B000F00CF910BDC04600FEFF1F10B5034B3F
S11306C00100186800F0ACF810BDC04600FEFF1F22
S11306D0F0B5C64600B50F2A43D90B0003260343E1
S11306E01E400C000300002E40D11500103D2D09C2
S11306F0AC462D01A846804400E03B0067682568AD
S11307005F60E7681D60DF601F00A56810379D60AB
S113071010344345F1D165460F230C2401352D01D6
S1130720491913404519144223D08C59AC5104364D
S11307309C1B032CF9D80324043B9B0801339B0026
S11307402240ED18C918561E002A07D0002300E0E5
S11307502300CA5C5C1CEA549E42F9D104BC904656
S1130760F0BD0500561E002AF0D1F7E7561E05001D
S1130770ECE71A00F6E7C046F0B5050083074AD057
S1130780541E002A44D0CEB20300032202E00135F5
S1130790013C3DD301332E701342F8D1032C2FD9E1
S11307A0FF220A40150215432A0415430F2C35D99C
S11307B02700103F3F093E01B4461E001A001036C0
S11307C06644156055609560D5601032B242F8D128
S11307D00F260C2201373F012640DB193700224245
S11307E017D03E1FB608B400A4461A001C1D64446A
S11307F020C2A242FCD103240136B6009B193C401E
S1130800002C05D0C9B21C19197001339C42FBD1CC
S1130810F0BD3400F4E714000300BFE72700E0E76D
S113082070B50500002915D00C1F2368002B27DBA9
S1130830280000F007FA244B1A68002A05D0A242C7
S11308400CD921686018824224D0626028001C60A0
S113085000F0FAF970BDA34203D81A005368002BC4
S1130860F9D111685018A0421BD027D8216860180C
S1130870834207D063605460280000F0E5F9E9E79B
S1130880E418D5E718685B688446614421606360B6
S11308905460F1E7106852688446614421606260E4
S11308A0D4E720680918501811608342E4D118680D
S11308B05B688446614411605360DDE70C232800C3
S11308C02B6000F0C1F9C5E7C4FFFF1FF8B503238F
S11308D0CD1C9D43083506000C2D2AD20C25A942B7
S11308E029D8300000F0AEF92A4F3A68002A0AD01D
S11308F013685B1B04D441E023685B1B1FD52200F3
S11309005468002CF8D17B68002B3DD029003000BE
S113091000F042F8431C2AD00323C41C9C43A04289
S113092005D0211A300000F037F8431C1FD0256091
S113093010E0002DD3DA0C2300203360F8BD0B2B1C
S113094005D86368A2421DD0536003E014002360FD
S1130950E4182560300000F077F9200007220B30FE
S1130960231D9043C21AE9D01B1AA350E6E70C23B7
S11309703000336000F068F90020DFE70B2BE5D886
S1130980140053683B60E5E70021300000F004F8F0
S11309907860BBE7C4FFFF1F002370B5064C050059
S11309A00800236003F068F8431C00D070BD23687E
S11309B0002BFBD02B60F9E7580300200CB400B5E2
S11309C09DB00291069109491EAB07910491084913
S11309D004CB059102A9019300F02AFA0023029A9C
S11309E013701DB008BC02B01847C046FFFFFF7F5C
S11309F00802FFFF0EB400B50B499CB007910491A7
S1130A000A491DAB05910A4904CB02900690086877
S1130A1002A9019300F00CFA0023029A13701CB08F
S1130A2008BC03B01847C046FFFFFF7F0802FFFF62
S1130A3000FEFF1F03000A7801311A700133002AF7
S1130A40F9D1704710B5830727D00378002B26D03F
S1130A500300032102E01A78002A1CD001330B4260
S1130A60F9D119680F4A104C8A188A4322420FD1CF
S1130A70043319680B4A8A188A43224208D1043382
S1130A801968084A8A188A432242F1D000E00133E7
S1130A901A78002AFBD1181A10BD0300E1E70020E0
S1130AA0FAE7C046FFFEFEFE80808080F0B5464631
S1130AB04F46D646C0B51F002F4B82B01C680500B8
S1130AC00E009046002C2DD063681F2B50DC002DA7
S1130AD01CD08822A0589146002834D078328258FD
S1130AE094469A0091468144424649460A6001214F
S1130AF0624699400A43944680228A4661465200DF
S1130B0081504946803A8F50022D16D000205A1C3D
S1130B1002339B0062601E5102B01CBC9046994691
S1130B20A246F0BD154C1C60154B002BCCD01B68A5
S1130B3001938823019AE250C6E7554684328158CE
S1130B400D438550E2E70F4B002B11D08420400069
S1130B50FFF7AAFD00280BD0802200235200835007
S1130B60043283504B460022E05094466368B8E751
S1130B7001204042D0E7C04658000020CCFFFF1FB0
S1130B8000000000A9060000F0B5DE464E464546CA
S1130B9057462B4B88469B46E0B51E6883B00190B0
S1130BA0002E45D088237568F7586C1E40D4013553
S1130BB0AD00783375199A460AE0002F05D03B0042
S1130BC0A20080339B58434505D0043D013C2FD3FC
S1130BD04346002BF1D173682A68013BA34222D01B
S1130BE000232B60002AF0D073689946002F18D098
S1130BF001235146A3407958194212D08220400063
S1130C003858A1007958009018420ED101989047A5
S1130C105B4672681B684A4501D1B342D5D01E00B9
S1130C20BEE79047F4E77460DCE708009047EFE71D
S1130C3003B03CBC90469946A246AB46F0BDC046C4
S1130C40580000207047C0467047C046F0B546467D
S1130C504F46D646C0B58E6881460C0090461D00AE
S1130C6008689E4239D890228B89D200134211D150
S1130C7035002A00414600F055FCA36800209E1B65
S1130C802368A6609C46654425601CBC9046994632
S1130C90A246F0BD0969421A92466269681C57006F
S1130CA0BF18FA0FD7197F1050443A00B84201D93F
S1130CB0070002005B0512D511004846FFF706FE47
S1130CC0061E1FD052462169FFF702FDA389124A6E
S1130CD0134080221343A38106E01E00C9E748465F
S1130CE000F07EFC061E09D0300053465044676174
S1130CF0FF1A266120602E00A760BAE721694846E2
S1130D00FFF78EFD0C234A46136040220120A3897D
S1130D1040421343A381B8E77FFBFFFFF0B54E4683
S1130D204546DE465746E0B5936883B001900D0012
S1130D309146002B6BD0176808688C6844E09022B9
S1130D40AB89D20013422ED02969421A93466869AE
S1130D5042001218D00F8218701C5210584490464A
S1130D60904201D9804602008020C000034237D05F
S1130D7011000198FFF7AAFD041E53D05A462969B1
S1130D80FFF7A6FCAB89294A134080221343AB81A9
S1130D90434620005A462C61B046340058446B61E7
S1130DA09B1A2860AB604246514600F0BBFBAB681F
S1130DB01C1B2B68AC6043442B6018004B469B689B
S1130DC09E1B4B469E6022D03B687E689A4608373D
S1130DD0A046002EF8D0A642B1D23400B046E2E7D5
S1130DE0019800F0FDFB041ED2D1019C296920006A
S1130DF0FFF716FD0C2323604022AB890120134327
S1130E00AB814A46002340429360536003E00023D1
S1130E104A460020536003B03CBC90469946A24623
S1130E20AB46F0BD0C23019A1360E5E77FFBFFFF9F
S1130E30F0B54E46DE4657464546E0B5A1B00490AF
S1130E4003911C008B8991461B0604D50B690593FD
S1130E50002B00D119E1002308AD6B6120336B76C0
S1130E601033AB762F3B98464B461B780794924F32
S1130E70002B00D186E0252B00D104E14E4603E08F
S1130E80252B00D18BE026007378741C002BF7D13E
S1130E904B46E31A9A4675D053464A46039904983A
S1130EA0FFF7D4FE431C6DD06B6953446B617378B8
S1130EB0002B67D00122002352426A60443201347D
S1130EC02B60EB60AB60AB54AB6506E04346C01BE4
S1130ED0834034002A6813432B60217805223800AC
S1130EE000F0E0FA661C0028F0D12B68B246DA065E
S1130EF002D543222021A9541A0702D543222B21CB
S1130F00A95421782A2950D1079A111D12680791F2
S1130F10002A00DA9AE0EA606178A61C2E295CD0E7
S1130F20664B03221800994600F0BCFA002800D151
S1130F3071E04B46C01A402383402A68317813433A
S1130F402B600622731C5E489946297600F0AAFAA3
S1130F5000286AD05B4B002B00D170E007AB0093F4
S1130F60039A594B2900049800E000BF83465B466E
S1130F70013307D06B695B446B614B461B78002BD4
S1130F8000D078E7039B9B895B0600D58CE06869F9
S1130F9021B03CBC90469946A246AB46F0BD4B46B8
S1130FA0E31A9A4600D185E776E70A00303AA2466A
S1130FB0092AB3D8EB68180001E034000136830035
S1130FC01B1831785B0098180A00303A092AF4D9C2
S1130FD0B246E860A61C2E29A2D1534659782A2984
S1130FE03AD1079B1A1D079252469178D61C0222C9
S1130FF094461B68E2446B60002B00DB90E70123FE
S11310005B426B602D4B03221800994600F04AFAAC
S1131010002800D08DE7B14656463178062228488C
S1131020297600F03FFA002894D107AB0093039A85
S1131030254B2900049800F0E1F8834697E707223E
S1131040079B073393430833079393E75242EA60BD
S1131050022213432B605FE70A000023303A6B60DF
S11310601800092A01D91CE01E0083001B1871789E
S11310705B0098180A00303A731C092AF4D99A467E
S1131080023668604CE74C4614E74021FFF71EFC2B
S1131090039B18601861002809D04023039A536108
S11310A0D9E6B24601363BE70120404270E70C2303
S11310B0049A013813606BE7047200000C7200009C
S11310C010720000000000004D0C0000F0B54F4607
S11310D04646D646C0B51F00089B914698468A6886
S11310E00B6906000C00934200DA13004A461360B1
S11310F04322A25C002A02D04A46013313602368CB
S11311009A065AD54B461B6806209A1C4B461A6011
S113111023681900184208D1E16800258A1A1921A8
S11311208A461900A244002A3FDC4323E35C5A1E8A
S113113093418A060AD53020E118433108704521CD
S11311405A1C615CA2184332023311702200390028
S113115043323000C047431C19D006232068A268DC
S113116021690340042B30D08A423ADD002399469A
S1131170521A91441A34002502E001354D4530DA03
S11311800123220039003000C047431CF5D101205F
S113119040421CBC90469946A246F0BD4B46E268CC
S11311A01B680135D31AAB4220DD012352463900B6
S11311B03000C047431CF1D1E9E706221A4212D09D
S11311C04323E35C5A1E9341C0E74B46E0681B6827
S11311D0C31AD843C017184081468A42C8DC002B82
S11311E0C8DC0020D5E74A46126895E74323216806
S11311F0E35C5A1E93418A069DD4A7E7F0B557468F
S11312009A4643239C464E464546DE468C446346F6
S1131210E0B587B003930B7E914680460C00109A8C
S11312206E2B00D1D8E000D871E0732B00D11AE105
S113123000D881E0752B00D1FFE0782B00D00BE1C2
S11312400B6878204521605494498B46116840C945
S11312501160180603D4580601D53604360CDA0793
S113126002D52022134323601027002E00D1C2E0B0
S113127043230022E2546368A360002B00DAC5E034
S11312800422216891432160002E00D083E0002BCA
S113129000D0BDE0039D082F00D18CE0039B5B1BB5
S11312A02361534605AA009321004B464046FFF7AD
S11312B00DFF431C22D023692A0049464046D047EB
S11312C0431C1BD022680598E368920700D47FE092
S11312D01A1A002A00DC7BE026000025193606E0F5
S11312E0E368059801351A1AAA4200DC70E001236C
S11312F0320049464046D047431CF1D101204042C8
S113130007B03CBC90469946A246AB46F0BD632B61
S113131000D184E01FD8002B69D0582B00D09BE06B
S1131320452163545E4923688B46116840C91160A6
S1131330180600D48FE792E76F2B7ED0702B00D075
S11313408AE02023096878200B43452123606054F8
S113135052498B467AE7642B01D0692B7CD1116802
S11313602368081D10601D064AD50A681600002A65
S113137003DB4B4B0A279B467DE743222D21A154D7
S113138062687642A260002A02DB0422934323604F
S1131390434B0A279B46039D00E0060039003000BA
S11313A000F0EAF95B465B5C013D2B70BE42F4D26F
S11313B0082F00D072E72368DB0700D46EE7636868
S11313C02269934200DD69E73023013D2B7065E714
S11313D0984295DA180093E7136809681D1D60693F
S11313E015601B680E0601D449064BD4186000230F
S11313F0039D236155E7202322689A43226037E73F
S11314005D06B2D500228E5E3200B0E7002EC2D156
S11314105B4625001A7842234235E2543BE71368C1
S11314202500191D11601A684223E254413B4235DC
S1131430236143230022E25433E7116820680D1D21
S11314401560060601D440061ED40E686F2B1DD00D
S1131450134B0A279B460BE742222500A354012382
S113146042352361E5E71368191D11601D68626840
S11314700021280000F016F800280BD0401B606003
S11314802061D6E71880B2E70E88DFE7044B08270F
S11314909B46EDE660682061CBE7C0462C720000F5
S11314A01872000070B5CDB2830734D0531E002AE1
S11314B01BD00278AA4219D0032404E0013B14D3C0
S11314C00278AA4212D001302042F7D1032B0ED861
S11314D0002B0AD00278AA4208D0C31802E002788E
S11314E0AA4203D001308342F9D1002070BDFF220B
S11314F00C06240C114021430C04084E0C430268D2
S113150007496240511891433142E3D1043B04300E
S1131510032BF4D8DCE71300D8E7C0468080808032
S1131520FFFEFEFEF0B5C64600B588420CD98B1806
S1131530984209D2531E002A03D0CA5CC254013B0C
S1131540FBD204BC9046F0BD0F2A0CD80500561EF1
S1131550002AF6D0002300E02300CA5C5C1CEA5495
S11315609E42F9D1EDE70B00032603431E400C0015
S11315700300002E2ED11500103D2D09AC462D017F
S1131580A846804400E02B001D00276810351F602A
S113159067685F60A7689F60E7681034DF60434551
S11315A0F1D165460F230C2401352D01491913404F
S11315B04519144211D08C59AC5104369C1B032C90
S11315C0F9D80324043B9B0801339B00ED18C91888
S11315D02240BCE7561E0500BCE71A00B7E7C04628
S11315E0F8B507000C00150000291BD0002A15D0FF
S11315F000F01EF82600A84201D33000F8BD2900EF
S11316003800FFF763F9061EF7D021002A00FFF720
S11316105FF821003800FFF703F9EEE7FFF700F960
S11316200026EAE71100FFF751F90600E5E7C04696
S11316300B1F1B68181F002B00DB70470B58C018CA
S1131640FBE7C04602B4714649084900095C4900F9
S11316508E4402BC7047C04603B47146490840003A
S11316604900095E49008E4403BC704700224308C8
S11316708B4274D303098B425FD3030A8B4244D356
S1131680030B8B4228D3030C8B420DD3FF22090298
S113169012BA030C8B4202D31212090265D0030B57
S11316A08B4219D300E0090AC30B8B4201D3CB034D
S11316B0C01A5241830B8B4201D38B03C01A52418F
S11316C0430B8B4201D34B03C01A5241030B8B4291
S11316D001D30B03C01A5241C30A8B4201D3CB027C
S11316E0C01A5241830A8B4201D38B02C01A524161
S11316F0430A8B4201D34B02C01A5241030A8B4264
S113170001D30B02C01A5241CDD2C3098B4201D37B
S1131710CB01C01A524183098B4201D38B01C01AF9
S1131720524143098B4201D34B01C01A5241030970
S11317308B4201D30B01C01A5241C3088B4201D31F
S1131740CB00C01A524183088B4201D38B00C01ACC
S1131750524143088B4201D34B00C01A5241411AF3
S113176000D20146524110467047FFE701B5002000
S113177000F0F0F802BDC0460029F7D076E77047C4
S113178003460B437FD4002243088B4274D30309DE
S11317908B425FD3030A8B4244D3030B8B4228D37F
S11317A0030C8B420DD3FF22090212BA030C8B42A5
S11317B002D31212090265D0030B8B4219D300E045
S11317C0090AC30B8B4201D3CB03C01A5241830BCA
S11317D08B4201D38B03C01A5241430B8B4201D37A
S11317E04B03C01A5241030B8B4201D30B03C01AA3
S11317F05241C30A8B4201D3CB02C01A5241830A1D
S11318008B4201D38B02C01A5241430A8B4201D34B
S11318104B02C01A5241030A8B4201D30B02C01A75
S11318205241CDD2C3098B4201D3CB01C01A5241DC
S113183083098B4201D38B01C01A524143098B4265
S113184001D34B01C01A524103098B4201D30B014E
S1131850C01A5241C3088B4201D3CB00C01A524173
S113186083088B4201D38B00C01A524143088B4238
S113187001D34B00C01A5241411A00D201465241D1
S1131880104670475DE0CA0F00D04942031000D3F0
S11318904042534000229C4603098B422DD3030A45
S11318A08B4212D3FC22890112BA030A8B420CD355
S11318B0890192118B4208D3890192118B4204D37E
S11318C089013AD0921100E08909C3098B4201D3FE
S11318D0CB01C01A524183098B4201D38B01C01A38
S11318E0524143098B4201D34B01C01A52410309AF
S11318F08B4201D30B01C01A5241C3088B4201D35E
S1131900CB00C01A524183088B4201D38B00C01A0A
S11319105241D9D243088B4201D34B00C01A5241E1
S1131920411A00D20146634652415B10104601D36E
S11319304042002B00D54942704763465B1000D3F8
S1131940404201B5002000F005F802BD0029F8D09E
S113195016E770477047C0469E2110B5C905041CA0
S113196001F084FE002803D1201C00F00DFB10BD03
S11319709E21201CC90500F03FF900F005FB8023DF
S11319801B069C466044F2E770B500220C4B040031
S11319900D0001F031FE002804D12000290001F0DF
S11319A0C1FC70BD064B00222000290001F028F97B
S11319B001F0B8FC80231B069C466044F1E7C04656
S11319C00000E041F8B557464E464546DE4644021F
S11319D0E0B545000F1C640A2D0EC60F002D47D03C
S11319E0FF2D4DD0002380209A469B46E400C0047E
S11319F004437F3D7802430A99467A00FB0F9846D8
S1131A00120E4B4644D0FF2A11D0D8008023DB04A9
S1131A100343994600207F3AAD1847465346774022
S1131A20691C0F2B3FD8724A9B00D3589F46FF3541
S1131A30002B00D079E0524602231A43924602203A
S1131A40EBE747464C4683465B46022B28D0032BE4
S1131A5000D1C6E0012B4FD100200024C005FF07B0
S1131A60204338433CBC90469946A246AB46F8BD59
S1131A70002C71D104239A46033B00259B46B9E709
S1131A80002C63D108239A46063BFF259B46B1E709
S1131A90002B50D1524601331A4392460120BCE731
S1131AA0FF200024DAE74846260C2404220C040410
S1131AB0240C4B4620001B0C504374435A435E4392
S1131AC01219030C9B189C4203D98022520294469B
S1131AD0664400041A04000C12189401601E844128
S1131AE01B0C920E9B1914439B011C431B0172D5C2
S1131AF00120630804401C4308007F3000283CDDBB
S1131B00630704D00F232340042B00D004342301A3
S1131B1003D580310800374B1C40FE28C0DCA401EB
S1131B20640AC0B29AE737008EE7524603231A4389
S1131B309246032071E7484601F0A2FD4A46431F3E
S1131B409A402D1A91460020763D66E70C239A466A
S1131B50093BFF259B464DE7200001F091FD7625CA
S1131B60431F9C4000236D429A469B462D1A41E731
S1131B7080240027FF20E40370E701231B1A1B2B9A
S1131B8000DD69E79E3120008C40D840631E9C41F3
S1131B900443630704D00F232340042B00D00434F0
S1131BA063011AD50120002458E78020C0030442B1
S1131BB009D04B46034206D14C46044364024746CF
S1131BC0FF20640A4AE78020C0030443640237000C
S1131BD0FF20640A42E729008EE7A4010020640A7A
S1131BE03CE78020C00304436402FF20640A35E715
S1131BF0F86C0000FFFFFFF7F0B54646D6464F46A7
S1131C0043025B0ADA0094464A02C0B54400560A0D
S1131C10051CB046240E4E0092091F002000924677
S1131C20ED0F360EC90FFF2E00D17FE00122514087
S1131C308D4251D0A21B9146002A00DC7EE0002E8A
S1131C4000D199E0FF2C00D18CE080235246DB04C4
S1131C501A4392464A4601231B2A08DC5346202194
S1131C60D340891A52468A40511E8A411343624620
S1131C70D31A5A0100D4F3E09B019E09300001F00D
S1131C80FFFC05388640844200DDF7E03200041B87
S1131C9020200134E240041BA64033005E1EB34101
S1131CA0002413435A0704D00F221A40042A00D0F8
S1131CB004335A0100D4D6E0621CFE2C00D1DAE0D1
S1131CC09B015F0AD0B2C0053843ED0728431CBC12
S1131CD090469946A246F0BDA21B9146002A63DDB8
S1131CE0002E00D199E0FF2C3CD080235246DB0427
S1131CF01A4392464A4601231B2A08DC53462021F4
S1131D00D340891A52468A40511E8A411343634480
S1131D105A0100D4A4E00134FF2C00D1ABE001222D
S1131D2097491A405B080B401343BBE7002A32D0A3
S1131D308D4235D0FF2252429146A1444A46002AA0
S1131D4051D0301B002C00D09CE06346002B00D106
S1131D50DFE00138002800D1F7E0FF2E00D099E041
S1131D600D004346002B00D185E08027FF031F436D
S1131D707F02FF207F0AA6E75246002A74D0012280
S1131D8052429046C1444A46002A00D1C8E0FF2C82
S1131D9000D05FE7E6E701225140A94200D049E7BD
S1131DA0FF2252429146A1444A46002A43D0311BA5
S1131DB0002C00D18CE0FF2E00D192E080236246FB
S1131DC0DB041A43944601231B2909DC20206346C3
S1131DD06246CB40411A8A401100481E81410B43A0
S1131DE03400534494E7FE22661C324264D1002C32
S1131DF000D082E06346002B00D1ABE05346002BB9
S1131E0000D160E7634652469B1A5A0100D4AAE007
S1131E10634652460D00D31A44E75246002A23D0A3
S1131E20012252429046C1444A46002A75D0FF2CF2
S1131E3000D05FE796E7FE260134264253D10028FE
S1131E4072D16346002B00D193E05346002B00D19E
S1131E5039E7634400245A0102D54A4A0134134045
S1131E605A0700D020E7DB08FF2C00D17AE75B0299
S1131E705F0AE0B227E7FF20002724E7414B241A3A
S1131E8033400FE7FF2E00D16AE780236246DB046C
S1131E901A43944601231B2809DC20246346624626
S1131EA0C340201A82401000441EA04103435246FE
S1131EB00D003400D31ADCE6634652469E1A7301C1
S1131EC017D4002E00D0D9E6002500200027FAE61A
S1131ED06346002B44D0013900294CD0FF2E00D09A
S1131EE071E743463EE7FF2CC5D05246624453088F
S1131EF0B6E763460D00D61AC0E66246002A16D13C
S1131F005346002B00D02BE780270025FF20FF033A
S1131F10D9E60D0043463400A6E753466344F7E68A
S1131F20634652469B1AA4E66246002AD9D052461A
S1131F30002A00D116E78022D203134200D111E710
S1131F404046104200D00DE70AE752460D00340027
S1131F50D31A8EE65346002B08D00D004746B2E64E
S1131F604346340080E7002B00D079E700250027A2
S1131F70A9E64746A7E6534634006344C8E6C0468C
S1131F80FFFFFF7DFFFFFFFB41024200C30F490A31
S1131F900020120E7E2A03D99D2A02D9094A9818D4
S1131FA07047802000040143952A07DC9620821A9A
S1131FB0D1404842002BF3D10800F1E7963A914012
S1131FC0F7E7C046FFFFFF7F70B5002813D0C317A3
S1131FD0C5185D40C40F280001F052FB9E23010088
S1131FE01B1A962B0FDC082801DD08398D406D0281
S1131FF06D0AD8B202E0002400200025C005284361
S1132000E407204370BD992B0BDD05222E00121A24
S1132010D64002001B3295402800451EA8413500D9
S11320200543052901DD4A1F95402A00084E324028
S1132030680709D00F202840042805D00432500135
S113204002D59F2332405B1A9201550AD8B2D5E7D4
S1132050FFFFFFFBF0B54F46D64646460D00010094
S11320601800C0B517002B035A0A4B0F1343CA00BC
S1132070914602036E004100520AEC0F7D0F154396
S1132080760D490DC00F8246AC46FF00721A844299
S113209000D198E0002A00DC81E0002900D1B6E0FC
S11320A0C9498E4200D172E1802128000904084305
S11320B08446382A00DD5EE11F2A00DDEEE120209F
S11320C039006546801A8740D14085400D43390068
S11320D04F1EB9416746D7402943DB1B4A46551A70
S11320E0A945894149425B1A984643461B0200D4DC
S11320F0CCE043465B025B0A98464346002B00D182
S11321002CE1404601F0BCFA0100083920222800E5
S11321104346521A8B40D0408D4003438E4200DD2B
S113212017E18E1B721C1F2A00DDA7E12021180075
S11321302E00891A8D408840D640D340691E8D41B7
S113214030439846002605436B0709D00F232B40E4
S1132150042B05D02B1DAB42AD416D42A8441D009C
S113216043461B0200D494E0974B721C9A4200D160
S11321709DE04146954BED0819400B005205490777
S11321805B0229431B0B520D12051343E40723433F
S1132190080019001CBC90469946A246F0BD002ACE
S11321A043D08A1B002E00D02AE14C461C4300D1A8
S11321B0D1E1541E012A00D11FE2834DAA4200D16D
S11321C072E2220023E1002A00DC98E0002942D0D8
S11321D07D498E4200D1DAE08021280009040843B9
S11321E08446382A00DD29E11F2A00DC87E111003A
S11321F065462039CD40202A04D040206146821A09
S113220091400F4339004F1EB9410D431BE1290092
S1132210394300D1B5E0511E012A00D1ABE16A482F
S1132220824200D1B2E10A0043E76949751C0D42BC
S113223000D0CFE0002E00D093E14946194300D1ED
S1132240D1E16146394300D0E3E149465807C90862
S11322500143DB0826E02900394300D191E0511EF7
S1132260012A05D05848824200D18FE10A00B8E71C
S11322703D004D444D458941634498464942884454
S1132280434602261B0200D5EBE0013E6B0700D05B
S11322905CE74346E9085A0711433200DB084A4821
S11322A0824221D01B0352051B0B520D6CE7002305
S11322B0002169E72A003A4369D04A465807D10801
S11322C0DA0880231B0308431A4207D02900ED08CB
S11322D01D4203D12A00FF0848073843430FC100B9
S11322E05B07C908194313000A001A4300D113E21B
S11322F08022120313431B03334A1B0B44E7002AB7
S11323004BD08A1B002E00D1E7E02F48814200D138
S113231095E1802000040343382A00DD43E11F2AAD
S113232000DDDBE120201D004E46801A8540D640AA
S113233035434E4686403000D340461EB0419C444F
S11323400543ED19BD429B415B42634498460E0030
S11323507FE01E4A761A13409846F5E6280001F0FD
S11323608FF9010018311F2900DCCFE62B00083853
S113237083400025D2E662463A4311004F1EB9411C
S1132380ACE649465807C9080143DB0887E74946D4
S11323905A07C9081143DB08A6E70D49701C084217
S11323A000D0BBE0002E00D014E14946194300D10F
S11323B075E12900394300D07EE149465807C90830
S11323C00143DB086EE7C046FF070000FFFF7FFF05
S11323D0FE0700004946CD1B6146581AA9458941AC
S11323E04942884601004046091A8846090200D538
S11323F0A6E04146294300D07FE60023002451E7AC
S1132400C74CA14200D1C7E0802424042343382AC6
S113241054DC1F2A00DDCCE020244846A41A1D0009
S11324204E46A040D640A5400400D3406246354302
S1132430661EB441D31A9C46254344E062463A439F
S113244015006F1EBD414D444D45894149428846A2
S1132450984443461B0200D418E7B14B01369E4210
S113246049D04246AF4B01211A4013006A080D407F
S11324701543D9075B0898460D4365E618001F3ECF
S1132480F040202A03D040218A1A93401D43691E3C
S11324908D410023002698460543F7E61100654662
S11324A02039CD40202A04D040206146821A914030
S11324B00F4339004F1EB94129430FE64A461343DF
S11324C01D006B1E9D417D1BAF429B4162465B42DA
S11324D0D31A984654460E0007E64846184300D1DE
S11324E0B3E0501E012A00D10DE18D4DAA4200D166
S11324F0A5E0020010E732000023002144E6202179
S11325003800891A65468F408D40D040791E8F412E
S113251005433D436746D740DB1994E7804A904220
S113252000D1ECE0390049444945924163445242A8
S11325309B18DD0749085B08984606000D43A5E68D
S11325404A46BD1AAF42894162464942D31A5B1AD0
S113255098465446D1E56C07F9082143EB0804007A
S11325609DE64A461A4375D16146394314D1802306
S113257000241B03BCE64A46D51BA9458941624693
S113258049429B1A5B1A98460126AEE54A46D10891
S11325905A071143DB08A7E66346F9085A0754466D
S11325A01143DB08A0E64A4613431D006B1E9D4100
S11325B0C7E614001E00203CE640202A05D0402433
S11325C0A21A93404A461A4391464D466B1E9D41BA
S11325D0354378E74A461A4300D06BE66B07F9089F
S11325E01943EB0880E66146394354D06346F90841
S11325F05C072143DB08040054E64A46BD1AAF4297
S1132600894162464942D31A5B1A9846040001265E
S11326106BE54A46D51BA9458941624649429A1A47
S1132620521A9046120232D54A46BD1AAF42894127
S113263062464942D31A5B1A9846040084E563460D
S1132640F9085A071143DB084EE6F9086807014305
S1132650EB0824E662463A4300D198E64A46D1089C
S11326605A071143DA0880231B031A4208D0604634
S1132670C5081D4204D154462A00F90843071943EA
S11326804B0FC9005B07C908194313002CE64146E8
S1132690294300D0FAE500230A00002402E66B0770
S11326A0F9081943EB08FDE56346F9085B0719438C
S11326B063460400DB0817E63D004D4463444D4582
S11326C0894198464942884443461B0200D4DDE5CB
S11326D04246144B01261A409046D7E510001E00CE
S11326E02038C640202A05D04020821A93404A460A
S11326F01A4391464D466B1E9D41354321E6020027
S11327000023002140E54A46D519BD42894163446E
S1132710984649428844B3E50021014A0B0033E559
S1132720FF070000FFFF7FFFF0B557464E464546C2
S1132730DE46E0B598460C034B000600924687B08F
S1132740240B5B0DCF0F002B6CD0DD4A934200D1DC
S113275086E0420FE4001443802212041443D94A51
S1132760C500944663440093002399469B46434620
S113277042461E03D20F5B0050469046360B5B0D5B
S113278000D178E0CE4A93421DD0CE49420F8C4608
S113279000996344F6008C46164380229C4412043C
S11327A063461643C200002000930099434601315A
S11327B08C4649467B4001930F2900D97EE0C24BE9
S11327C0890059588F465246009B324300D056E147
S11327D0BB4900268C4663444946009302231943AF
S11327E089460220E1E743460193340015008346FD
S11327F05B46022B5ED0032B00D1F3E1012B00D00A
S113280018E1002200240025019B12052243DB0766
S11328101A432800110007B03CBC90469946A246D2
S1132820AB46F0BD2500054300D141E1002C00D1A9
S1132830ADE1200000F024FF010002000B391D234C
S113284010005B1A3100350008388440D9408540B7
S11328500C439E48831A0093002399469B4686E7BF
S11328600500254300D01CE1082200930223002424
S113287091469B467BE75246324300D10AE1002E43
S113288000D176E1300000F0FBFE02000B3A1D237C
S113289001009B1A52460839DA408E4016435246CC
S11328A08A40009B8949181A03008C46634400201F
S11328B000937AE700240025814AA5E72F0C2D0414
S11328C02D0C2B00110C1204120C534398461300C8
S11328D028007B43994648434844834640460B00BE
S11328E0000C824658467B4350440293814506D9E6
S11328F09A4680235B029946CA4453460293030CCA
S11329009B4643461B0400041B0C984603004344A7
S11329100493330C99462B003604360C73439846C3
S113292033007B439A464B465D435F4343465544DD
S1132930180C4019824503D980235B029A465744F8
S1132940050CEB19059343461D042D0C0004401996
S1132950250C2404240C270057436A4390462A007C
S11329603B0C9A464A43614341445144834488455D
S113297003D980235B02984642443F040B0C3F0C6E
S11329800904C919270098464B4677435C436E43B4
S11329905D433B0C9946A4194C4442440395A6421A
S11329A004D980235B02984645440395029B3F0467
S11329B05B441E008342804123049846059B3F0CE0
S11329C04744984676188E428941474440423D1810
S11329D0A846934649428A46C3449F42BF41804524
S11329E08041039BDA449846534640427F42074362
S11329F0240C934592418A4589413F19DC0D049B7F
S1132A0075021D43681E85415346524249420A439A
S1132A10BF184744F60D7F0235435A023C43154321
S1132A20FB0100D4C1E001216A080D401543E2070F
S1132A301543640826496144002956DD6B0709D013
S1132A400F222A40042A05D02A1DAA42AD416D4214
S1132A5064191500E30104D580211E4AC9001440FD
S1132A6061441D4A914200DD24E76207ED086402D7
S1132A7049051543240B4A0DC6E60197B8E6104AEA
S1132A800320944663444A46009303231A43914621
S1132A9052468AE649460123194389460026012005
S1132AA083E60C2200930323050091469B465EE6D1
S1132AB00423994600230093013300249B4656E6E1
S1132AC0FF07000001FCFFFF386D00000DFCFFFF55
S1132AD0FF030000FFFFFFFEFE0700000023802429
S1132AE00025444A019324038EE60120401A382825
S1132AF000DD86E61F285BDD1F2223005242511AA7
S1132B00CB401900202803D03B4A6244944025431B
S1132B106A1E95412A000A4307210D00002415402E
S1132B2011425BD00F2100241140042953D0111D00
S1132B30914292415242A4180A0023024BD5012229
S1132B400024002560E680231B031C4209D01E429A
S1132B5007D133431C0343461500240B254A019334
S1132B6052E68022120314432403224A240B0197C1
S1132B704AE600F085FD03001A00153220301C2AB5
S1132B8000DC84E65646083B00229E4089E600F0BD
S1132B9077FD01000200153120321C2900DC4EE6CD
S1132BA0340008380025844053E6009B9C4641E7E6
S1132BB01249220061442E008D408A40C640691E9D
S1132BC08D4132432A43C4405307B6D00F211140EC
S1132BD00429ACD1B1E765076402240BD20815437C
S1132BE0002211E68022120314432403014A240B19
S1132BF00AE6C046FF0700003E0400001E04000071
S1132C00F8B557464E464546DE460400E0B51F007B
S1132C1010000B03620F4E00CD0F5B0A3903134300
S1132C20490AE200440F2143C24C91469246C00037
S1132C307A008046760D520DFF0FA24200D1B4E017
S1132C4001246740BB46BD4200D188E0B41AA446C3
S1132C50002C00DCB2E0002A00D1C5E0B54A96425F
S1132C6000D18BE28022120411436246382A00DD2F
S1132C70A1E11F2A00DD16E220270C00BF1ABC4088
S1132C800200A0466446B840E240444614430200B1
S1132C90501E82416046C14022435B1A49468C1A49
S1132CA0A145924152429B1A984643461B0200D4C6
S1132CB017E143465B025B0A98464346002B00D16A
S1132CC06CE1404600F0DCFC0200083A20212000C0
S1132CD04346891A9340C84094400343964200DD1A
S1132CE057E1961B711C1F2900DDCBE1202218003F
S1132CF02600521A94409040CE40CB40621E94412C
S1132D003043984600260443630709D00F23234029
S1132D10042B05D0231DA342A4416442A0441C00FB
S1132D2043461B0200D4DFE0824B01369E4200D1B1
S1132D30FBE04246804BE4081A4013007105520739
S1132D405B0222431B0B490D0905ED071943294377
S1132D5010003CBC90469946A246AB46F8BDB41A56
S1132D60A446002C58DD002A00D19EE0714A964208
S1132D7000D13BE18022120411436246382A00DD6F
S1132D80C1E01F2A00DCBBE10C00203AD440220041
S1132D906446202C04D040273F1BB940084380469A
S1132DA04446611E8C411443B1E00C0004432AD014
S1132DB0BB46BD422DD0614CA446B4446446002CAD
S1132DC05CD0941BA446002E00D015E14D461D4353
S1132DD000D1C3E1651E012C00D10CE2554EB44272
S1132DE000D1F8E1AC460EE10A00024300D136E11D
S1132DF02200013A012C00D1C6E14E4CA44500D179
S1132E00F4E0944631E701246740BB46BD4200D05C
S1132E101CE74A4CA446B4446446002C00D1CFE0DD
S1132E20941BA446002E00D15CE1424EB24200D174
S1132E30ECE18026360433436446382C00DDB3E1EC
S1132E401F2C00DD38E22026361B1C00B4404F4600
S1132E50A0466446E74044463C434F46B7403E00E4
S1132E60771EBE4134436646F340C9182418844291
S1132E709B415B429846160088444EE0304A741CDD
S1132E80144200D0D6E04A461A43002E00D05BE13B
S1132E90002A00D1A5E10A00024300D0BBE14A4662
S1132EA05907D2080A43DB0827E00A00024300D18D
S1132EB074E12200013A012C05D01E4CA44500D136
S1132EC094E0944659E74844484592415B18984633
S1132ED0040052429044434602261B0200D5C4E03B
S1132EE0013E630700D011E74346B4465907E208A0
S1132EF00A43DB080F498C4540D061461B03490552
S1132F001B0B490D20E701430C00611E8C414C440E
S1132F104C45924152429046984443461B02E0D5A8
S1132F20044B01369E4200D09FE031000023002272
S1132F300AE7C046FF070000FFFF7FFF01F8FFFF1D
S1132F40FE070000002A00D160E10A0002434DD0D0
S1132F504A465C07D20822438024DB082403234228
S1132F6007D0CE08264204D15D463300C208490783
S1132F700A43510FD200D20849070A4311001943EA
S1132F8000D1C8E1802109030B431B03D5491B0B66
S1132F90DAE6D549B61A0B409846B5E6200000F0AB
S1132FA06FFB020018321F2A00DC8FE6230008386A
S1132FB08340002492E608430200501E82416DE6DD
S1132FC0CA4C721C224200D0ADE04A461A43002E7D
S1132FD0B8D1002A00D158E10A00024300D059E1D7
S1132FE04A465907D2080A43DB0886E74A46590786
S1132FF0D2080A43DB08C1E7BA4DAA4200D11EE158
S113300080252D042B436446382C5DDC1F2C00DD09
S1133010D0E0202567462D1B4E461C00FE40AC40E8
S113302034434E46AE403500FB406E1EB541C91ACE
S11330302C434EE04A46141AA1459241524290460E
S11330405F1A3A004746D21B9046120200D58BE025
S11330504246224300D030E6002300254DE74A468D
S11330605907D2080A43DB0844E742469E4B6108ED
S11330701A401300012214400C43DA075B089846F7
S1133080144341E61A001F3EF2401600202903D0E3
S11330904022511A8B401C43621E94410023344346
S11330A0984600261DE70C00203AD44022006446CE
S11330B0202C04D040273F1BB94008438046444697
S11330C0611E8C412243E9E54C4623431C00631EE8
S11330D09C41041BA0429B415B42CB1A98465D462F
S11330E01600E2E54E461E4300D1AEE0661E012CFA
S11330F000D1FDE07B4FBC4200D107E1B4469BE622
S113310064462022121B0C00944007009040A04605
S11331106446421E90416246E7404446D1403C43E7
S113312004435B18F3E66F4CA24200D1D5E0484457
S11331305B184845894149425B18DC0740085B0835
S1133140984616000443CCE6002A00D082E00A0028
S1133150024340D1802300251B0313E74B07C20819
S11331601A435D46CB08C5E64A46841AA0429241FA
S1133170CB1A52429B1A98465D469EE54A46590729
S1133180D2080A43DB08F9E64A46141AA1459241DB
S11331905B1A52429B1A9846012686E54A4659070D
S11331A0D2080A43DB08A5E64C4623431C00631EF1
S11331B09C415BE665461E00203DEE40202C05D078
S11331C040252D1BAB404C461C43A2465446631E6F
S11331D09C4134437DE74B07C2081A435D46CB0844
S11331E0CCE60A00024300D136E74B07C2081A4373
S11331F05D46CB0881E64A46841AA0429241CB1A26
S113320052429B1A98465D4601264EE54B07C2087A
S11332101A43CB08B2E64A46141AA14592415F1AF2
S11332205242BA1A904612026BD54A46841AA042F8
S11332309241CB1A52429B1A98465D4664E54B076D
S1133240C2081A435D46CB0898E64B07C2081A43E6
S1133250CB084FE60A00024390D04A465C07D208E6
S113326014438022DB081203134208D0CE0816420E
S113327005D1C0084907084304005D463300610FC7
S1133280E2004907D2080A4378E64B07C2081A430A
S1133290CB0832E648445B1848459241984652426E
S11332A09044434604001B0200D41AE642460E4BE7
S11332B001261A40904614E666461F00203EF74059
S11332C0202C05D04026361BB3404C461C43A24656
S11332D05446631E9C413C43C8E511000023002270
S11332E032E5C046FF070000FFFF7FFFFE07000036
S11332F04A461418844292415B18984652429044BC
S1133300E9E54246224300D1A6E6EAE54B07C208B6
S11333101A43CB0832E600220149130014E5C046E3
S1133320FF0700000A0030B5134C530009030500E1
S1133330090B00205B0DD20FA34204DD0F4883422A
S113334002DD0F4BD01830BD8020400301430D48EF
S1133350C01A1F2808DD0C48C31AD9400B00584274
S1133360002AF0D11800EEE7084CC540A446634497
S113337099400B002B43F2E7FE0300001D040000FC
S1133380FFFFFF7F3304000013040000EDFBFFFF89
S113339070B5002816D0C317C5185D40C40F2800A7
S11333A000F06EF9114A121A0A2816DC03002E00E6
S11333B015339E400B23181AC54053052D032D0BBE
S11333C05B0D03E000240023002500261B052B438E
S11333D0E40723433000190070BD0B3885405305C2
S11333E02D0300262D0B5B0DF0E7C0461E040000E4
S11333F070B543004602C40FFE201B0E591C750A0B
S113340008420CD0E022920094466D07360B6344C8
S11334101B053343E40723432800190070BD002B28
S113342014D1002D1BD0280000F02AF90A281CDC36
S11334300B232A001B1ADA40030015339D400E4B60
S113344012031B1A5B05160B5B0DE1E7002D09D077
S1133450320B80263603094B6D071643D8E7002349
S11334600026D5E70026054BD2E703002A000B3BD4
S11334709A400025E3E7C04689030000FF070000E7
S113348002004B00F0B508035B0D3D4ECC0F400A23
S1133490510F5F1C0843D50037420AD039495E18E2
S11334A0FE2E16DDFF230021DB050B43E007184346
S11334B0F0BD002B06D1284327D005218901490AF4
S11334C0DBB2F1E70543EDD08021C903FF230143BB
S11334D0EAE7002E1CDD920111004A1E9141C00052
S11334E06D0F014329434B0748D00F230B40042B96
S11334F000D004318023DB040B403FD0721CFE2E2D
S1133500D0D08901490AD3B2CEE700230021CBE70A
S11335103200173222DB80211E2209040843921B49
S11335201F2A1DDD022149428E1B0100F1400E00BD
S1133530202A04D0144A9446634498400543290041
S11335404D1EA941314300264B07CED180200B00EC
S1133550C004012203400142D3D1AFE70023ACE70A
S11335600A498C4629006344D1409D400A00290041
S113357098404D1EA94101431143E4E733009DE700
S1133580FE07000080FCFFFFA2FCFFFF82FCFFFFA0
S11335908446101C62468C46191C634600E0C046F3
S11335A01FB500F0F7F9002801D40021C8421FBD5F
S11335B010B500F041F94042013010BD10B500F0E3
S11335C0E9F9002801DB002010BD012010BDC04630
S11335D010B500F0DFF9002801DD002010BD012046
S11335E010BDC04610B500F063F9002801DC0020CE
S11335F010BD012010BDC04610B500F059F90028D7
S113360001DA002010BD012010BDC0468446081C0C
S11336106146FFE71FB500F0C5F8002801D400217A
S1133620C8421FBD10B500F049F84042013010BD3A
S113363010B500F0B7F8002801DB002010BD012010
S113364010BDC04610B500F0ADF8002801DD002023
S113365010BD012010BDC04610B500F057F8002879
S113366001DC002010BD012010BDC04610B500F0E3
S11336704DF8002801DA002010BD012010BDC0461D
S11336801C2101231B04984201D3000C10391B0A8E
S1133690984201D3000A08391B09984201D3000952
S11336A0043902A2105C40187047C04604030202A9
S11336B001010101000000000000000070B542009B
S11336C04E024C0045026D0A120EC30F760A240EF8
S11336D0C90FFF2A0FD0FF2C11D00120A24200D025
S11336E070BDB542FCD18B420DD0002AF8D1280020
S11336F0451EA841F4E70120002DF1D1EBE701209C
S1133700002EEDD1E9E70020EAE7C046F0B542001B
S113371046024D024C00C30F760A120E6D0A240EA7
S1133720C80FFF2A1FD0FF2C10D0002A1FD17142CE
S11337307141002C01D1002D1ED000290ED18342ED
S11337401ED00221581E08400138F0BD002D26D19C
S1133750002AF4D1714271410029F0D00028F4D13B
S113376001204042F1E7002E19D1FF2CEED0002CAD
S1133770E5D1002DE3D1E4E70020002EE5D0E0E719
S1133780A24205DCEADBAE4202D8E7D30020DCE744
S1133790414241414842022108400138D5E7022014
S11337A04042D2E7F0B5420046024D024C00C30F3E
S11337B0760A120E6D0A240EC80FFF2A0DD0FF2CB4
S11337C00FD0002A23D171427141002C0FD1002D5A
S11337D00DD10020002E14D00DE0002E10D1FF2CAE
S11337E015D1002D0CD1002A03D171427141002959
S11337F008D1834210D00221581E0840013800E04D
S11338000220F0BD0028FCD101204042F9E7002C41
S1133810EFD1002DEDD1EEE7A24205DCF2DBAE42A2
S113382002D8EFD30020ECE7414241414842022153
S113383008400138E5E7C046F0B54F464646D6464F
S1133840944691461A03120B184DC0B54C000F0351
S113385092465A00060080463F0B0120640DC90FB2
S1133860520DDB0FAC420AD0AA4203D0944201D1DC
S113387057450DD01CBC90469946A246F0BD3D006C
S11338803543F7D1A242F5D1524665462A43F1D1D8
S11338900120C845EED1994206D0002CEAD13E431E
S11338A03000461EB041E5E70020E3E7FF070000D3
S11338B0F0B54E4645465746DE4604001800E0B5CE
S11338C016001B031B0B324D0F034A00994643009D
S11338D0A446B0463F0B520DC90F5B0DC00FAA4260
S11338E029D0AB4218D0002A2AD13C43A3466542D2
S11338F06541002B02D14C46264327D0002D15D11B
S1133900814228D002200139084001383CBC90464D
S11339109946A246AB46F0BD4D462E432FD1002A10
S1133920EED13C4365426541002DE9D00028EDD13C
S113393001204042EAE73D00254320D19342EBD0E9
S1133940002BDDD14C462643DAD1DBE75B46002071
S1133950002BDBD0D6E79A420ADCE7DB4F45D1D80F
S113396010D000204F45D1D20029E1D00800CDE786
S1133970434258410223404218400138C6E702201E
S11339804042C3E7C445BDD80020C445BED2EBE7DE
S1133990FF070000F0B54E4645465746DE46040094
S11339A01800E0B516001B031B0B314D0F034A0032
S11339B099464300A446B0463F0B520DC90F5B0D18
S11339C0C00FAA4211D0AB4214D0002A2FD13C43DD
S11339D0A34665426541002B14D14C46264311D1C0
S11339E05B460020002B17D010E03D00254312D188
S11339F093421CD14D462E430DD1002A04D13C43A1
S1133A0065426541002D0DD1814216D00220013955
S1133A100840013800E002203CBC90469946A2468A
S1133A20AB46F0BD0028F7D101204042F4E7002B5B
S1133A30EAD14C462643E7D1E8E79A4206DD434201
S1133A4058410223404218400138E5E79A42E9DB35
S1133A504F45DBD806D000204F45DDD20029E3D006
S1133A600800D9E7C445D1D80020C445D4D2F5E72D
S1133A70FF070000FEE7C0460A4A0300116810B5BC
S1133A80002901D10849116010680849C3188B4204
S1133A9006D9FCF7B7FD0C2303600120404210BD9A
S1133AA01360FCE75C00002060030020600300203A
S1133AB0837802209842804140427047437A002034
S1133AC0013B012B03D90B78013001330B70704794
S1133AD010B5002002F078FD002803D00021080072
S1133AE002F066FD10BD0000024A13680133136042
S1133AF07047C0460401002037B5002001F098FC4F
S1133B00C02300240D4A9B0013600D4A0D4D136021
S1133B100D4A200013600D4B2C716C71AC711A6846
S1133B20FA239B0053430A492B6002F09BFD2900B2
S1133B30200001AA02F0D8FD37BDC04618901454E5
S1133B401C9014545C01002000A0145484FEFF1F38
S1133B502C01002010B5002001F06FFC8023054AE1
S1133B609B001360044A00200449136001F0CCFF59
S1133B7010BDC0460CA0145410A014540801002019
S1133B800023364A70B51360354A01201360354A64
S1133B900133FF331360344A34491360344A1360E9
S1133BA0344A1360344A1360344A1360344A13604D
S1133BB0344A14782500054004424DD00B60324944
S1133BC032480B60002101603148016031490B60CB
S1133BD031490B6031490B6031490B6031490B604D
S1133BE031490B601378DB0703D50220FF3001F065
S1133BF0A1FE092001F0ACFE0C2001F0A9FE052075
S1133C0001F0A6FE082001F0A3FE0620FF3001F01B
S1133C109FFE0E20FF3001F09BFE8320400001F048
S1133C2097FE0820FF3001F093FE0C20FF3001F0D6
S1133C3081FE0220FF3001F08BFE8020400001F065
S1133C4087FE072001F084FE062001F081FE80201B
S1133C50400001F07DFE70BD0D60B0E70C9014547F
S1133C6010901454149014541890145404A0145420
S1133C701C901454209014542490145430901454D0
S1133C8000A0145480FEFF1F08A014540CA0145468
S1133C9010A0145414A0145418A014541CA01454A8
S1133CA028A014542CA0145434A0145410B5092082
S1133CB001F04EFE10BD10B50C2001F049FE10BD00
S1133CC010B5FFF7F3FFFFF7F6FF8320400001F084
S1133CD031FE024B186801F004FA10BD88FEFF1F84
S1133CE0F0B5A9B017AC072200212000FCF744FD71
S1133CF0CA4A01251C92032207AB1F9309AB2093E8
S1133D000BAB22930FAB249311AB259313AB2693E8
S1133D1015AB0DAE03A9002027931CAB1A711E919D
S1133D20059325702194239601F07AFB280001F075
S1133D3077FB8022BA4B12021A6001F0F1F90023DA
S1133D4000951A001900180000F0C4FEB5490020BF
S1133D5000F0B4FEC82001F0C4F9B349002000F01B
S1133D60ADFEC82001F0BDF9B049002000F0A6FE68
S1133D70C82001F0B6F9AE4A2B000221AD4801F08B
S1133D80F3F92900280001F0FBF9002002F05AFBA6
S1133D90A94B6C2119936B4600275B181F806B4657
S1133DA002315B18380019A91F701A9502F076FBCE
S1133DB02A00390003A8FCF7DFFC69463220179B70
S1133DC00B93A2880A86A27909180A70694603220D
S1133DD0063809180A700D93A2886946B280A27940
S1133DE00A38B271052232700793A28802260A8427
S1133DF0A27909180A706A46694616770993A28857
S1133E0008300A85A27909180A706946042206381E
S1133E1009180A7069460F93A2881C3009180A8091
S1133E206946A279801909180A7069460822063879
S1133E3009180A7069461193A2880C3009180A807F
S1133E406946A279801909180A706A460921063858
S1133E50121811706A461393A3880C301218138039
S1133E606A46A3798019121813706A460A23063821
S1133E701218137054226B469B181F7005AA2B004E
S1133E801FA801F023FB3900300000F025F96B492D
S1133E906B4801F035FDFFF773FE0820FF3001F099
S1133EA049FDC82001F01DF90820FF3001F050FD44
S1133EB0C82001F016F90820FF3001F03BFDC820AE
S1133EC001F00FF90820FF3001F042FDC82001F095
S1133ED008F90820FF3001F02DFDC82001F001F998
S1133EE00820FF3001F034FD1820564900F06DF928
S1133EF06820554900F074F91020544900F06AF91B
S1133F001D20534900F072F94320524900F073F91F
S1133F100E20514900F074F96A20504900F076F9F6
S1133F2077204F4900F078F95A204E4900F078F98B
S1133F304D49682000F07AF9FFF7C2FE00F004FA58
S1133F403800FFF707FE2C0000F05CFC474943886B
S1133F50028806A8FCF74EFD06A9002000F0ABFF7E
S1133F60434D286801F0BDF80022FF21100000F045
S1133F70CFF900F0C7F9042321002A2006AA00F093
S1133F8071FB022321003B4A422000F06BFB00F04E
S1133F90E3FB394982B204A8FCF72CFD04A90020F4
S1133FA000F08CFD286801F09CF800224521FF20D8
S1133FB000F0AEF900F0A6F903231621362004AA76
S1133FC000F050FB23002D4A1621442000F04AFB48
S1133FD0032500F05FFB9623294E002235709B00D9
S1133FE0984211D94521FF2000F092F900F08AF996
S1133FF02B00244A2B21362000F034FB02232248D4
S1134000337001F06EF89FE71000FF2100F080F993
S113401000F078F92B001D4AECE7C046BD3A0000D9
S11340204C030020786D0000936D0000996D000032
S113403064FEFF1F90FFFF1FE0070100A0FEFF1FAB
S113404090FEFF1F8400002094000020A4000020A4
S1134050F4000020C4000020E4000020D40000206C
S113406074000020B400002064000020A06D000053
S11340707CFEFF1FA66D0000A36D0000A96D00006B
S113408060000020AB6D0000B80B0000AE6D0000B6
S11340901FB5040001A9002002F028FA694601A80E
S11340A002F062F9009B68461C1901A9009402F011
S11340B0E3F8012201A9002002F044FA1FBD000028
S11340C00022034B1A608022024B1206DA67704703
S11340D000A01C5804E100E070B50D000A24082873
S11340E01CD8FDF7AFFA051D2A3F54676C6F5C00BE
S11340F001F082FB0524012810D0FFF7E1FF28001E
S1134100FFF7C6FF0021080001F002FA01210400B4
S1134110002001F035F8002C22D10024200070BDCD
S113412001F06AFB06240128F8D0FFF7C9FF280034
S1134130FFF7AEFF00210120E6E701F05DFB082454
S11341400128EBD001F09AF8002803D001210020C7
S113415001F016F80021022001F0DAF90028DCD081
S11341600924DBE701F048FB07240028D6D0FFF739
S1134170A7FF2800FFF78CFF0021032001F0C8F9F6
S1134180040001F039FB01210028C4D1C1E7FFF785
S113419097FF2800FFF77CFF00210420EEE70021B1
S11341A0082001F0B5F9041EDAD10121080000F05D
S11341B0E7FFB3E70021052001F0AAF9D0E70021C9
S11341C00620F9E700210720F6E7C223FF33087031
S11341D04B607047014B08704B60704701700000E2
S11341E0014B08704B607047010E0000C223FF337F
S11341F008704B607047052308704B6070470000DF
S1134200014B08704B60704701700000014B08704F
S11342104B607047010E0000032308704B60704729
S1134220014B08704B607047050000300123087093
S11342304B60704737B50E25FF350400280001F0A8
S113424079FB0A2000F04DFF280001F081FB0C20CF
S113425001F07EFBFA23084A9B00147000210193AD
S1134260012308000093054B02F09AFA0400280089
S113427001F060FB20003EBD750100206B010020B1
S113428073B50E25FF35040028000E0001F052FB23
S11342900A2000F026FF280001F05AFB0C2001F050
S11342A057FBFA2300219B0022000800019300968B
S11342B0044B02F075FA0400280001F03BFB2000D7
S11342C076BDC0466B01002000B50D4A030010788E
S11342D00138032812D8FDF7B5F902070B0F0222A3
S11342E01A6001230B6000BD01221A600223F9E762
S11342F002221A600A60F6E70622FAE70122F8E7CA
S11343006A010020014B18807047C04666010020F6
S1134310C008800183B289080B435B0198B2D208BC
S11343201043704710B52520FFF784FF0020FFF7E6
S113433081FF0020FFF77EFF5F20FFF77BFF3F2018
S1134340FFF778FF10BD0000C02310B58024504A49
S11343509B0013604F4A64001360FFF7CDFB4E4B84
S113436020001C604D4B1C604D4B1C6001F0E2FAB8
S1134370642000F0B6FE200001F0EAFA642000F0A8
S1134380B0FE200001F0D6FA642000F0AAFEAE20B0
S1134390FFF750FFA020FFF74DFF7220FFF74AFF01
S11343A0A120FFF747FF0020FFF744FFA220FFF7FB
S11343B041FF0020FFF73EFFA420FFF73BFFA820AA
S11343C0FFF738FF3F20FFF735FFAD20FFF732FF3F
S11343D08E20FFF72FFFB020FFF72CFF0B20FFF7F5
S11343E029FFB120FFF726FF3120FFF723FFB32079
S11343F0FFF720FFF020FFF71DFF8A20FFF71AFFC9
S11344006420FFF717FF8B20FFF714FF7820FFF7D6
S113441011FF8A20FFF70EFF6420FFF70BFFBB207C
S1134420FFF708FF3A20FFF705FFBE20FFF702FF62
S11344303E20FFF7FFFE8720FFF7FCFE0620FFF774
S1134440F9FE8120FFF7F6FE9120FFF7F3FE8220AC
S1134450FFF7F0FE5020FFF7EDFE8320FFF7EAFEA2
S11344607D20FFF7E7FEAF20FFF7E4FE2620FFF7ED
S1134470E1FE0120FFF7DEFEFFF754FF02220020D9
S1134480084B1A70084B033A1880084B1A8010BD69
S1134490209014542490145434A014543090145480
S11344A000A014546A010020640100206601002069
S11344B070B505000C0025201600FFF7BBFE280090
S11344C0FFF7B8FE2000FFF7B5FE0620704328185A
S11344D01234C0B2FFF7AEFEE0B2FFF7ABFE70BD20
S11344E0F0B50E00002187B0070000920193072267
S11344F00CAB04A81D880391FCF73EF9262303ACFA
S1134500022120002380FFF7BBFE212323703B1CE4
S11345105F2F00D95F236370331C3F2E00D93F23E4
S1134520A3706B46009A1B785F2A00D95F23E3705F
S11345306B46019A1B793F2A00D93F232371EB0A6A
S11345405B0063716B059B0EA3713E236D001D40E0
S113455008212000E571FFF793FEFA20400000F0E7
S1134560C0FD07B0F0BD0000F0B53A4B14003A4A64
S113457087B0107019700A2C05D100200931107011
S1134580197007B0F0BD25001F3D602DF9D85928DA
S113459006D900200931C9B2107035290DD8197017
S11345A005A904A8FFF790FE0622624300242B4BC2
S11345B0C03AD318029300251BE01870F0E7029B61
S11345C009271B7803930023002607E06A46127B21
S11345D052B2002A21DA0133DBB201360599B14225
S11345E0F4DC039A013F5200D2B20392002FEBD1C4
S11345F00135049B9D42E2DB029B013401330293AB
S1134600062CD8D105A904A8FFF75EFE049A124B24
S113461054431A78A4181C70B3E7002BDDD0049817
S11346200D4A60431278794380180A4A4019127877
S1134630023B89180A4A891B1288C9B2C0B2CB1836
S11346400139DBB20092C9B20200FFF749FF00232F
S1134650C3E7C0466901002068010020B16D000075
S113466066010020F7B50192DAB206000F001D00C2
S11346700024FFF71DFF062060433018C0B2AC428F
S113468000DBF7BD019B39001A5DFFF76DFF0134B4
S1134690F1E700003623F0B589B006AC2380234B44
S11346A0234D1B68210063602B680293022301934E
S11346B0204B009300231A00180001F063FB1E4BEB
S11346C01E4F1F491870002801D000201D4900F01A
S11346D0F5F9386800F005FD2B6805AE0293022356
S11346E00193002321001A001800009601F057FBE3
S11346F00025154B04001870A84214D1357873783E
S113470012492D021D4300F0D9F97378327810490B
S1134710200000F0D0FB2A0020000E4900F0CBFB63
S1134720386800F0DEFC280009B0F0BD74FEFF1FFD
S113473078FEFF1F8CFEFF1F770100207CFEFF1F09
S113474014700000F16F0000760100203470000046
S11347505170000067700000E522F0B589B005AB28
S11347601A8006ACA53A2280204A214F12680225FD
S113477007923A68009300232100180002920195E1
S11347801A0001F0FFFA06000F2000F0AAFC3B68B3
S113479001950293002304AD1A002100180000952E
S11347A001F0FDFA002E02D00024A0421BD12B7888
S11347B06C781B0223437D245C43240C0D490020A8
S11347C0063C00F07BF9A4B26B782A780A490020F1
S11347D000F071FB22000020084900F06CFB084B3C
S11347E0186800F07EFC200009B0F0BD74FEFF1FC5
S11347F078FEFF1F6D7000005170000067700000AC
S11348007CFEFF1FE322F0B58BB007AB1A8008AC27
S1134810A33A2280354A364E12680225099232683C
S11348200093002321001800029201951A0001F060
S1134830A9FA07000F2000F054FC33680195029395
S1134840002306AD1A0021001800009501F0A7FA14
S11348502B78059068781B021843FEF799FD254ACA
S1134860254BFDF761FF0022244BFDF75DFF244A31
S1134870244BFEF7C5F9FEF703FE041CFDF76CF8A4
S1134880214E80B23080FDF79FFB011C201CFDF7F8
S1134890B3F91E49FDF796F8FEF7AAFDFBF756FE9D
S11348A0FDF772F87080002F03D00020059B83422F
S11348B019D11749002000F001F96B782A781549BD
S11348C0002000F0F8FA1449201CFDF77BF8FDF7EE
S11348D043F8124982B2002000F0EDFA104B186838
S11348E000F0FFFB30000BB0F0BDC04674FEFF1FAC
S11348F078FEFF1FD7A3703D0AF765400000F03E25
S1134900CDCCCCCCCC6C47407801002000002041B9
S11349108E700000517000000000C84267700000F3
S11349207CFEFF1F0369C268934201D880681B188C
S1134930013B981A7047F7B58368C46801931F1B3D
S1134940436805000E001819A418974207D83A00C6
S1134950FBF7BEFE019B6868E41A2200F119FBF71D
S1134960B7FEEC60F7BD0023F7B506001700C56875
S1134970019100933369B4689D421FD2013B5B1BD4
S1134980641BBC4200D93C009C4200D91C007368E3
S1134990220058190199FBF79BFE009B2D191B1946
S11349A00093019B3F1B1B190193B368AB4200D1D9
S11349B00025F560002FDDD10098FEBD1B19DDE751
S11349C0022310B50F4C104A236163610F4BA2619F
S11349D0E361C823A2640E4A2362E2640023042232
S11349E0A3626362E362A3656365E36522650949C3
S11349F0E01DFCF71FF820000749FCF71BF82023F3
S1134A00A37110BD7C010020B2700000F8010020E9
S1134A10F4010020BB700000BF700000F8B5160060
S1134A201822451C55434243164B0F005D199B1831
S1134A30DC6A012C10D0022C1BD0002C1FD12800C2
S1134A40FFF770FF864205D8320039002800FFF7CF
S1134A5072FF34002000F8BD2800FFF763FF340024
S1134A60864200D90400220039002800FFF763FFC2
S1134A70F0E732002800FFF776FF0400EAE700249D
S1134A80E8E7C0467C010020F8B50B4B04001B7816
S1134A900E001700002B01D1FFF792FFEFF31085F2
S1134AA0012181F310883A0031002000FFF7B6FF9E
S1134AB085F31088F8BDC0467C01002070B5050060
S1134AC008000C00FBF7BEFF210002002800FFF7DE
S1134AD0DBFF70BDF7B5164C0193237805000F007A
S1134AE01600002B01D1FFF76BFF2369AB421CD9E1
S1134AF0EFF31082012181F31088002D0CD01823CC
S1134B00691C59436B43675061184E600199E3185F
S1134B10196200219962596218204543089B64195F
S1134B20E36282F310880020FEBD01204042FBE7CF
S1134B307C010020826810B504004068531C834245
S1134B4005D820688154A360E3680133E360A26858
S1134B5063689A4209D121682069FFF795FFA36829
S1134B60984203D001235B42E36010BD0023A3609D
S1134B70FBE70000F0B5050017000800012685B02A
S1134B800A9C02910093B84219D2009A0196964267
S1134B9000D2019201230B9A1A4003920B9A1A42F3
S1134BA002D1002C10D10024EB680126002B4BDB32
S1134BB0009B012B1FD9013B00937E43F8E739008A
S1134BC0FCF754FD0136DEE70B9B20269B0704D53A
S1134BD0009B1036002B00D0103E019BA342E3D271
S1134BE031002800FFF7A6FFEB68013C002BDBDB5C
S1134BF0002CF2D1D7E731000298FCF737FD874249
S1134C00DBD902983100FCF7B7FD114B0291195C16
S1134C102800FFF78FFFEB68002B05DB390030001D
S1134C20FCF724FDBE4211D2039B002B0CD0002CB8
S1134C300AD0019BA34207D220212800FFF77AFF64
S1134C40EB68013C002BF2DA05B0F0BD0600D8E7B2
S1134C50C6700000F0B59FB00EAB099340230A93D1
S1134C6000230E00150007900B930D900C933178E0
S1134C700136002907D10C9B0393002B00DD09E1C9
S1134C800C981FB0F0BD252900D0B3E000270822FE
S1134C90042006E0302B0DD1022300E001231F4342
S1134CA00E003378711C2D2BF8D0F3D8232B10D0A1
S1134CB02B2B0CD000240A213378721C18003038B6
S1134CC0092808D84C43303C16001C19F4E7074364
S1134CD0E6E71743E4E7002103912E2B0ED11600DB
S1134CE00A203278711C1300303B092B06D8039B31
S1134CF00E004343303BD3180393F2E70423317887
S1134D000A0001369A43682A01D13178F8E77829F4
S1134D1009D86F290BD8632967D017D8252969D0FA
S1134D20582900D195E00C9B002BA0DAA3E7703939
S1134D3008000829F7D8FCF78FFCA500F6FFF6FF5A
S1134D409400F6FF8300F6FFF6FF8C006429EAD195
S1134D502B681A1D1B682A60DA179818049301231C
S1134D6050400593092849DC039B059A0693934216
S1134D7000D20692002C05D0049B002B01DB7B079C
S1134D8000D5013C02231F4202D0039B002B05D017
S1134D9001231F4202D1002C36D100240C9B059321
S1134DA0002BC0DB049B002B3ADA2D215B420493D9
S1134DB009A8FFF7BFFE0C9B002BB4DB03233B4089
S1134DC0022B05D1039B002B02D1002C2CD10024F3
S1134DD00C9B0593002BA6DB0A22039B04990197E5
S1134DE0009409A8FFF7C6FE9DE72B6819681A1DF1
S1134DF02A60C9B209A8FFF79DFE94E70A21FCF7CF
S1134E00BFFC059B0133ACE7069BA342C6D220211D
S1134E1009A8FFF78FFE0C9B013C002BBBDABDE712
S1134E207B07C8D52B21C3E7069BA342D0D23021F0
S1134E3009A8FFF77FFE0C9B013C002BC5DAC7E7EE
S1134E400A22296801970B1D2B60039B00940968B3
S1134E50C7E7296801970B1D2B60039B0094102260
S1134E60F5E72B681A1D2A601C6821780134002993
S1134E7000D158E709A8FFF75DFE0C9B0393002BB4
S1134E80F3DA50E729680B1D2B60002301930833E4
S1134E900093E4E70B9A002A03D007980EA9FFF7C2
S1134EA0F3FD0C9B03930B9B0493049A039B94467E
S1134EB063440C93E4E60EB403B503AB02CB01AA3E
S1134EC00193FFF7C7FE02B008BC03B0184710B542
S1134ED0002000F04BFD10BD10B5002001F090FB48
S1134EE010BD0000082310B5164A9178194202D06B
S1134EF091780B439370882100222220124B4901A0
S1134F005A501249124C08708020124940025850DD
S1134F101968114801401960195910480840C02106
S1134F2089040143195180210D4B1A7219767F3976
S1134F301A7059700B490A700C3299791142FCD1DC
S1134F4010BDC04600D007400070044000E0074098
S1134F500410000044100000FFFFF3FFFFFFFFF008
S1134F6000400640005006401249134810B58142E3
S1134F7005D00022114B9B089B009A420FD1104B85
S1134F80104A9960002310491048521A9A420AD1D3
S1134F9000210F4B0F4AD21A013A08D210BD84588F
S1134FA08C500432E9E7CC5CC4540133EEE7197049
S1134FB00133F1E7000000000000000000000000E1
S1134FC000ED00E0107400006872000000FEFF1F96
S1134FD0A8FFFF1F5C03002003004170002018702D
S1134FE058609860704710B5437804000120FF2B87
S1134FF008D000F033FA63780133DBB2637000F059
S113500021FA002010BD70B504000D0000F026FA4E
S1135010E1682943E16000F015FA002070BD00004A
S113502000220A4B9A641A0040329A631A00303202
S11350309A621A0020329A611A0010329A60044A65
S11350401360044B9B60DB607047C046C4020020C1
S1135050C0020020140300200022024B1A601868CA
S113506080B270470C007C5070B5437804000D008A
S1135070002B0BD0002500F0F1F96378013BDBB283
S11350806370257000F0DEF9280070BD022000294D
S1135090FBD02378002B17D0FFF7DEFF6368A268EC
S11350A0834204D8C01A824206D30320EDE7C01A13
S11350B080235B02C018F6E700F0D0F900232370C8
S11350C000F0C0F90220E0E74B1CEED000F0C6F976
S11350D00123237000F0B6F9FFF7BEFFA5606060FE
S11350E0E3E770B50500FFF7B7FF802604007602FA
S11350F0FFF7B2FF0300844203D8031B9D42F7D29B
S113510070BD301BC318F9E710B5012801D100F0B8
S1135110A5F910BD10B5012801D100F093F910BD17
S113512010B5FFF77DFF01230020084A08491360EA
S1135130084A094C1060086004212160074C216072
S113514007490B6007490860136010BD388004509C
S11351500000845000000450000004510400045175
S113516004000C500000045310B5044C206021715D
S11351700020A2602373637310BDC0462403002083
S11351800422F0B587B005AC3B4E0190029120702B
S1135190617033790092834226D90022337B150053
S11351A0737301230092A3700393334F3B7BAB4291
S11351B01DD8009B002B02D0029B012B48D101205B
S11351C0FFF7A2FF0C20019B0025584333681818F1
S11351D000F0B0F8019B012073710226FFF79AFFDB
S11351E0A6703B7BAB421AD8009807B0F0BDBA68F2
S11351F0AB009B58002B0FD01A7903990A420BD0AD
S113520020001A6899689047002805D0029B7D7396
S1135210002B1BD0052300930135EDB2C5E7BA6816
S1135220AB009B58002B0ED01A7932420BD02000D1
S11352301A6899689047002805D0029B7D73002B5B
S113524017D0062300930135EDB2CAE70523009376
S11352500023A370013DEDB2FF2DC5D0064BAA007B
S11352609B68D358002BF5D020001A6899689047A2
S1135270F0E706230093B7E724030020014B587995
S11352807047C0462403002013B504000020217891
S11352900190022920D0032922D0012925D1227985
S11352A001AB144800F07CFF002814D1A3795A1EE6
S11352B09341114ADB01137063785A1E93410F4ADC
S11352C05B001370A2780E4B1A70E2780D4B1A70C3
S11352D062790D4B1A7016BD0100227901ABE0E72B
S11352E001A9044800F09EFFDEE701A9014800F08F
S11352F03BFFD9E7004006401840865300408650E3
S1135300004006500140065018401650F821084A43
S113531043099B009B180905C2050A4013438022D8
S1135320520513431F2210401E3A82401A607047F0
S113533028800440072373B5009300230400104D14
S11353401A000121280001F04DF92000FFF79CFF0D
S1135350637A280000930023217A1A0001F042F9AD
S1135360E379084A9B041360074BA17A1D6828005F
S113537000F074FF2800E17A00F077FF002076BD8A
S11353800070044000700C592471000010B50548E9
S113539000F0AAFE044B1968C9B20131FCF766F9A2
S11353A010BDC0460040064044801C5E10B5FFF7A7
S11353B0EDFF10BD10B5054800F096FE044B1968CA
S11353C0C9B20131FCF752F910BDC0460040064095
S11353D04480145810B5FFF7EDFF10BD0B4B1B684C
S11353E0DBB2022B0CD0032B0DD00020834206D15C
S11353F0074A106880221202904200D018007047B9
S1135400044B1868FBE7FA208000F8E700700C5999
S11354104C0300205003002010B5FFF7DFFF10BD40
S113542010B5024B185CFFF771FF10BDD670000079
S113543010B57620FFF76AFF10BD10B56620FFF7A0
S113544065FF10BD044A1368002B04D0013B1360B0
S1135450002B00D162B670473403002072B6024AB2
S113546013680133136070473403002010B5064CF1
S1135470064801F025FB042801D1002010BD013CA1
S1135480002CF5D10320F9E7EA03000000E007400F
S113549010B50B4B0B490A78002A07D0084C0A4870
S11354A001F00EFB012806D1002003E0013B002B94
S11354B0F1D1032010BD013C002CF0D1F9E7C04626
S11354C0EA03000002D0075100E00740F7B50700E7
S11354D00E00150001200193002F15D0002913D0D0
S11354E0FFF712FE094C102200212000FBF744F9BB
S11354F027602671002D03D0019BA560237363737D
S11355000120FFF707FE0020FEBDC046380300203F
S1135510F0B5B14C8DB002900391237B01206373ED
S1135520FFF7F2FD2379029A934206D80120FFF790
S1135530F1FD022738000DB0F0BD029A23689200F5
S1135540D35809AC1D780193039B2A002372029B54
S11355502370019B636002239A430492012A01D0C1
S1135560052D0AD101219D4801F0FEF9002807D13B
S11355700120FFF7CFFD0127DCE70321072DF2D837
S11355800123002763723C000593934E337BA342AF
S11355902AD80120FFF7BEFD914800F0C9FD049B05
S11355A0012B4AD10138022835D9039B012B00D0A5
S11355B00DE106270120FFF7A7FD0023012609AD11
S11355C06B72013CE4B2FF2C00D1AFE0824BA2002D
S11355D09B68D358002BF4D01A793242F1D02800BA
S11355E01A6899689047ECE7B268A3009B58002BAF
S11355F00ED01A7905990A420AD01A68996809A83E
S11356009047002804D0039B04277473012BC0D156
S11356100134E4B2B9E7FFF7DDFE724B9842C4D817
S1135620FFF7B4FE704EB042BFD8FFF7C3FEB042DE
S1135630BBD8FFF7BBFEB042B7D8039B012B00D009
S1135640C1E00A2D00D9BCE02800FBF7FBFF060AE5
S11356500D1E879A7B822F737800002207AB1A7085
S11356602DE0032207ABFAE75C4801F029FA012890
S113567008D00021594801F087F9FFF709FF071EF8
S113568000D057E7012207ABE9E7544801F018FAC4
S1135690042808D00221514801F076F9FFF7E6FE0C
S11356A0071E00D046E7042207ABD8E7072207AB62
S11356B01A80019AD2789A70019A1279DA702B00C2
S11356C0083B022B06D8019B06AA5B799372019BC7
S11356D09B79D372019B5B78002B0AD0012D08D9EA
S11356E0019B02229978414B00294DD019690A4344
S11356F01A613A4807A901F06BF9002800D0032782
S1135700002D45D1FFF7C4FE071E00D012E7002785
S11357100120FFF7F9FC029B2F4D0024AB730223F9
S113572009AE737201932B7BA34236D80120FFF795
S1135730F1FCFFE6082207ABFF321A80BFE72C4AD0
S113574007ABFAE7022207AB1A700222FF329A80F3
S1135750B5E7022207AB1A70264AF8E7022207AB24
S11357601A70013A1D489A8001F0AAF90128A6D0BE
S113577000211A4801F008F9FFF78AFE071E9ED09F
S1135780D8E6052207AB6AE7196991431961B0E7C6
S1135790012DBDD1FFF76AFEB6E7AA68A3009B58A6
S11357A0002B0BD01A7901990A4207D030001A68ED
S11357B099689047002801D005276C730134E4B23E
S11357C0B1E70327B6E6002F00D13AE7F2E6002F4F
S11357D000D0EFE6EDE6C0463803002000E00740C5
S11357E00040064040420F0080841E0000ED00E0AF
S11357F0070300000102000010B5064801F060F93B
S113580003000020012B03D00B30042B00D10A38F5
S113581010BDC04600E00740F7B5FF2403681D4AE9
S11358201E0A26401C40B3009F581B4A05009B5883
S113583030000193FFF7F4FD00222100380001F04D
S113584047F9019BA400E41884232A795B052343C8
S113585052001A6080236A795B0523431A609023FF
S1135860AA795B05234312011A600C4B1C43EB79A4
S11358701B042360EB79002B0AD0094B9B57002BA8
S113588006D01F2213401E3A9A401300054A1360A3
S1135890F7BDC046287100003071000000001818E0
S11358A03871000000E100E0F8B5FF24050003684A
S11358B0114A180A20401C4083009F580F4A9E58E2
S11358C0FFF7AEFD38002100012201F001F96A68FA
S11358D02100380001F00BF988232A7AA400A419C6
S11358E05B05234392001A6098235B051C436B7A83
S11358F09B012360F8BDC046287100003071000090
S113590070B50C00002807D1002C0FD170BD050024
S11359100835FFF781FF280003680133F7D1F3E767
S1135920250020000C35FFF7BFFF2C00236801334E
S1135930F6D1EBE7FF22030A044913409B005958B0
S11359400123104083404B607047C046287100001B
S1135950FF22030A044913409B00595801231040B5
S113596083408B607047C04628710000084B82005A
S1135970D258942310B502325B0513431B78002BD5
S113598002D000F019FA10BD00F06CFAFBE7C04633
S1135990D8700000020080230C325B0513431A7890
S11359A0002AFCD00171704770B50D00084B8000CF
S11359B0C458200029001830FFF756FB0328F8D0FC
S11359C0002801D004232374207CC0B270BDC046DB
S11359D04803002010B5104B8000C458E37C002B12
S11359E005D0237C052B02D0237C042B0BD10B4B3D
S11359F018589823821C5B05134300221A7001F087
S1135A00E5F801236374A37C002B03D02000183035
S1135A10FFF7E9FA10BDC04648030020D870000023
S1135A20F0B51700002289B005930EAB1B78050072
S1135A300393830032481E5832481C5807AB1A801F
S1135A40A37C880A04930223FF3363828B0A0193A5
S1135A50CBB21E2801D11A000B0A5B00D8B2019BFD
S1135A6000211E2B05D08F4203D1012303995B1A19
S1135A7059B20143CBB202930299019807AB197052
S1135A8001211E2801D15A704918A3603000E16039
S1135A900299FFF77FFF28000F99FFF785FF237C0A
S1135AA0002B0CD1002F0AD0059BA760E3603000C7
S1135AB03978FFF76FFF28000F99FFF775FF237CF4
S1135AC0039A1A4314D1019B1E2B01D0002F0FD02F
S1135AD0002301273000A360E76001F065F8029914
S1135AE030003943FFF756FF28000F99FFF75CFF9A
S1135AF00023207CE374049BC0B2A37409B0F0BDFE
S1135B00D870000048030020F7B583000193184BB8
S1135B108200D75805000C000126002F26D1154B12
S1135B203900D358200024220193FAF725FE2000DF
S1135B3039001830FFF750FA2800FFF77EFC01986F
S1135B4000F0DDFF0A4BAA00D4501F220A4B5B5D14
S1135B50134032009A40094B1A609C22019B520563
S1135B6002331343802266743E001A703000FEBD77
S1135B7048030020D8700000DC70000000E100E061
S1135B800A4B800070B5C5584B686A690C00934293
S1135B900BD0074BC658FFF70DFC002301006268C9
S1135BA0300000F0BBFF63686B6170BD48030020E8
S1135BB0D8700000F0B587B004920593334A0FAB58
S1135BC01E7883009C580391627C0700002A03D14D
S1135BD00320207407B0F0BD002E01D11E220E92C6
S1135BE02B4A3800D55800230399E360A36023743B
S1135BF023606374A674FFF7C3FF90231021AA1CCB
S1135C005B05134319708423E91C5B050B430221D4
S1135C10197098235B05134302934023029A2800CA
S1135C20137000F0C1FF039B380019880E9B049A7F
S1135C30019301230093059BFFF7F2FE0D9B002BBC
S1135C4017D0237C002B11D10C9B2800A3600D9B43
S1135C50E3600C9B1978FFF79DFE002E03D03800FB
S1135C600E99FFF7A1FE207CC0B2B3E7237C042B7E
S1135C70F9D100230126029A1370EB785B093342B1
S1135C8002D0280000F0A2FF6674ECE7480300206D
S1135C90D8700000F0B589B0079311AB1B78069259
S1135CA0364A029383009C580591627C0600002AC0
S1135CB003D10320207409B0F0BD029A002A01D157
S1135CC01E32109200272E4A0599D5580E9B30009B
S1135CD023600F9BA7606360029BE760A374277433
S1135CE06774FFF74DFF9023AA1C5B051A4310232A
S1135CF01370842304925B05EA1C134302221A7076
S1135D009823AA185B051A434023280013700392B2
S1135D1000F04AFF059B069A1988109B30000193F6
S1135D200097079BFFF77CFE237CDAB2BB4215D1B8
S1135D30049BA91C1A708C235B050B430F99012942
S1135D4000D108221A702B79029B002B03D030005B
S1135D501099FFF729FE207CC0B2ACE7237C042B0A
S1135D60F9D10126039B1F70EB785B09334202D003
S1135D70280000F02BFF6674EDE7C04648030020BE
S1135D80D87000001FB501240394089C0294079C5A
S1135D900194069C0094FFF70DFF04B010BD1FB5DD
S1135DA001240394089C0294079C0194069C00948B
S1135DB0FFF770FF04B010BD244B70B58400E558A4
S1135DC08423EA1C5B05134302221A709023A9184A
S1135DD05B050B431B78EA78DBB292061DD594224F
S1135DE052050A431278002A17D0194AA458012BE5
S1135DF014D1EA781A4204D004332374FFF7EAFD7D
S1135E000BE0E368013BE360002BF7D0A3682800B4
S1135E105A1CA2605978FFF7BDFD70BD6268013A53
S1135E206260002A06D08C235B05012A0AD0002276
S1135E300B4309E0FFF7CEFD23685A1C22602A7940
S1135E401A70EAE708220B431A70F5E7D8700000CD
S1135E5048030020C31C8420400518430223037018
S1135E60704700000122F0B5904B8100CD5889B0F5
S1135E70EB1C0193EB7890261B091A400592012232
S1135E80EB7876059B091A4002923200AB1D1A4347
S1135E90944612780090D2B20792942252051A4383
S1135EA01278AF1CD0B203909820400503431878B1
S1135EB0C0B206907E480C583100394301910978EC
S1135EC0C9B20491002A35D0079A002A0ED01023B3
S1135ED0624628001370FFF7BDFF236B002B52D0DE
S1135EE06A4601211078626B98474CE0069A002AB2
S1135EF020D0402228001A70FFF7ACFF23002C3377
S1135F001B78002B03D19822520517433B70236B57
S1135F10002B04D06A4680211078626B9847E37D99
S1135F20002B04D0200080211830FFF76CF80A23DE
S1135F30237028E02800FFF78DFF059B002B24D059
S1135F40EB1C1E4310233370029B002B10D0EB7804
S1135F505B07DA0F002B48DB019B1A70236B002BC5
S1135F6004D06A4604211078626B98472B790AE0C2
S1135F70082323702C342378002B04D198235B0549
S1135F801F43029B3B7009B0F0BD029B002BDED186
S1135F90049B012B54D1EB78049A134230D0019B1B
S1135FA0029A1A702B7923002C331B78002B07D10B
S1135FB0039B002B04D198235B051F43039B3B7079
S1135FC0236B002B04D06A4608211078626B984733
S1135FD0A37D002B04D0200008211830FFF713F80C
S1135FE000236360E3602375CDE71023019A1370E7
S1135FF0236B002B04D06A4602211078626B984709
S11360006368002B50D028008022E3680C305205CE
S11360101978024310780028FCD029710133E36019
