S02B00002F73747564656E74732F6E643433352F576172702D6669726D776172652F6275696C642F6B73646B20
S1130000000600201D050000450500004505000010
S113001000000000000000000000000000000000DC
S11300200000000000000000000000004505000082
S11300300000000000000000450500004505000028
S11300404505000045050000450500004505000084
S11300504505000045050000450500004505000074
S1130060072E000045050000112E00004505000084
S11300704505000045050000450500004505000054
S11300804505000045050000450500004505000044
S11300900D19000025190000450500004505000064
S11300A04505000045050000450500004505000024
S11300B04505000045050000450500004505000014
S1130400FFFFFFFFFFFFFFFFFFFFFFFFFE3DFFFFBB
S11304100448054B10B5834203D0044B002B00D095
S1130420984710BDA8FFFF1FA8FFFF1F0000000092
S113043006480749091A8B10C90FC91810B5491085
S113044003D0044B002B00D0984710BDA8FFFF1F1A
S1130450A8FFFF1F0000000010B5074C2378002BF5
S113046009D1FFF7D5FF054B002B02D0044800E06B
S113047000BF0123237010BDA8FFFF1F0000000070
S113048028510000054B10B5002B03D00449054842
S113049000E000BFFFF7CCFF10BDC0460000000025
S11304A0ACFFFF1F28510000402292029A1A924684
S11304B07047C046154B002B00D1114B9D46FFF7EA
S11304C0F3FF00218B460F461148124A121A00F01E
S11304D0FFF80C4B002B00D098470B4B002B00D09F
S11304E098470020002104000D000B4800F02EF86E
S11304F000F064F82000290001F010FB00F034F84B
S113050000000800000000000000000000060020B9
S1130510A8FFFF1F540300209505000072B606488B
S11305200649074A02600A6002F078FC02F0B8FC4F
S113053062B6FFF7BFFF000080E100E080E200E068
S1130540FFFFFFFF004800474505000010B501000C
S113055000230022002000F055FA10BD014B18685A
S11305607047C04600FEFF1F084B10B50400002B67
S113057002D0002100F0B4FA054B1868836A002BFE
S113058000D09847200001F093F9C046E10A00002A
S11305902C4C000070B5074D074C641BA41005D00B
S11305A0013CA300EB589847002CF9D104F0C2FD9C
S11305B070BDC0464C5100005051000070B50C4D48
S11305C00C4E761BB61005D0002408CD0134984794
S11305D0A642FAD104F0A8FD074D084E761BB610CA
S11305E005D0002408CD01349847A642FAD170BD45
S11305F04851000048510000485100004C5100008F
S113060010B5034B0100186800F00CF910BDC0468A
S113061000FEFF1F10B5034B0100186800F0ACF892
S113062010BDC04600FEFF1FF0B5C64600B50F2A38
S113063043D90B00032603431E400C000300002E85
S113064040D11500103D2D09AC462D01A84680442B
S113065000E03B00676825685F60E7681D60DF6055
S11306601F00A56810379D6010344345F1D16546DD
S11306700F230C2401352D01491913404519144247
S113068023D08C59AC5104369C1B032CF9D8032479
S1130690043B9B0801339B002240ED18C918561EE9
S11306A0002A07D0002300E02300CA5C5C1CEA5443
S11306B09E42F9D104BC9046F0BD0500561E002AA6
S11306C0F0D1F7E7561E0500ECE71A00F6E7C0463E
S11306D0F0B5050083074AD0541E002A44D0CEB298
S11306E00300032202E00135013C3DD301332E70A7
S11306F01342F8D1032C2FD9FF220A4015021543C7
S11307002A0415430F2C35D92700103F3F093E0119
S1130710B4461E001A001036664415605560956094
S1130720D5601032B242F8D10F260C2201373F01B6
S11307302640DB193700224217D03E1FB608B4000A
S1130740A4461A001C1D644420C2A242FCD1032406
S11307500136B6009B193C40002C05D0C9B21C19C7
S1130760197001339C42FBD1F0BD3400F4E714004E
S11307700300BFE72700E0E770B50500002915D0A6
S11307800C1F2368002B27DB280000F007FA244BFA
S11307901A68002A05D0A2420CD921686018824246
S11307A024D0626028001C6000F0FAF970BDA342F6
S11307B003D81A005368002BF9D111685018A042CD
S11307C01BD027D821686018834207D06360546027
S11307D0280000F0E5F9E9E7E418D5E718685B6854
S11307E084466144216063605460F1E71068526894
S11307F08446614421606260D4E720680918501877
S113080011608342E4D118685B68844661441160D6
S11308105360DDE70C2328002B6000F0C1F9C5E725
S1130820C4FFFF1FF8B50323CD1C9D430835060004
S11308300C2D2AD20C25A94229D8300000F0AEF99B
S11308402A4F3A68002A0AD013685B1B04D441E09B
S113085023685B1B1FD522005468002CF8D17B68E9
S1130860002B3DD02900300000F042F8431C2AD070
S11308700323C41C9C43A04205D0211A300000F07D
S113088037F8431C1FD0256010E0002DD3DA0C2369
S113089000203360F8BD0B2B05D86368A2421DD03D
S11308A0536003E014002360E4182560300000F076
S11308B077F9200007220B30231D9043C21AE9D098
S11308C01B1AA350E6E70C233000336000F068F9EC
S11308D00020DFE70B2BE5D8140053683B60E5E705
S11308E00021300000F004F87860BBE7C4FFFF1F6C
S11308F0002370B5064C05000800236000F0DAFF01
S1130900431C00D070BD2368002BFBD02B60F9E79B
S1130910500300200CB400B59DB002910691094922
S11309201EAB07910491084904CB059102A90193D8
S113093000F02AFA0023029A13701DB008BC02B01A
S11309401847C046FFFFFF7F0802FFFF0EB400B543
S11309500B499CB0079104910A491DAB05910A49C2
S113096004CB02900690086802A9019300F00CFAE7
S11309700023029A13701CB008BC03B01847C04689
S1130980FFFFFF7F0802FFFF00FEFF1F03000A783E
S113099001311A700133002AF9D1704710B5830769
S11309A027D00378002B26D00300032102E01A7815
S11309B0002A1CD001330B42F9D119680F4A104C9C
S11309C08A188A4322420FD1043319680B4A8A18C1
S11309D08A43224208D104331968084A8A188A4390
S11309E02242F1D000E001331A78002AFBD1181A10
S11309F010BD0300E1E70020FAE7C046FFFEFEFE5B
S1130A0080808080F0B546464F46D646C0B51F006C
S1130A102F4B82B01C6805000E009046002C2DD090
S1130A2063681F2B50DC002D1CD08822A0589146EF
S1130A30002834D07832825894469A0091468144F2
S1130A40424649460A600121624699400A43944657
S1130A5080228A466146520081504946803A8F502E
S1130A60022D16D000205A1C02339B0062601E51D6
S1130A7002B01CBC90469946A246F0BD154C1C60C1
S1130A80154B002BCCD01B6801938823019AE250AC
S1130A90C6E75546843281580D438550E2E70F4B33
S1130AA0002B11D084204000FFF7AAFD00280BD0B2
S1130AB08022002352008350043283504B4600228C
S1130AC0E05094466368B8E701204042D0E7C0464E
S1130AD058000020CCFFFF1F0000000001060000AA
S1130AE0F0B5DE464E46454657462B4B88469B4658
S1130AF0E0B51E6883B00190002E45D08823756848
S1130B00F7586C1E40D40135AD00783375199A46F8
S1130B100AE0002F05D03B00A20080339B584345D8
S1130B2005D0043D013C2FD34346002BF1D173681B
S1130B302A68013BA34222D000232B60002AF0D074
S1130B4073689946002F18D001235146A340795861
S1130B50194212D0822040003858A10079580090E0
S1130B6018420ED1019890475B4672681B684A454B
S1130B7001D1B342D5D01E00BEE79047F4E77460BC
S1130B80DCE708009047EFE703B03CBC9046994689
S1130B90A246AB46F0BDC046580000207047C04690
S1130BA07047C046F0B546464F46D646C0B58E6837
S1130BB081460C0090461D0008689E4239D8902258
S1130BC08B89D200134211D135002A00414600F02E
S1130BD055FCA36800209E1B2368A6609C466544C0
S1130BE025601CBC90469946A246F0BD0969421A8C
S1130BF092466269681C5700BF18FA0FD7197F1014
S1130C0050443A00B84201D9070002005B0512D5EE
S1130C1011004846FFF706FE061E1FD05246216902
S1130C20FFF702FDA389124A134080221343A381D4
S1130C3006E01E00C9E7484600F07EFC061E09D007
S1130C403000534650446761FF1A266120602E002D
S1130C50A760BAE721694846FFF78EFD0C234A4690
S1130C60136040220120A38940421343A381B8E7C3
S1130C707FFBFFFFF0B54E464546DE465746E0B5DE
S1130C80936883B001900D009146002B6BD01768D8
S1130C9008688C6844E09022AB89D20013422ED0BD
S1130CA02969421A9346686942001218D00F8218C3
S1130CB0701C521058449046904201D9804602005C
S1130CC08020C000034237D011000198FFF7AAFD2D
S1130CD0041E53D05A462969FFF7A6FCAB89294A5A
S1130CE0134080221343AB81434620005A462C61B3
S1130CF0B046340058446B619B1A2860AB6042468E
S1130D00514600F0BBFBAB681C1B2B68AC60434432
S1130D102B6018004B469B689E1B4B469E6022D05E
S1130D203B687E689A460837A046002EF8D0A64253
S1130D30B1D23400B046E2E7019800F0FDFB041E96
S1130D40D2D1019C29692000FFF716FD0C232360F2
S1130D504022AB8901201343AB814A460023404221
S1130D609360536003E000234A460020536003B0BD
S1130D703CBC90469946A246AB46F0BD0C23019A72
S1130D801360E5E77FFBFFFFF0B54E46DE465746AE
S1130D904546E0B5A1B0049003911C008B899146AF
S1130DA01B0604D50B690593002B00D119E1002320
S1130DB008AD6B6120336B761033AB762F3B9846CE
S1130DC04B461B780794924F002B00D186E0252BCD
S1130DD000D104E14E4603E0252B00D18BE0260030
S1130DE07378741C002BF7D14B46E31A9A4675D0DE
S1130DF053464A4603990498FFF7D4FE431C6DD02A
S1130E006B6953446B617378002B67D00122002314
S1130E1052426A60443201342B60EB60AB60AB54E5
S1130E20AB6506E04346C01B834034002A68134385
S1130E302B6021780522380000F0E0FA661C0028B7
S1130E40F0D12B68B246DA0602D543222021A954F8
S1130E501A0702D543222B21A95421782A2950D1DB
S1130E60079A111D12680791002A00DA9AE0EA60D5
S1130E706178A61C2E295CD0664B03221800994683
S1130E8000F0BCFA002800D171E04B46C01A4023A0
S1130E9083402A68317813432B600622731C5E4812
S1130EA09946297600F0AAFA00286AD05B4B002BF9
S1130EB000D170E007AB0093039A594B29000498C2
S1130EC000E000BF83465B46013307D06B695B4497
S1130ED06B614B461B78002B00D078E7039B9B8902
S1130EE05B0600D58CE0686921B03CBC904699460D
S1130EF0A246AB46F0BD4B46E31A9A4600D185E7BD
S1130F0076E70A00303AA246092AB3D8EB681800FB
S1130F1001E03400013683001B1831785B00981817
S1130F200A00303A092AF4D9B246E860A61C2E29F0
S1130F30A2D1534659782A293AD1079B1A1D079200
S1130F4052469178D61C022294461B68E2446B6098
S1130F50002B00DB90E701235B426B602D4B0322E7
S1130F601800994600F04AFA002800D08DE7B146EF
S1130F705646317806222848297600F03FFA0028A0
S1130F8094D107AB0093039A254B2900049800F0F1
S1130F90E1F8834697E70722079B07339343083317
S1130FA0079393E75242EA60022213432B605FE700
S1130FB00A000023303A6B601800092A01D91CE0AA
S1130FC01E0083001B1871785B0098180A00303AE1
S1130FD0731C092AF4D99A46023668604CE74C46D9
S1130FE014E74021FFF71EFC039B186018610028DA
S1130FF009D04023039A5361D9E6B24601363BE750
S11310000120404270E70C23049A013813606BE717
S1131010EC500000F4500000F85000000000000004
S1131020A50B0000F0B54F464646D646C0B51F0096
S1131030089B914698468A680B6906000C00934207
S113104000DA13004A4613604322A25C002A02D04D
S11310504A460133136023689A065AD54B461B68E7
S113106006209A1C4B461A6023681900184208D1BE
S1131070E16800258A1A19218A461900A244002A27
S11310803FDC4323E35C5A1E93418A060AD5302091
S1131090E1184331087045215A1C615CA21843329F
S11310A0023311702200390043323000C047431C20
S11310B019D006232068A26821690340042B30D08C
S11310C08A423ADD00239946521A91441A34002583
S11310D002E001354D4530DA0123220039003000A9
S11310E0C047431CF5D1012040421CBC90469946A0
S11310F0A246F0BD4B46E2681B680135D31AAB42E9
S113110020DD0123524639003000C047431CF1D191
S1131110E9E706221A4212D04323E35C5A1E9341A4
S1131120C0E74B46E0681B68C31AD843C017184091
S113113081468A42C8DC002BC8DC0020D5E74A4639
S1131140126895E743232168E35C5A1E93418A069B
S11311509DD4A7E7F0B557469A4643239C464E468E
S11311604546DE468C446346E0B587B003930B7E68
S1131170914680460C00109A6E2B00D1D8E000D81E
S113118071E0732B00D11AE100D881E0752B00D1F6
S1131190FFE0782B00D00BE10B68782045216054E8
S11311A094498B46116840C91160180603D4580647
S11311B001D53604360CDA0702D520221343236006
S11311C01027002E00D1C2E043230022E2546368BA
S11311D0A360002B00DAC5E004222168914321605A
S11311E0002E00D083E0002B00D0BDE0039D082F2B
S11311F000D18CE0039B5B1B2361534605AA00933B
S113120021004B464046FFF70DFF431C22D02369C3
S11312102A0049464046D047431C1BD02268059803
S1131220E368920700D47FE01A1A002A00DC7BE00E
S113123026000025193606E0E368059801351A1AD8
S1131240AA4200DC70E00123320049464046D04700
S1131250431CF1D10120404207B03CBC9046994662
S1131260A246AB46F0BD632B00D184E01FD8002B0F
S113127069D0582B00D09BE0452163545E49236814
S11312808B46116840C91160180600D48FE792E7B5
S11312906F2B7ED0702B00D08AE020230968782041
S11312A00B4345212360605452498B467AE7642BF3
S11312B001D0692B7CD111682368081D10601D06BC
S11312C04AD50A681600002A03DB4B4B0A279B46C3
S11312D07DE743222D21A15462687642A260002A50
S11312E002DB042293432360434B0A279B46039D5E
S11312F000E006003900300000F0EAF95B465B5C70
S1131300013D2B70BE42F4D2082F00D072E723684F
S1131310DB0700D46EE763682269934200DD69E766
S11313203023013D2B7065E7984295DA180093E766
S1131330136809681D1D606915601B680E0601D4D9
S113134049064BD418600023039D236155E72023ED
S113135022689A43226037E75D06B2D500228E5E8A
S11313603200B0E7002EC2D15B4625001A78422332
S11313704235E2543BE713682500191D11601A68D1
S11313804223E254413B4235236143230022E25489
S113139033E7116820680D1D1560060601D4400668
S11313A01ED40E686F2B1DD0134B0A279B460BE7E8
S11313B042222500A354012342352361E5E7136843
S11313C0191D11601D6862680021280000F016F8DC
S11313D000280BD0401B60602061D6E71880B2E77C
S11313E00E88DFE7044B08279B46EDE66068206122
S11313F0CBE7C046145100000051000070B5CDB2D7
S1131400830734D0531E002A1BD00278AA4219D075
S1131410032404E0013B14D30278AA4212D0013021
S11314202042F7D1032B0ED8002B0AD00278AA420F
S113143008D0C31802E00278AA4203D001308342E4
S1131440F9D1002070BDFF220C06240C1140214369
S11314500C04084E0C43026807496240511891433A
S11314603142E3D1043B0430032BF4D8DCE713000E
S1131470D8E7C04680808080FFFEFEFEF0B5C646F9
S113148000B588420CD98B18984209D2531E002A01
S113149003D0CA5CC254013BFBD204BC9046F0BDED
S11314A00F2A0CD80500561E002AF6D0002300E0AF
S11314B02300CA5C5C1CEA549E42F9D1EDE70B00A0
S11314C0032603431E400C000300002E2ED11500FA
S11314D0103D2D09AC462D01A846804400E02B00A8
S11314E01D00276810351F6067685F60A7689F60EC
S11314F0E7681034DF604345F1D165460F230C24BF
S113150001352D01491913404519144211D08C5944
S1131510AC5104369C1B032CF9D80324043B9B08D0
S113152001339B00ED18C9182240BCE7561E050084
S1131530BCE71A00B7E7C046F8B507000C00150071
S113154000291BD0002A15D000F01EF82600A8425E
S113155001D33000F8BD29003800FFF763F9061EF7
S1131560F7D021002A00FFF75FF821003800FFF7C9
S113157003F9EEE7FFF700F90026EAE71100FFF7A9
S113158051F90600E5E7C0460B1F1B68181F002B26
S113159000DB70470B58C018FBE7C04602B4714625
S11315A049084900095C49008E4402BC7047C046A2
S11315B003B47146490840004900095E49008E445D
S11315C003BC7047002243088B4274D303098B4247
S11315D05FD3030A8B4244D3030B8B4228D3030CFF
S11315E08B420DD3FF22090212BA030C8B4202D3A1
S11315F01212090265D0030B8B4219D300E0090AC9
S1131600C30B8B4201D3CB03C01A5241830B8B42D1
S113161001D38B03C01A5241430B8B4201D34B03BA
S1131620C01A5241030B8B4201D30B03C01A52411F
S1131630C30A8B4201D3CB02C01A5241830A8B42A4
S113164001D38B02C01A5241430A8B4201D34B028D
S1131650C01A5241030A8B4201D30B02C01A5241F1
S1131660CDD2C3098B4201D3CB01C01A52418309A5
S11316708B4201D38B01C01A524143098B4201D3DF
S11316804B01C01A524103098B4201D30B01C01A0A
S11316905241C3088B4201D3CB00C01A5241830884
S11316A08B4201D38B00C01A524143088B4201D3B1
S11316B04B00C01A5241411A00D201465241104611
S11316C07047FFE701B5002000F0F0F802BDC04606
S11316D00029F7D076E7704703460B437FD40022F6
S11316E043088B4274D303098B425FD3030A8B42B2
S11316F044D3030B8B4228D3030C8B420DD3FF221C
S1131700090212BA030C8B4202D31212090265D0E9
S1131710030B8B4219D300E0090AC30B8B4201D39C
S1131720CB03C01A5241830B8B4201D38B03C01AE3
S11317305241430B8B4201D34B03C01A5241030B5A
S11317408B4201D30B03C01A5241C30A8B4201D30B
S1131750CB02C01A5241830A8B4201D38B02C01AB6
S11317605241430A8B4201D34B02C01A5241030A2D
S11317708B4201D30B02C01A5241CDD2C3098B4212
S113178001D3CB01C01A524183098B4201D38B018F
S1131790C01A524143098B4201D34B01C01A524132
S11317A003098B4201D30B01C01A5241C3088B4277
S11317B001D3CB00C01A524183088B4201D38B0062
S11317C0C01A524143088B4201D34B00C01A524104
S11317D0411A00D201465241104670475DE0CA0FDB
S11317E000D04942031000D34042534000229C469B
S11317F003098B422DD3030A8B4212D3FC228901A5
S113180012BA030A8B420CD3890192118B4208D37A
S1131810890192118B4204D389013AD0921100E0DC
S11318208909C3098B4201D3CB01C01A52418309F0
S11318308B4201D38B01C01A524143098B4201D31D
S11318404B01C01A524103098B4201D30B01C01A48
S11318505241C3088B4201D3CB00C01A52418308C2
S11318608B4201D38B00C01A5241D9D243088B4218
S113187001D34B00C01A5241411A00D201466346BB
S113188052415B10104601D34042002B00D549421F
S1131890704763465B1000D3404201B5002000F05E
S11318A005F802BD0029F8D016E770477047C04616
S11318B0FEE7C0460A4A0300116810B5002901D1A9
S11318C00849116010680849C3188B4206D9FEF70D
S11318D045FE0C2303600120404210BD1360FCE769
S11318E05C00002058030020580300208378022065
S11318F09842804140427047437A0020013B012BCB
S113190003D90B78013001330B70704710B50020F8
S113191002F0F6FD002803D00021080002F0E4FDE7
S113192010BD0000024A1368013313607047C046BB
S11319300001002037B5002001F016FDC02300246B
S11319400D4A9B0013600D4A0D4D13600D4A200093
S113195013600D4B2C716C71AC711A68FA239B00E7
S113196053430A492B6002F019FE2900200001AA02
S113197002F056FE37BDC046189014541C901454FF
S11319805801002000A0145484FEFF1F28010020E9
S113199010B5002001F0EDFC8023054A9B00136084
S11319A0044A00200449136002F04AF810BDC046FE
S11319B00CA0145410A01454040100200023364A2F
S11319C070B51360354A01201360354A0133FF3383
S11319D01360344A34491360344A1360344A136040
S11319E0344A1360344A1360344A1360344A147816
S11319F02500054004424DD00B60324932480B604B
S1131A00002101603148016031490B6031490B60AC
S1131A1031490B6031490B6031490B6031490B602E
S1131A201378DB0703D50220FF3001F01FFF0920E4
S1131A3001F02AFF0C2001F027FF052001F024FF0C
S1131A40082001F021FF0620FF3001F01DFF0E20C9
S1131A50FF3001F019FF8320400001F015FF08203A
S1131A60FF3001F011FF0C20FF3001F0FFFE0220D7
S1131A70FF3001F009FF8020400001F005FF07203E
S1131A8001F002FF062001F0FFFE8020400001F07B
S1131A90FBFE70BD0D60B0E70C901454109014540C
S1131AA0149014541890145404A014541C901454F6
S1131AB020901454249014543090145400A01454BE
S1131AC080FEFF1F08A014540CA0145410A014543A
S1131AD014A0145418A014541CA0145428A0145472
S1131AE02CA0145434A0145410B5092001F0CCFED9
S1131AF010BD10B50C2001F0C7FE10BD10B5FFF7E6
S1131B00F3FFFFF7F6FF8320400001F0AFFE024B26
S1131B10186801F082FA10BD88FEFF1FF0B5AFB05F
S1131B201DAC072200212000FEF7D2FDEE4A01275A
S1131B30229203220DAB25930FAB269311AB28936E
S1131B4015AB2A9317AB2B9319AB2C931BAB13AE8A
S1131B5009A900202D9322AB1A71249127700B93AD
S1131B602794299601F0F8FB380001F0F5FB802258
S1131B70DE4B12021A6001F06FFA002300971A007C
S1131B801900180000F042FFD949002000F032FF8C
S1131B90C82001F042FAD749002000F02BFFC820EA
S1131BA001F03BFAD449002000F024FFC82001F0E2
S1131BB034FA3B00D14A0221D14801F071FA3900CC
S1131BC0380001F079FA002002F0D8FB6C210025DE
S1131BD0CC4B28001F9306AB5B181D80023106AB6B
S1131BE05B181FA91D70209702F0F4FB3A0029002E
S1131BF009A8FEF76DFD32201D9B06A91193A2884A
S1131C000A86A27909180A700322063806A9091857
S1131C100A701393A28806A9B280A2790A38B27115
S1131C200522327002260D93A2880A84A27909182B
S1131C300A7006AA16770F93A28806A90A85A279C4
S1131C40083009180A700422063806A909180A700F
S1131C501593A2881C3006A909180A80A279801954
S1131C6006A909180A700822063806A909180A7074
S1131C701793A2880C3006A909180A80A279801942
S1131C8006A909180A700921063806AA1218117043
S1131C901993A3880C3006AA12181380A37980190B
S1131CA006AA121813704C220A2406AB9B181C7047
S1131CB0083206AB9B181D700BAA3B0025A801F047
S1131CC0A1FB2900300000F09BF98F498F4801F0F7
S1131CD0B3FDFFF773FE0820FF3001F0C7FDC820F5
S1131CE001F09BF90820FF3001F0CEFDC82001F07F
S1131CF094F90820FF3001F0B9FDC82001F08DF9F6
S1131D000820FF3001F0C0FDC82001F086F908204A
S1131D10FF3001F0ABFDC82001F07FF90820FF304F
S1131D2001F0B2FD18207A4900F0E3F968207949FE
S1131D3000F0EAF91020784900F0E0F91D20774915
S1131D4000F0E8F94320764900F0E9F90E207549DE
S1131D5000F0EAF96A20744900F0ECF9772073493D
S1131D6000F0EEF95A20724900F0EEF9714968204A
S1131D7000F0F0F9FFF7C2FE00F078FB2800FFF74F
S1131D8007FE00F059FC050007000390069005903B
S1131D90049000F009FD86B230002100FFF798FCA2
S1131DA030008BB221000793FFF70CFC079B82B233
S1131DB061490CA8FEF7CAFD0CA9002001F017F830
S1131DC05E4B8D3E186801F028F900229E2E70D8D3
S1131DD0FF21100000F030FA00F028FA0823012156
S1131DE02A200CAA00F02AFB02230121544A422093
S1131DF000F024FB00F082FC86B2320051490AA8AC
S1131E00FEF7A4FD0AA9002000F0F4FD4B4B18686E
S1131E1001F003F933003D3B262B02D9731E262B18
S1131E204AD800224521FF2000F006FA00F0FEF90E
S1131E300523162136200AAA00F000FB16210123EF
S1131E404420414A00F0FAFA4049002000F0D2FD53
S1131E5000F0F2FB030095222E3BFF3B9BB20600F1
S1131E605200934200D98EE00022FF21100000F0BE
S1131E70E3F900F0DBF9039B0521F01AFFF72CFCD2
S1131E802D18ADB22B0032339E4200DC7FE00223DA
S1131E902F4A2A21332000F0D1FA2E4801F0BDF850
S1131EA0069B0393059B0693049B049705933700B5
S1131EB06FE74521FF208DE7293E122E4ED80022E0
S1131EC0FF21100000F0B8F900F0B0F90523162145
S1131ED036200AAA00F0B2FA1621012344201A4A35
S1131EE000F0ACFA1C49B0E7F918000044030020E4
S1131EF0304C00004B4C0000514C000064FEFF1FAE
S1131F0090FFFF1FE0070100A0FEFF1F90FEFF1FD0
S1131F108000002090000020A0000020F00000209D
S1131F20C0000020E0000020D0000020700000204D
S1131F30B000002060000020584C00007CFEFF1F11
S1131F40864C00005E4C00008E4C0000624C000089
S1131F50764C000088130000684C0000FF2211003A
S1131F60100000F069F900F061F90523162136200C
S1131F700C4A00F063FA1621012344200A4A00F0B7
S1131F805DFA0A4961E700224521FF206FE72B0033
S1131F90323B9E4202DA0223054A7AE70223054ACB
S1131FA077E7C0466F4C00008E4C0000724C000076
S1131FB0784C00007A4C00001FB5040001A90020F1
S1131FC002F030FA694601A802F06AF9009B6846FB
S1131FD01C1901A9009402F0EBF8012201A90020C8
S1131FE002F04CFA1FBD00000022034B1A6080224D
S1131FF0024B1206DA67704700A01C5804E100E0A7
S113200070B50D000A2408281CD8FFF7C7FA051D6F
S11320102A3F54676C6F5C0001F08AFB0524012899
S113202010D0FFF7E1FF2800FFF7C6FF00210800EA
S113203001F00AFA01210400002001F03DF8002C0F
S113204022D10024200070BD01F072FB0624012877
S1132050F8D0FFF7C9FF2800FFF7AEFF00210120E9
S1132060E6E701F065FB08240128EBD001F0A2F8B3
S1132070002803D00121002001F01EF800210220D5
S113208001F0E2F90028DCD00924DBE701F050FB81
S113209007240028D6D0FFF7A7FF2800FFF78CFFFE
S11320A00021032001F0D0F9040001F041FB0121DB
S11320B00028C4D1C1E7FFF797FF2800FFF77CFF92
S11320C000210420EEE70021082001F0BDF9041EE0
S11320D0DAD10121080000F0EFFFB3E70021052069
S11320E001F0B2F9D0E700210620F9E7002107202A
S11320F0F6E7C223FF3308704B607047014B08704A
S11321004B60704701700000014B08704B607047D2
S1132110010E0000C223FF3308704B607047052393
S113212008704B6070470000014B08704B607047AB
S113213001700000014B08704B607047010E0000F5
S1132140032308704B607047014B08704B60704765
S113215005000030012308704B60704737B50E2529
S1132160FF350400280001F081FB0A2000F055FF30
S1132170280001F089FB0C2001F086FBFA23084AB1
S11321809B00147000210193012308000093054B68
S113219002F0A2FA0400280001F068FB20003EBD12
S11321A0710100206701002073B50E25FF3504007E
S11321B028000E0001F05AFB0A2000F02EFF280030
S11321C001F062FB0C2001F05FFBFA2300219B006D
S11321D02200080001930096044B02F07DFA0400EB
S11321E0280001F043FB200076BDC04667010020B3
S11321F000B50D4A030010780138032812D8FFF700
S1132200CDF902070B0F02221A6001230B6000BDF7
S113221001221A600223F9E702221A600A60F6E733
S11322200622FAE70122F8E766010020014B188034
S11322307047C04662010020C008800183B289084B
S11322400B435B0198B2D2081043704710B52520A8
S1132250FFF784FF0020FFF781FF0020FFF77EFFD8
S11322605F20FFF77BFF3F20FFF778FF10BD0000E2
S113227070B505000C0025201600FFF76FFF28003D
S1132280FFF76CFF2000FFF769FF084B12341B783F
S11322900C20E4B2032B00D0062070432818C0B2EF
S11322A0FFF75CFF2000FFF759FF70BD66010020B7
S11322B0F0B50E00002187B00700009201930722B9
S11322C00CAB04A81D880391FEF702FA262303AC85
S11322D0022120002380FFF767FF212323703B1C8A
S11322E05F2F00D95F236370331C3F2E00D93F2337
S11322F0A3706B46009A1B785F2A00D95F23E370B2
S11323006B46019A1B793F2A00D93F232371EB0ABC
S11323105B0063716B059B0EA3713E236D001D4032
S113232008212000E571FFF73FFF07B0F0BD000072
S11323300223F0B514007B3A87B09A4200D80133E7
S1132340394A1370394A3A4B107019700A2C05D166
S1132350002009311070197007B0F0BD25001F3D31
S1132360602DF9D8592806D900200931C9B2107056
S113237035290DD8197005A904A8FFF739FF0622DD
S113238054432C4AC03CA3180024029300251BE0AC
S11323901870F0E7029B09271B780393002300269B
S11323A007E06A46127B52B2002A21DA0133DBB21B
S11323B001360599B142F4DC039A013F5200D2B2CE
S11323C00392002FEBD10135049B9D42E2DB029B7B
S11323D0013401330293062CD8D105A904A8FFF7D0
S11323E007FF049A114B54431A78A4181C70B3E7DE
S11323F0002BDDD004980D4A60431278794380188D
S11324000B4A40191278023B89180B4A891B12881F
S1132410C9B2C0B2CB180139DBB20092C9B2020012
S1132420FFF746FF0023C3E7660100206401002094
S113243065010020964C000062010020F7B501926E
S1132440DAB206000F001D000024FFF711FF06207A
S113245060433018C0B2AC4200DBF7BD019B3900C9
S11324601A5DFFF765FF0134F1E70000C02370B582
S11324708024634A9B001360624A64001360FFF780
S113248059FA614B20001C60604B02251C60604BB4
S11324901C6001F0EBF9642000F0BFFD200001F0A6
S11324A0F3F9642000F0B9FD200001F0DFF96420A5
S11324B000F0B3FDAE20FFF751FEA020FFF74EFE63
S11324C07220FFF74BFEA120FFF748FE0020FFF724
S11324D045FEA220FFF742FE0020FFF73FFEA420A6
S11324E0FFF73CFEA820FFF739FE3F20FFF736FE3A
S11324F0AD20FFF733FE8E20FFF730FEB020FFF74C
S11325002DFE0B20FFF72AFEB120FFF727FE312016
S1132510FFF724FEB320FFF721FEF020FFF71EFE95
S11325208A20FFF71BFE6420FFF718FE8B20FFF7BD
S113253015FE7820FFF712FE8A20FFF70FFE6420B5
S1132540FFF70CFEBB20FFF709FE3A20FFF706FE5B
S1132550BE20FFF703FE3E20FFF700FE8720FFF7B3
S1132560FDFD0620FFF7FAFD8120FFF7F7FD91201E
S1132570FFF7F4FD8220FFF7F1FD5020FFF7EEFD99
S11325808320FFF7EBFD7D20FFF7E8FDAF20FFF789
S1132590E5FD2620FFF7E2FD00240120FFF7DEFD24
S11325A0FFF754FE01221B4B52421D701A4B2000B0
S11325B01C801A4B01211A800523194AFFF73EFF9C
S11325C0082301212A20174AFFF738FF200003239C
S11325D01621154AFFF732FF032316213620134A2A
S11325E0FFF72CFF200006232B21114AFFF726FFBB
S11325F02B002A2133200F4AFFF720FF200070BD53
S1132600209014542490145434A01454309014542E
S113261000A0145466010020600100206201002023
S11326207C4C0000814C0000894C00008C4C000064
S1132630904C0000704C00003623F0B589B006AC15
S11326402380234B234D1B68210063602B68029376
S113265002230193204B009300231A00180001F079
S11326602DFB1E4B1E4F1F491870002801D000205F
S11326701D4900F0BFF9386800F0CFFC2B6805AEA7
S1132680029302230193002321001A0018000096EC
S113269001F021FB0025154B04001870A84214D149
S11326A03578737812492D021D4300F0A3F973782D
S11326B032781049200000F09AFB2A0020000E49CD
S11326C000F095FB386800F0A8FC280009B0F0BDC4
S11326D074FEFF1F78FEFF1F8CFEFF1F7301002096
S11326E07CFEFF1FF94E0000D64E00007201002050
S11326F0194F0000364F00004C4F0000E522F0B5A2
S113270089B005AB1A8006ACA53A2280204A214F35
S11327101268022507923A680093002321001800EA
S1132720029201951A0001F0C9FA06000F2000F088
S113273074FC3B6801950293002304AD1A00210048
S11327401800009501F0C7FA002E02D00024A04220
S11327501BD12B786C781B0223437D245C43240C0F
S11327600D490020063C00F045F9A4B26B782A78A4
S11327700A49002000F03BFB22000020084900F039
S113278036FB084B186800F048FC200009B0F0BD87
S113279074FEFF1F78FEFF1F524F0000364F0000EB
S11327A04C4F00007CFEFF1FE322F0B589B005AB5F
S11327B01A8006ACA33A2280214A224F12680225CD
S11327C007923A68009300232100180002920195B1
S11327D01A0001F073FA06000F2000F01EFC3B689B
S11327E001950293002304AD1A00210018000095FE
S11327F001F071FA002E02D00024A0421CD12B78E3
S11328006C781B022343104C10495C43240CD63CC7
S11328100020FF3C00F0EEF8A4B26B782A780C4953
S1132820002000F0E4FA220000200A4900F0DFFA58
S1132830094B186800F0F1FB200009B0F0BDC04658
S113284074FEFF1F78FEFF1FDD060000734F0000BB
S1132850364F00004C4F00007CFEFF1F0369C26826
S1132860934201D880681B18013B981A7047F7B54A
S11328708368C46801931F1B436805000E00181980
S1132880A418974207D83A00FDF7CEFE019B68686A
S1132890E41A2200F119FDF7C7FEEC60F7BD00232E
S11328A0F7B506001700C568019100933369B46851
S11328B09D421FD2013B5B1B641BBC4200D93C0000
S11328C09C4200D91C007368220058190199FDF735
S11328D0ABFE009B2D191B190093019B3F1B1B1979
S11328E00193B368AB4200D10025F560002FDDD120
S11328F00098FEBD1B19DDE7022310B50F4C104AEA
S1132900236163610F4BA261E361C823A2640E4A91
S11329102362E26400230422A3626362E362A36588
S11329206365E36522650949E01DFEF72FF8200081
S11329300749FEF72BF82023A37110BD7401002072
S1132940974F0000F0010020EC010020A04F000090
S1132950A44F0000F8B516001822451C5543424305
S1132960164B0F005D199B18DC6A012C10D0022C49
S11329701BD0002C1FD12800FFF770FF864205D81A
S1132980320039002800FFF772FF34002000F8BD40
S11329902800FFF763FF3400864200D904002200B8
S11329A039002800FFF763FFF0E732002800FFF743
S11329B076FF0400EAE70024E8E7C046740100203B
S11329C0F8B50B4B04001B780E001700002B01D147
S11329D0FFF792FFEFF31085012181F310883A008D
S11329E031002000FFF7B6FF85F31088F8BDC0461C
S11329F07401002070B5050008000C00FDF7CEFF3F
S1132A00210002002800FFF7DBFF70BDF7B5164C6C
S1132A100193237805000F001600002B01D1FFF766
S1132A206BFF2369AB421CD9EFF31082012181F3C0
S1132A301088002D0CD01823691C59436B43675030
S1132A4061184E600199E318196200219962596274
S1132A5018204543089B6419E36282F31088002020
S1132A60FEBD01204042FBE774010020826810B5DE
S1132A7004004068531C834205D820688154A36035
S1132A80E3680133E360A26863689A4209D121686C
S1132A902069FFF795FFA368984203D001235B42A6
S1132AA0E36010BD0023A360FBE70000F0B5050060
S1132AB017000800012685B00A9C02910093B842D1
S1132AC019D2009A0196964200D2019201230B9AE0
S1132AD01A4003920B9A1A4202D1002C10D10024FE
S1132AE0EB680126002B4BDB009B012B1FD9013B1C
S1132AF000937E43F8E73900FEF764FD0136DEE714
S1132B000B9B20269B0704D5009B1036002B00D07E
S1132B10103E019BA342E3D231002800FFF7A6FF39
S1132B20EB68013C002BDBDB002CF2D1D7E7310052
S1132B300298FEF747FD8742DBD902983100FEF781
S1132B40C7FD114B0291195C2800FFF78FFFEB685A
S1132B50002B05DB39003000FEF734FDBE4211D2F4
S1132B60039B002B0CD0002C0AD0019BA34207D25C
S1132B7020212800FFF77AFFEB68013C002BF2DAF2
S1132B8005B0F0BD0600D8E7AB4F0000F0B59FB02C
S1132B900EAB099340230A9300230E0015000790FF
S1132BA00B930D900C9331780136002907D10C9BBF
S1132BB00393002B00DD09E10C981FB0F0BD25291B
S1132BC000D0B3E000270822042006E0302B0DD10A
S1132BD0022300E001231F430E003378711C2D2BC8
S1132BE0F8D0F3D8232B10D02B2B0CD000240A219F
S1132BF03378721C18003038092808D84C43303C0C
S1132C0016001C19F4E70743E6E71743E4E700213D
S1132C1003912E2B0ED116000A203278711C13005A
S1132C20303B092B06D8039B0E004343303BD3189B
S1132C300393F2E7042331780A0001369A43682AA1
S1132C4001D13178F8E7782909D86F290BD863299D
S1132C5067D017D8252969D0582900D195E00C9B55
S1132C60002BA0DAA3E7703908000829F7D8FEF78B
S1132C709FFCA500F6FFF6FF9400F6FF8300F6FF25
S1132C80F6FF8C006429EAD12B681A1D1B682A60A0
S1132C90DA1798180493012350400593092849DC56
S1132CA0039B059A0693934200D20692002C05D00A
S1132CB0049B002B01DB7B0700D5013C02231F4250
S1132CC002D0039B002B05D001231F4202D1002C0C
S1132CD036D100240C9B0593002BC0DB049B002BF6
S1132CE03ADA2D215B42049309A8FFF7BFFE0C9B3F
S1132CF0002BB4DB03233B40022B05D1039B002BA9
S1132D0002D1002C2CD100240C9B0593002BA6DBB4
S1132D100A22039B04990197009409A8FFF7C6FEB1
S1132D209DE72B6819681A1D2A60C9B209A8FFF724
S1132D309DFE94E70A21FEF7CFFC059B0133ACE727
S1132D40069BA342C6D2202109A8FFF78FFE0C9B45
S1132D50013C002BBBDABDE77B07C8D52B21C3E7B9
S1132D60069BA342D0D2302109A8FFF77FFE0C9B1B
S1132D70013C002BC5DAC7E70A22296801970B1D1D
S1132D802B60039B00940968C7E7296801970B1D12
S1132D902B60039B00941022F5E72B681A1D2A6010
S1132DA01C6821780134002900D158E709A8FFF7ED
S1132DB05DFE0C9B0393002BF3DA50E729680B1D8F
S1132DC02B600023019308330093E4E70B9A002A55
S1132DD003D007980EA9FFF7F3FD0C9B03930B9BFD
S1132DE00493049A039B944663440C93E4E60EB460
S1132DF003B503AB02CB01AA0193FFF7C7FE02B0F0
S1132E0008BC03B0184710B5002000F04BFD10BDFE
S1132E1010B5002001F090FB10BD0000082310B590
S1132E20164A9178194202D091780B439370882105
S1132E3000222220124B49015A501249124C0870A8
S1132E408020124940025850196811480140196005
S1132E50195910480840C02189040143195180219F
S1132E600D4B1A7219767F391A7059700B490A7012
S1132E700C3299791142FCD110BDC04600D00740F4
S1132E800070044000E007400410000044100000FB
S1132E90FFFFF3FFFFFFFFF0004006400050064035
S1132EA01249134810B5814205D00022114B9B08EA
S1132EB09B009A420FD1104B104A9960002310498D
S1132EC01048521A9A420AD100210F4B0F4AD21AC3
S1132ED0013A08D210BD84588C500432E9E7CC5C26
S1132EE0C4540133EEE719700133F1E70000000028
S1132EF0000000000000000000ED00E0F8520000B7
S1132F005051000000FEFF1FA8FFFF1F54030020C4
S1132F10030041700020187058609860704710B525
S1132F20437804000120FF2B08D000F033FA6378C3
S1132F300133DBB2637000F021FA002010BD70B5DC
S1132F4004000D0000F026FAE1682943E16000F076
S1132F5015FA002070BD000000220A4B9A641A0082
S1132F6040329A631A0030329A621A0020329A610F
S1132F701A0010329A60044A1360044B9B60DB60B1
S1132F807047C046BC020020B80200200C03002099
S1132F900022024B1A60186880B270470C007C5003
S1132FA070B5437804000D00002B0BD0002500F011
S1132FB0F1F96378013BDBB26370257000F0DEF950
S1132FC0280070BD02200029FBD02378002B17D0E5
S1132FD0FFF7DEFF6368A268834204D8C01A824206
S1132FE006D30320EDE7C01A80235B02C018F6E77E
S1132FF000F0D0F90023237000F0C0F90220E0E7CC
S11330004B1CEED000F0C6F90123237000F0B6F992
S1133010FFF7BEFFA5606060E3E770B50500FFF74A
S1133020B7FF802604007602FFF7B2FF0300844254
S113303003D8031B9D42F7D270BD301BC318F9E7B8
S113304010B5012801D100F0A5F910BD10B5012873
S113305001D100F093F910BD10B5FFF77DFF0123F6
S11330600020084A08491360084A094C10600860A7
S113307004212160074C216007490B60074908605F
S1133080136010BD388004500000845000000450C8
S1133090000004510400045104000C5000000453C7
S11330A010B5044C206021710020A2602373637367
S11330B010BDC0461C0300200422F0B587B005AC47
S11330C03B4E0190029120706170337900928342EB
S11330D026D90022337B1500737301230092A37059
S11330E00393334F3B7BAB421DD8009B002B02D094
S11330F0029B012B48D10120FFF7A2FF0C20019B6A
S1133100002558433368181800F0B0F8019B0120DB
S113311073710226FFF79AFFA6703B7BAB421AD865
S1133120009807B0F0BDBA68AB009B58002B0FD0D5
S11331301A7903990A420BD020001A6899689047BB
S1133140002805D0029B7D73002B1BD00523009320
S11331500135EDB2C5E7BA68AB009B58002B0ED021
S11331601A7932420BD020001A68996890470028D7
S113317005D0029B7D73002B17D0062300930135E5
S1133180EDB2CAE7052300930023A370013DEDB21D
S1133190FF2DC5D0064BAA009B68D358002BF5D051
S11331A020001A6899689047F0E706230093B7E770
S11331B01C030020014B58797047C0461C030020B3
S11331C013B50400002021780190022920D003299E
S11331D022D0012925D1227901AB144800F07CFFCB
S11331E0002814D1A3795A1E9341114ADB011370AC
S11331F063785A1E93410F4A5B001370A2780E4BFA
S11332001A70E2780D4B1A7062790D4B1A7016BD64
S11332100100227901ABE0E701A9044800F09EFF18
S1133220DEE701A9014800F03BFFD9E70040064072
S11332301840865300408650004006500140065016
S113324018401650F821084A43099B009B180905A9
S1133250C2050A4013438022520513431F22104023
S11332601E3A82401A60704728800440072373B5D1
S1133270009300230400104D1A000121280001F0DE
S11332804DF92000FFF79CFF637A28000093002388
S1133290217A1A0001F042F9E379084A9B04136089
S11332A0074BA17A1D68280000F074FF2800E17A1A
S11332B000F077FF002076BD0070044000700C59C8
S11332C00C50000010B5054800F0AAFE044B196824
S11332D0C9B20131FEF776F910BDC0460040064080
S11332E044801C5E10B5FFF7EDFF10BD10B5054816
S11332F000F096FE044B1968C9B20131FEF762F979
S113330010BDC046004006404480145810B5FFF775
S1133310EDFF10BD0B4B1B68DBB2022B0CD0032B53
S11333200DD00020834206D1074A10688022120281
S1133330904200D018007047044B1868FBE7FA204D
S11333408000F8E700700C59440300204803002073
S113335010B5FFF7DFFF10BD10B5024B185CFFF787
S113336071FF10BDBB4F000010B57620FFF76AFF58
S113337010BD10B56620FFF765FF10BD044A136841
S1133380002B04D0013B1360002B00D162B67047C0
S11333902C03002072B6024A13680133136070478D
S11333A02C03002010B5064C064801F025FB042828
S11333B001D1002010BD013C002CF5D10320F9E718
S11333C0EA03000000E0074010B50B4B0B490A78F4
S11333D0002A07D0084C0A4801F00EFB012806D148
S11333E0002003E0013B002BF1D1032010BD013C80
S11333F0002CF0D1F9E7C046EA03000002D00751DF
S113340000E00740F7B507000E0015000120019306
S1133410002F15D0002913D0FFF712FE094C1022FB
S113342000212000FDF754F927602671002D03D0F8
S1133430019BA560237363730120FFF707FE00203F
S1133440FEBDC04630030020F0B5B14C8DB00290F3
S11334500391237B01206373FFF7F2FD2379029A22
S1133460934206D80120FFF7F1FD022738000DB082
S1133470F0BD029A23689200D35809AC1D780193D9
S1133480039B2A002372029B2370019B6360022327
S11334909A430492012A01D0052D0AD101219D48A5
S11334A001F0FEF9002807D10120FFF7CFFD012725
S11334B0DCE70321072DF2D80123002763723C00C7
S11334C00593934E337BA3422AD80120FFF7BEFD18
S11334D0914800F0C9FD049B012B4AD10138022810
S11334E035D9039B012B00D00DE106270120FFF7FE
S11334F0A7FD0023012609AD6B72013CE4B2FF2C49
S113350000D1AFE0824BA2009B68D358002BF4D0CB
S11335101A793242F1D028001A6899689047ECE78A
S1133520B268A3009B58002B0ED01A7905990A4261
S11335300AD01A68996809A89047002804D0039B08
S113354004277473012BC0D10134E4B2B9E7FFF747
S1133550DDFE724B9842C4D8FFF7B4FE704EB04201
S1133560BFD8FFF7C3FEB042BBD8FFF7BBFEB042E3
S1133570B7D8039B012B00D0C1E00A2D00D9BCE0D1
S11335802800FEF70BF8060A0D1E879A7B822F731C
S11335907800002207AB1A702DE0032207ABFAE78C
S11335A05C4801F029FA012808D00021594801F0AB
S11335B087F9FFF709FF071E00D057E7012207AB81
S11335C0E9E7544801F018FA042808D002215148C8
S11335D001F076F9FFF7E6FE071E00D046E7042265
S11335E007ABD8E7072207AB1A80019AD2789A7002
S11335F0019A1279DA702B00083B022B06D8019B42
S113360006AA5B799372019B9B79D372019B5B78C9
S1133610002B0AD0012D08D9019B02229978414B35
S113362000294DD019690A431A613A4807A901F0E3
S11336306BF9002800D00327002D45D1FFF7C4FE05
S1133640071E00D012E700270120FFF7F9FC029BB8
S11336502F4D0024AB73022309AE737201932B7BAD
S1133660A34236D80120FFF7F1FCFFE6082207AB9E
S1133670FF321A80BFE72C4A07ABFAE7022207ABF6
S11336801A700222FF329A80B5E7022207AB1A7041
S1133690264AF8E7022207AB1A70013A1D489A80BD
S11336A001F0AAF90128A6D000211A4801F008F96E
S11336B0FFF78AFE071E9ED0D8E6052207AB6AE70D
S11336C0196991431961B0E7012DBDD1FFF76AFE75
S11336D0B6E7AA68A3009B58002B0BD01A7901996E
S11336E00A4207D030001A6899689047002801D030
S11336F005276C730134E4B2B1E70327B6E6002F63
S113370000D13AE7F2E6002F00D0EFE6EDE6C0463E
S11337103003002000E007400040064040420F0014
S113372080841E0000ED00E0070300000102000099
S113373010B5064801F060F903000020012B03D006
S11337400B30042B00D10A3810BDC04600E00740FE
S1133750F7B5FF2403681D4A1E0A26401C40B30027
S11337609F581B4A05009B5830000193FFF7F4FD56
S113377000222100380001F047F9019BA400E4185D
S113378084232A795B05234352001A6080236A79D3
S11337905B0523431A609023AA795B052343120136
S11337A01A600C4B1C43EB791B042360EB79002B50
S11337B00AD0094B9B57002B06D01F2213401E3AF8
S11337C09A401300054A1360F7BDC046105000002C
S11337D018500000000018182050000000E100E01C
S11337E0F8B5FF2405000368114A180A20401C405C
S11337F083009F580F4A9E58FFF7AEFD3800210002
S1133800012201F001F96A682100380001F00BF986
S113381088232A7AA400A4195B05234392001A6022
S113382098235B051C436B7A9B012360F8BDC0465B
S1133830105000001850000070B50C00002807D18B
S1133840002C0FD170BD05000835FFF781FF28005B
S113385003680133F7D1F3E7250020000C35FFF7A7
S1133860BFFF2C0023680133F6D1EBE7FF22030AE4
S1133870044913409B0059580123104083404B6076
S11338807047C04610500000FF22030A0449134049
S11338909B0059580123104083408B607047C046F9
S11338A010500000084B8200D258942310B5023205
S11338B05B0513431B78002B02D000F019FA10BDEE
S11338C000F06CFAFBE7C046C04F00000200802302
S11338D00C325B0513431A78002AFCD0017170473F
S11338E070B50D00084B8000C45820002900183022
S11338F0FFF756FB0328F8D0002801D004232374D3
S1133900207CC0B270BDC0464003002010B5104BEF
S11339108000C458E37C002B05D0237C052B02D007
S1133920237C042B0BD10B4B18589823821C5B056A
S1133930134300221A7001F0E5F801236374A37C99
S1133940002B03D020001830FFF7E9FA10BDC04661
S113395040030020C04F0000F0B51700002289B0DA
S113396005930EAB1B7805000393830032481E5861
S113397032481C5807AB1A80A37C880A049302239C
S1133980FF3363828B0A0193CBB21E2801D11A0044
S11339900B0A5B00D8B2019B00211E2B05D08F427D
S11339A003D1012303995B1A59B20143CBB20293A9
S11339B00299019807AB197001211E2801D15A7090
S11339C04918A3603000E1600299FFF77FFF2800E7
S11339D00F99FFF785FF237C002B0CD1002F0AD011
S11339E0059BA760E36030003978FFF76FFF28007C
S11339F00F99FFF775FF237C039A1A4314D1019B97
S1133A001E2B01D0002F0FD0002301273000A3600C
S1133A10E76001F065F8029930003943FFF756FF7B
S1133A2028000F99FFF75CFF0023207CE374049BBC
S1133A30C0B2A37409B0F0BDC04F00004003002021
S1133A40F7B583000193184B8200D75805000C008A
S1133A500126002F26D1154B3900D35820002422EB
S1133A600193FCF735FE200039001830FFF750FAB7
S1133A702800FFF77EFC019800F0DDFF0A4BAA0046
S1133A80D4501F220A4B5B5D134032009A40094B0D
S1133A901A609C22019B52050233134380226674F0
S1133AA03E001A703000FEBD40030020C04F0000ED
S1133AB0C44F000000E100E00A4B800070B5C55817
S1133AC04B686A690C0093420BD0074BC658FFF74A
S1133AD00DFC002301006268300000F0BBFF636846
S1133AE06B6170BD40030020C04F0000F0B587B08B
S1133AF004920593334A0FAB1E7883009C580391BC
S1133B00627C0700002A03D10320207407B0F0BDB3
S1133B10002E01D11E220E922B4A3800D5580023C4
S1133B200399E360A360237423606374A674FFF7AE
S1133B30C3FF90231021AA1C5B051343197084232F
S1133B40E91C5B050B430221197098235B051343A1
S1133B5002934023029A2800137000F0C1FF039BD4
S1133B60380019880E9B049A019301230093059B46
S1133B70FFF7F2FE0D9B002B17D0237C002B11D1F5
S1133B800C9B2800A3600D9BE3600C9B1978FFF746
S1133B909DFE002E03D038000E99FFF7A1FE207C75
S1133BA0C0B2B3E7237C042BF9D100230126029A87
S1133BB01370EB785B09334202D0280000F0A2FFB7
S1133BC06674ECE740030020C04F0000F0B589B0F4
S1133BD0079311AB1B780692364A029383009C58D4
S1133BE00591627C0600002A03D10320207409B0E9
S1133BF0F0BD029A002A01D11E32109200272E4AEB
S1133C000599D5580E9B300023600F9BA760636015
S1133C10029BE760A37427746774FFF74DFF90233A
S1133C20AA1C5B051A4310231370842304925B05BA
S1133C30EA1C134302221A709823AA185B051A433C
S1133C40402328001370039200F04AFF059B069A54
S1133C501988109B300001930097079BFFF77CFEA7
S1133C60237CDAB2BB4215D1049BA91C1A708C23A5
S1133C705B050B430F99012900D108221A702B7997
S1133C80029B002B03D030001099FFF729FE207C03
S1133C90C0B2ACE7237C042BF9D10126039B1F702F
S1133CA0EB785B09334202D0280000F02BFF6674E6
S1133CB0EDE7C04640030020C04F00001FB50124BB
S1133CC00394089C0294079C0194069C0094FFF7BB
S1133CD00DFF04B010BD1FB501240394089C029489
S1133CE0079C0194069C0094FFF770FF04B010BD7C
S1133CF0244B70B58400E5588423EA1C5B05134308
S1133D0002221A709023A9185B050B431B78EA78EA
S1133D10DBB292061DD5942252050A431278002A7A
S1133D2017D0194AA458012B14D1EA781A4204D0A6
S1133D3004332374FFF7EAFD0BE0E368013BE3601F
S1133D40002BF7D0A36828005A1CA2605978FFF70B
S1133D50BDFD70BD6268013A6260002A06D08C2302
S1133D605B05012A0AD000220B4309E0FFF7CEFDD0
S1133D7023685A1C22602A791A70EAE708220B4346
S1133D801A70F5E7C04F000040030020C31C8420D4
S1133D904005184302230370704700000122F0B568
S1133DA0904B8100CD5889B0EB1C0193EB789026A1
S1133DB01B091A4005920122EB7876059B091A40EB
S1133DC002923200AB1D1A43944612780090D2B28C
S1133DD00792942252051A431278AF1CD0B2039072
S1133DE09820400503431878C0B206907E480C58CA
S1133DF03100394301910978C9B20491002A35D0C0
S1133E00079A002A0ED01023624628001370FFF789
S1133E10BDFF236B002B52D06A4601211078626BE0
S1133E2098474CE0069A002A20D0402228001A70B5
S1133E30FFF7ACFF23002C331B78002B03D198220F
S1133E40520517433B70236B002B04D06A46802134
S1133E501078626B9847E37D002B04D0200080210A
S1133E601830FFF76CF80A23237028E02800FFF7C6
S1133E708DFF059B002B24D0EB1C1E4310233370B5
S1133E80029B002B10D0EB785B07DA0F002B48DB8A
S1133E90019B1A70236B002B04D06A46042110780E
S1133EA0626B98472B790AE0082323702C3423781B
S1133EB0002B04D198235B051F43029B3B7009B080
S1133EC0F0BD029B002BDED1049B012B54D1EB7877
S1133ED0049A134230D0019B029A1A702B79230062
S1133EE02C331B78002B07D1039B002B04D1982380
S1133EF05B051F43039B3B70236B002B04D06A4676
S1133F0008211078626B9847A37D002B04D0200011
S1133F1008211830FFF713F800236360E36023756A
S1133F20CDE71023019A1370236B002B04D06A464B
S1133F3002211078626B98476368002B50D02800E8
S1133F408022E3680C305205197802431078002867
S1133F50FCD029710133E3606368013B63606368EB
S1133F60002BACD1E3602375236B002BA7D06A46EA
S1133F7010211078626B53E72B79A268DBB2002A18
S1133F802CD022691370236901332361A368013B98
S1133F90A360A368002B00D091E7039B002B11D1F1
S1133FA023002C331B78002B04D198235B051F437B
S1133FB0039B3B70E37D002B04D0200020211830AC
S1133FC0FEF7BDFF002363752361236B002B00D133
S1133FD075E76A4620211078626B21E7072343E7DF
S1133FE0062341E7C04F000040030020842252050D
S1133FF0024312780300D0B2002A0CD0802001338F
S1134000400503431878013843425841024B40426B
S11340101840024BC0187047808D5B0080841E00DE
S113402010B50D4B821D13431A780400D3B2002A35
S11340300FD0012B07D1FFF7D9FF084B08341C43DD
S11340402378D84010BD0020022BFBD1044B186804
S1134050F8E70448F6E7C046000008110000901095
S113406044030020006CDC020C4A811D0A431278D0
S11340700300D0B2012A04D002280BD000280BD1AF
S1134080704780220133520513431B78002BF7D16C
S11340900220F5E70320F3E70520F1E7000008110B
S11340A002009C2318325B05134380221A700022FD
S11340B0064B03431A70064B063018430378DAB2F2
S11340C0002BFBD1034B10000B607047000008135A
S11340D000000811006CDC02F8B504000D001600A5
S11340E01F00FFF7C1FF012823D1002D25D0802315
S11340F0621C5B0513431D70842302225B0523436A
S11341001A702200104B083213437200D2B21A7094
S113411040220E4B0E48234306341A70044323787E
S1134120012BFCD1002D0DD10A4B334100203B6003
S1134130F8BD0228DBD1012DD9D139002000FFF7C9
S1134140AFFFD4E7044BF0E7000090100000081321
S11341500000081180841E0000127A0010B50A4C79
S1134160030022680120002A0CD0084A7F301A4339
S113417010700748063303431A78022AFCD1002042
S113418023680B6010BDC0464403002000000813E0
S1134190000008119C23C9015B050343C9B21970CF
S11341A07047942349015B050343C9B219707047F2
S11341B070B506680C0030002049FDF703FA1F496A
S11341C005003000FDF784FA0E00E12130000901FA
S11341D0FDF7F8F9E121E08009013000FDF778FAF4
S11341E00E003C213000FDF7EDF93C212081300028
S11341F0FDF76EFA6E22A1720321114BFF32238068
S1134200238895420AD80F499B0700D10E49012300
S1134210CA5CAA420CD36380A58070BD01339BB2F3
S113422023800B40AD1A5A425A416E32FF32E7E7FF
S11342300133AD1A0D2BEBD1EEE7C04680510100DE
S1134240B2070000EC4F0000C54F00000188114A7E
S113425003008A18002030B5812A17D85A88541EC2
S11342600B2C13D89C88651E1E2D0FD8DD88172DA6
S11342700CD81D893B2D09D89B7A3B2B06D88B077C
S113428005D0054B9B5CA3424041C0B230BD034BFB
S1134290F8E7C0464EF8FFFFEC4F0000C54F0000A2
S11342A070B5134D838802885B196E25FF3555431D
S11342B044885B1995085B190E4D6600755B5B19A4
S11342C0920710D00B600A680B4BC4885343827A60
S11342D000899B18E122120162439B183C2242434D
S11342E09B180B6070BD022CECD8013BEAE7C0467A
S11342F04A05F5FFD24F0000805101008023084A8F
S11343001B0212689A4209D1A02310305B0518439E
S11343100368002B02D10133FF3303607047C046AA
S1134320440300200100802210B50023012452051B
S1134330103111430C600B60902143604905046007
S11343401C3001430B608821490501430B60842123
S11343504905014310430B60036010BD0200902324
S113436014325B05134300221A604260103201606C
S11343701A60704703680B6070470000104B82009E
S113438070B5D558802204000E4B92051A6028009F
S1134390FFF7C8FF2800FFF7B1FF0B4B1F261A5D7C
S11343A00123180009493240095DC025314090407D
S11343B08B40074A6D00505153511060136070BD1B
S11343C0FC4F00003C80845E00500000015000005F
S11343D000E100E0F7B50027114B8000C558080044
S11343E00E000197FFF732FF0400B84216D001A96E
S11343F03000FFF755FF3800FEF7AAFF01008020C8
S11344000002814206D0FDF7DDF801000198FDF7B6
S1134410D9F8019028000199FFF7A0FF2000FEBD04
S1134420FC4F0000F7B50025124B8000C4580E0065
S1134430200001A90195FFF79DFF2800FEF788FFE2
S113444005008020000285420ED00B4B2900043465
S11344501C43FDF7B7F82768019C29004443B8B210
S1134460FDF7B0F824180194310001A8FFF7A0FE6D
S1134470F7BDC046FC4F000000007810F0B50027DF
S1134480184B800085B0C55808000E0001920397B0
S1134490FFF7DCFE0400B84203D10024200005B07D
S11344A0F0BD300003A9FFF7FBFE38002E68FEF7CD
S11344B04FFF010080200002814206D0FDF782F800
S11344C001000398FDF77EF80390039BB342E4D305
S11344D0AB6088231C355B051D43019B9A002A6051
S11344E0DCE7C046FC4F0000044B8000C258882320
S11344F01C325B051343890019607047FC4F0000B0
S1134500054B8000C258882314325B051343186896
S1134510431E9841C0B27047FC4F00006B46E02236
S11345201B78D2021B041340024A09070B4380186C
S11345300360704744100000084B8200D258902357
S113454010B503325B0513431B78002B02D000F037
S1134550EFF810BD00F054F9FBE7C046045000002A
S11345609C210C4B0C4A8000C35882580020033213
S11345704905114310B518710870942149050A437F
S113458010701A7F824203D020331800FEF7C7FC54
S113459010BDC0464C03002004500000F7B50C00C9
S11345A005001B4B3022002187002000FE58FCF739
S11345B08FF82800FEF7D8FEFEF798FE2060300042
S11345C000F0C1FA200000212030FEF7A1FCF31C0A
S11345D001939023F21C5B051343102230001A70E0
S11345E0032100F0EEFA3000002100F00FFB094B2C
S11345F0FC50094B5A5D1F231A401E3B9340074A47
S113460013609823019A5B05134340221A70F7BD87
S1134610045000004C0300200850000000E100E0BA
S11346200A4B800070B5C658094B0C00C3581500DE
S113463030001A68096800F08DFA2860A379300008
S11346406279217900F0CFFA70BDC04604500000B1
S11346504C030020F7B51E4A83009C5805002279BC
S11346600420002A16D11B4A9E58002903D0280092
S113467001AAFFF7D5FF982300214020F21C5B0517
S113468013431970187027698F4204D12800FFF76B
S113469067FF0020FEBD0123237194235B05A16104
S11346A033431B780720002BF4D0A368191E02D0D3
S11346B019780133A360B1712369013B2361A369B4
S11346C00133A3619C235B051A4380231370E0E745
S11346D04C03002004500000F8B5134F134C850020
S11346E02C59ED590127069E2777A2602661E360C5
S11346F06661FFF7AFFF002814D12000079920302E
S1134700FEF74EFC0328F8D000280BD09C2300228F
S113471003355B052B4322711A70942303205B0538
S11347201D432A70F8BDC046045000004C0300200D
S113473010B51E4B8200D3581979002934D01C4976
S113474051585A69002A11D09C2252050A43127802
S1134750002A0BD08A79DC68D2B2002C03D02270F4
S1134760DA680132DA605A69013A5A611A69002A30
S113477012D0942252050A431278002A0CD09A6867
S1134780141E02D0147801329A608C711A69013AAD
S11347901A619A6901329A611A69002A04D15B6923
S11347A0002B01D1FFF7DCFE10BDC0464C030020F6
S11347B004500000104A8000815800220F4B10B5AD
S11347C0C3580331581CC2779C2040050843DA6261
S11347D01A701A835A629A621A630270942040050E
S11347E001430A701A0038321278002A03D00121DA
S11347F0181DFEF7A4FB10BD045000004C0300205C
S113480070B5254B8200D358591CC97F002942D06A
S113481022495258D96A002917DB942149051143CA
S11348200978002911D0D969CCB2596A002905D078
S1134830DD6A002D02DD0C78013159629471D96A68
S11348400139D962596B01315963D96A002905DAF2
S11348509421D41C4905214300240C70196B0029B0
S113486011DD9C2149051143097800290BD0927967
S1134870996AD2B2002903D00A709A6A01329A6204
S11348801A6B013A1A63DA6A002A04DC1B6B002BE8
S113489001DCFFF78FFF70BD4C03002004500000C3
S11348A0012903D0032909D00020704794235B0514
S11348B018430078431E9841C0B2F6E78423F6E714
S11348C0431C034849011843C9B201707047C046EC
S11348D000008812831C9420490140051843C9B282
S11348E001707047831C034889011843C9B20170E1
S11348F07047C04600000813831C8C20C900400583
S11349001843C9B201707047F7B50400364EE31C72
S11349101E43337808780D00DBB2072860D8FCF713
S11349203DFE04192B0E192B2B45304B01341C432F
S1134930002323703378012BFCD10020FEBD012B12
S1134940FCD12A4B01341C43402323703378042BBD
S1134950FCD1F2E70021012801D004200231337890
S113496098423FD12000FFF7ABFF0421204A13698E
S11349708B43136130BFE0E70227B84207D1002719
S11349800B79BB4203D020004979FFF7ABFF194BE9
S113499001341C4327703378154ADBB20193019B21
S11349A001330193042311690B43E2E70421114B02
S11349B0621C1A4311706A78A11C0B431A70002AF6
S11349C006D1AB78002B03D02000E978FFF782FFF3
S11349D0AB79002BDFD02000E979FFF78DFFDAE710
S11349E00120ABE70320A9E7000030100000881283
S11349F000ED00E000001010C31C024818430078CA
S1134A00C0B2704700003010012314308B40012ADB
S1134A1004D1802212051043036070478022D2041F
S1134A20DB431043F8E701238B40002A01D04360A5
S1134A3070478360FCE70023C222037043708370D5
S1134A40C37043718371C371037242728372C37200
S1134A5070470000F0B5002487B00293FA230126C2
S1134A60270025009B005343039004910093019475
S1134A707642AB000593194BAA009B1859880498F9
S1134A80A140FCF79FFD009B009AC31A824200D903
S1134A90131AB3421FD2114AA900525C2700019293
S1134AA0002B02D00135322D13D10134032C01D057
S1134AB0002B0DD1029A002A00D013603F220199E5
S1134AC0BB0111400B43039ADBB2537007B0F0BD36
S1134AD000251E00CDE73300E4E7C0462250000065
S1134AE0942302305B0503431B78002B05D08823F5
S1134AF05B05184304230370704780231B05184388
S1134B003023F8E7942210B55205841C224311780F
S1134B100300CAB2022001290DD18021C904214316
S1134B208024CD300870E400033319784909080063
S1134B301040114200D110BD013C002C01D0C046F0
S1134B40F3E70920F7E70423C3700023837043705D
S1134B5003717047F0B5130B89B001260393082342
S1134B600124764202939B190790049105920193C4
S1134B7002270025631E0693210005987943FCF75C
S1134B8021FD049B834207D31B1AB34204D21E00A7
S1134B90069B03900295019301357F00092D01D0F6
S1134BA0002EE9D1082C02D00134002EE0D1019B63
S1134BB0029A1B0103981343079ADBB2537009B09E
S1134BC0F0BD842310B50224C21C5B0513434A00C4
S1134BD022401A70902300195B0518431023C90062
S1134BE01940017010BD10B58C2403306405C90050
S1134BF00443C9B221708821920049050143D2B20D
S1134C000A70802252051043037010BD80230122D4
S1134C1002305B0503430A401A708C235B0518437A
S1134C2008238900194001707047000004FEFF1F2B
S1134C300A0A0A0D426F6F74696E672057617270B9
S1134C402C20696E20332E2E2E2000322E2E2E2064
S1134C5000312E2E2E0A0D0025642E2564002564B5
S1134C600A007570706572006D6964646C65002D6E
S1134C702D006F7574007D007B007C0054454D5001
S1134C80002D2D2D2D2D7E43005248002D2D250065
S1134C904D4F4953540000000000000000005F0025
S1134CA00000040304030000287E143F0A00242AA1
S1134CB07F2A1200231308646200304E59265000E4
S1134CC000000201000000001C22410041221C00DF
S1134CD0000022140814220008083E08080050307E
S1134CE000000000080808080800606000000000D8
S1134CF02010080402003E5149453E0000427F4016
S1134D0000006251494946002241494936001814BD
S1134D10127F10002F45454539003E49494932006C
S1134D2001611905030036494949360026494949B4
S1134D303E00003636000000005636000000000831
S1134D401422410014141414140041221408000005
S1134D500201590906003E415D552E00601C131CDA
S1134D6060007F49494936003E41414122007F416C
S1134D7041221C007F49494941007F09090901007A
S1134D801C2241493A007F0808087F0000417F4106
S1134D900000204040403F007F08142241007F4033
S1134DA0404000007F0418047F007F0408107F0047
S1134DB03E4141413E007F09090906003E4151211F
S1134DC05E007F091929460026494949320001013C
S1134DD07F0101003F4040403F00031C601C030072
S1134DE00F700F700F00413608364100010678023B
S1134DF0010061514945430000007F4141001516FF
S1134E007C16110041417F000000000201020000F5
S1134E104040404040000001020000000020545483
S1134E207800007F444438000038444428000038A7
S1134E3044447F0000385454180000043E05010027
S1134E40000854543C00007F0404780000007D00F6
S1134E5000000040403D0000007F10284400000195
S1134E607F0000007C047C047800007C040478004B
S1134E70003844443800007C14140800000814145A
S1134E807C00007C080404000048545424000004FE
S1134E903E444000003C40407C00007C20100C005C
S1134EA01C601C601C00006C10106C00004C503026
S1134EB01C00004464544C000204487070780008DC
S1134EC0083E1C0820100907070F00020502000015
S1134ED000000000000020534F494C2073656E739E
S1134EE06F7220636F6D6D756E69636174696F6E47
S1134EF0206661696C65640A0020534F494C207335
S1134F00656E736F722077726974696E672073754A
S1134F10636365656465640A0020534F494C2073DC
S1134F20656E736F72207265616420737563636567
S1134F30656465640A0020726561643A20307825EE
S1134F40303278203078253032782C002025640ADD
S1134F500A00205349373032312068756D6964691D
S1134F607479207265616420737563636565646533
S1134F70640A00205349373032312074656D7065FE
S1134F807261747572652072656164207375636300
S1134F9065656465640A005465726D696E616C00D0
S1134FA0525454005345474745520030313233344C
S1134FB03536373839414243444546898A00000032
S1134FC00060064008001F1D1F1E1F1E1F1F1E1FFE
S1134FD01E1F000000001F003B005A0078009700CD
S1134FE0B500D400F300110130014E01001F1C1F55
S1134FF01E1F1E1F1F1E1F1E1F00000000D0034087
S113500014150000006007400A000000005006402C
S113501000F00F4040F00F400090044000A0044016
S11350201E1F0000140001001600020018000300F7
S11350301A0004001C0005001E00090020000600E0
S113504022000A002400070028000C002C00100095
S1135050300011003800120040000F00440013001B
S11350604800140050001500580019006000160094
S113507068001A007000170080001C0090001D00DA
S1135080A0001E00C0002200E0001F00F00023006A
S113509000012400200125004001260080012A008F
S11350A0C0012700E0012B0000022C0040022D006B
S11350B080022E000003320080032F00C00333005F
S11350C000043400800435000005360000063A0070
S11350D00007370080073B0000083C0000093D0042
S11350E0000A3E00000C3F00000F0000232D302B6F
S11350F020000000686C4C00656667454647000068
S113510030313233343536373839414243444546F9
S113511000000000303132333435363738396162BB
S11351206364656600000000F8B5C046F8BC08BCBE
S11351309E467047F8B5C046F8BC08BC9E4670470A
S10B514068B3FF7F01000000C9
S107514885040000D6
S107514C59040000FE
S113515004FEFF1F0000000000000000000000002B
S1135160000000000000000000000000000000003B
S1135170000000000000000000000000000000002B
S1135180000000000000000000000000000000001B
S1135190000000000000000000000000000000000B
S11351A000000000000000000000000000000000FB
S11351B00000000068FEFF1FED180000030000005F
S11351C000000000C8000000050000000A00000004
S11351D001000000C8000000010000000F100000E2
S11351E00101000001010000FFFFFFFF00000000BB
S11351F000000000010000000100000001000000A8
S11352000100000001000000020000000100000095
S11352100100000005000000010000000100000082
S11352200800000001000000010000000C00000064
S11352300100000001000000000100000100000066
S11352400100000005010000010000000100000051
S11352500601000001000000010000000701000039
S113526001000000010000000A010000010000002C
S1135270010000000B01000001000000010000001B
S11352800D01000001000000010000000201000007
S11352900100000001000000000100000100000006
S11352A001000000010100000100000001000000F5
S11352B006000000010000000100000007000000DB
S11352C001000000010000000900000001000000CE
S11352D001000000FFFFFFFF0000000000000000CD
S11352E001010000000000000001000000000000B7
S10B52F00000010000010000B0
S903051DDA
