S02B00002F73747564656E74732F6E643433352F576172702D6669726D776172652F6275696C642F6B73646B20
S1130000000600201D050000450500004505000010
S113001000000000000000000000000000000000DC
S11300200000000000000000000000004505000082
S11300300000000000000000450500004505000028
S11300404505000045050000450500004505000084
S11300504505000045050000450500004505000074
S1130060BF1C000045050000C91C00004505000038
S11300704505000045050000450500004505000054
S11300804505000045050000450500004505000044
S11300909D0E0000B50E000045050000450500005A
S11300A04505000045050000450500004505000024
S11300B04505000045050000450500004505000014
S1130400FFFFFFFFFFFFFFFFFFFFFFFFFE3DFFFFBB
S11304100448054B10B5834203D0044B002B00D095
S1130420984710BDA4FFFF1FA4FFFF1F000000009A
S113043006480749091A8B10C90FC91810B5491085
S113044003D0044B002B00D0984710BDA4FFFF1F1E
S1130450A4FFFF1F0000000010B5074C2378002BF9
S113046009D1FFF7D5FF054B002B02D0044800E06B
S113047000BF0123237010BDA4FFFF1F0000000074
S1130480C03C0000054B10B5002B03D004490548BF
S113049000E000BFFFF7CCFF10BDC0460000000025
S11304A0A8FFFF1FC03C0000402292029A1A924605
S11304B07047C046154B002B00D1114B9D46FFF7EA
S11304C0F3FF00218B460F461148124A121A00F01E
S11304D0FFF80C4B002B00D098470B4B002B00D09F
S11304E098470020002104000D000B4800F02EF86E
S11304F000F064F82000290000F0D8FD00F034F882
S113050000000800000000000000000000060020B9
S1130510A4FFFF1FB00200209505000072B6064834
S11305200649074A02600A6001F0D4FB01F014FC9A
S113053062B6FFF7BFFF000080E100E080E200E068
S1130540FFFFFFFF004800474505000010B501000C
S113055000230022002000F019FA10BD014B186896
S11305607047C04600FEFF1F084B10B50400002B67
S113057002D0002100F078FA054B1868836A002B3A
S113058000D09847200000F05BFCC046690A0000D8
S1130590E43A000070B5074D074C641BA41005D065
S11305A0013CA300EB589847002CF9D103F08EFBD3
S11305B070BDC046E43C0000E83C000070B50C4D42
S11305C00C4E761BB61005D0002408CD0134984794
S11305D0A642FAD103F074FB074D084E761BB61001
S11305E005D0002408CD01349847A642FAD170BD45
S11305F0E03C0000E03C0000E03C0000E43C000083
S113060010B5034B0100186800F00CF910BDC0468A
S113061000FEFF1F10B5034B0100186800F0ACF892
S113062010BDC04600FEFF1FF0B5C64600B50F2A38
S113063043D90B00032603431E400C000300002E85
S113064040D11500103D2D09AC462D01A84680442B
S113065000E03B00676825685F60E7681D60DF6055
S11306601F00A56810379D6010344345F1D16546DD
S11306700F230C2401352D01491913404519144247
S113068023D08C59AC5104369C1B032CF9D8032479
S1130690043B9B0801339B002240ED18C918561EE9
S11306A0002A07D0002300E02300CA5C5C1CEA5443
S11306B09E42F9D104BC9046F0BD0500561E002AA6
S11306C0F0D1F7E7561E0500ECE71A00F6E7C0463E
S11306D0F0B5050083074AD0541E002A44D0CEB298
S11306E00300032202E00135013C3DD301332E70A7
S11306F01342F8D1032C2FD9FF220A4015021543C7
S11307002A0415430F2C35D92700103F3F093E0119
S1130710B4461E001A001036664415605560956094
S1130720D5601032B242F8D10F260C2201373F01B6
S11307302640DB193700224217D03E1FB608B4000A
S1130740A4461A001C1D644420C2A242FCD1032406
S11307500136B6009B193C40002C05D0C9B21C19C7
S1130760197001339C42FBD1F0BD3400F4E714004E
S11307700300BFE72700E0E770B50500002915D0A6
S11307800C1F2368002B27DB280000F0CBF9244B37
S11307901A68002A05D0A2420CD921686018824246
S11307A024D0626028001C6000F0BEF970BDA34232
S11307B003D81A005368002BF9D111685018A042CD
S11307C01BD027D821686018834207D06360546027
S11307D0280000F0A9F9E9E7E418D5E718685B6890
S11307E084466144216063605460F1E71068526894
S11307F08446614421606260D4E720680918501877
S113080011608342E4D118685B68844661441160D6
S11308105360DDE70C2328002B6000F085F9C5E761
S1130820C0FFFF1FF8B50323CD1C9D430835060008
S11308300C2D2AD20C25A94229D8300000F072F9D7
S11308402A4F3A68002A0AD013685B1B04D441E09B
S113085023685B1B1FD522005468002CF8D17B68E9
S1130860002B3DD02900300000F042F8431C2AD070
S11308700323C41C9C43A04205D0211A300000F07D
S113088037F8431C1FD0256010E0002DD3DA0C2369
S113089000203360F8BD0B2B05D86368A2421DD03D
S11308A0536003E014002360E4182560300000F076
S11308B03BF9200007220B30231D9043C21AE9D0D4
S11308C01B1AA350E6E70C233000336000F02CF928
S11308D00020DFE70B2BE5D8140053683B60E5E705
S11308E00021300000F004F87860BBE7C0FFFF1F70
S11308F0002370B5064C05000800236000F0A2FA3E
S1130900431C00D070BD2368002BFBD02B60F9E79B
S1130910AC02002003000A7801311A700133002A66
S1130920F9D1704710B5830727D00378002B26D060
S11309300300032102E01A78002A1CD001330B4281
S1130940F9D119680F4A104C8A188A4322420FD1F0
S1130950043319680B4A8A188A43224208D10433A3
S11309601968084A8A188A432242F1D000E0013308
S11309701A78002AFBD1181A10BD0300E1E7002001
S1130980FAE7C046FFFEFEFE80808080F0B5464652
S11309904F46D646C0B51F002F4B82B01C680500D9
S11309A00E009046002C2DD063681F2B50DC002DC8
S11309B01CD08822A0589146002834D0783282581E
S11309C094469A0091468144424649460A60012170
S11309D0624699400A43944680228A466146520000
S11309E081504946803A8F50022D16D000205A1C5F
S11309F002339B0062601E5102B01CBC90469946B3
S1130A00A246F0BD154C1C60154B002BCCD01B68C6
S1130A1001938823019AE250C6E7554684328158EF
S1130A200D438550E2E70F4B002B11D0842040008A
S1130A30FFF7E6FD00280BD08022002352008350EC
S1130A40043283504B460022E05094466368B8E772
S1130A5001204042D0E7C04654000020C8FFFF1FD9
S1130A600000000001060000F0B5DE464E46454693
S1130A7057462B4B88469B46E0B51E6883B00190D1
S1130A80002E45D088237568F7586C1E40D4013574
S1130A90AD00783375199A460AE0002F05D03B0063
S1130AA0A20080339B58434505D0043D013C2FD31D
S1130AB04346002BF1D173682A68013BA34222D03C
S1130AC000232B60002AF0D073689946002F18D0B9
S1130AD001235146A3407958194212D08220400084
S1130AE03858A1007958009018420ED101989047C7
S1130AF05B4672681B684A4501D1B342D5D01E00DB
S1130B00BEE79047F4E77460DCE708009047EFE73E
S1130B1003B03CBC90469946A246AB46F0BDC046E5
S1130B20540000207047C0467047C04602B4714666
S1130B3049084900095C49008E4402BC7047C0461C
S1130B4003B47146490840004900095E49008E44D7
S1130B5003BC7047002243088B4274D303098B42C1
S1130B605FD3030A8B4244D3030B8B4228D3030C79
S1130B708B420DD3FF22090212BA030C8B4202D31B
S1130B801212090265D0030B8B4219D300E0090A43
S1130B90C30B8B4201D3CB03C01A5241830B8B424C
S1130BA001D38B03C01A5241430B8B4201D34B0335
S1130BB0C01A5241030B8B4201D30B03C01A52419A
S1130BC0C30A8B4201D3CB02C01A5241830A8B421F
S1130BD001D38B02C01A5241430A8B4201D34B0208
S1130BE0C01A5241030A8B4201D30B02C01A52416C
S1130BF0CDD2C3098B4201D3CB01C01A5241830920
S1130C008B4201D38B01C01A524143098B4201D359
S1130C104B01C01A524103098B4201D30B01C01A84
S1130C205241C3088B4201D3CB00C01A52418308FE
S1130C308B4201D38B00C01A524143088B4201D32B
S1130C404B00C01A5241411A00D20146524110468B
S1130C507047FFE701B5002000F0F0F802BDC04680
S1130C600029F7D076E7704703460B437FD4002270
S1130C7043088B4274D303098B425FD3030A8B422C
S1130C8044D3030B8B4228D3030C8B420DD3FF2296
S1130C90090212BA030C8B4202D31212090265D064
S1130CA0030B8B4219D300E0090AC30B8B4201D317
S1130CB0CB03C01A5241830B8B4201D38B03C01A5E
S1130CC05241430B8B4201D34B03C01A5241030BD5
S1130CD08B4201D30B03C01A5241C30A8B4201D386
S1130CE0CB02C01A5241830A8B4201D38B02C01A31
S1130CF05241430A8B4201D34B02C01A5241030AA8
S1130D008B4201D30B02C01A5241CDD2C3098B428C
S1130D1001D3CB01C01A524183098B4201D38B0109
S1130D20C01A524143098B4201D34B01C01A5241AC
S1130D3003098B4201D30B01C01A5241C3088B42F1
S1130D4001D3CB00C01A524183088B4201D38B00DC
S1130D50C01A524143088B4201D34B00C01A52417E
S1130D60411A00D201465241104670475DE0CA0F55
S1130D7000D04942031000D34042534000229C4615
S1130D8003098B422DD3030A8B4212D3FC2289011F
S1130D9012BA030A8B420CD3890192118B4208D3F5
S1130DA0890192118B4204D389013AD0921100E057
S1130DB08909C3098B4201D3CB01C01A524183096B
S1130DC08B4201D38B01C01A524143098B4201D398
S1130DD04B01C01A524103098B4201D30B01C01AC3
S1130DE05241C3088B4201D3CB00C01A524183083D
S1130DF08B4201D38B00C01A5241D9D243088B4293
S1130E0001D34B00C01A5241411A00D20146634635
S1130E1052415B10104601D34042002B00D5494299
S1130E20704763465B1000D3404201B5002000F0D8
S1130E3005F802BD0029F8D016E770477047C04690
S1130E40FEE7C0460A4A0300116810B5002901D123
S1130E500849116010680849C3188B4206D9FFF786
S1130E607DFB0C2303600120404210BD1360FCE7AE
S1130E7058000020B0020020B00200208378022035
S1130E809842804140427047437A0020013B012B45
S1130E9003D90B78013001330B70704710B5002073
S1130EA002F08AFA002803D00021080002F078FA40
S1130EB010BD0000024A1368013313607047C04636
S1130EC06C00002037B5002001F0AAF9C0230024EB
S1130ED00D4A9B0013600D4A0D4D13600D4A20000E
S1130EE013600D4B2C716C71AC711A68FA239B0062
S1130EF053430A492B6002F0ADFA2900200001AAED
S1130F0002F0EAFA37BDC046189014541C901454E9
S1130F10C400002000A0145484FEFF1F940000208D
S1130F2010B5002001F081F98023054A9B0013606D
S1130F30044A00200449136001F0DEFC10BDC046E1
S1130F400CA0145410A01454700000200023364A3E
S1130F5070B51360354A01201360354A0133FF33FD
S1130F601360344A34491360344A1360344A1360BA
S1130F70344A1360344A1360344A1360344A147890
S1130F802500054004424DD00B60324932480B60C5
S1130F90002101603148016031490B6031490B6027
S1130FA031490B6031490B6031490B6031490B60A9
S1130FB01378DB0703D50220FF3001F0B3FB0920CF
S1130FC001F0BEFB0C2001F0BBFB052001F0B8FBD7
S1130FD0082001F0B5FB0620FF3001F0B1FB0E2024
S1130FE0FF3001F0ADFB8320400001F0A9FB082095
S1130FF0FF3001F0A5FB0C20FF3001F093FB8220B1
S1131000400001F09DFB0420FF3001F099FB072014
S113101001F096FB062001F093FB8020400001F0D4
S11310208FFB70BD0D60B0E70C90145410901454F5
S1131030149014541890145404A014541C90145470
S113104020901454249014543090145400A0145438
S113105080FEFF1F08A014540CA0145410A01454B4
S113106014A0145418A014541CA0145428A01454EC
S11310702CA0145434A0145410B5092001F060FBC2
S113108010BD10B50C2001F05BFB10BD10B5FFF7CF
S1131090F3FFFFF7F6FF8320400001F043FB024B10
S11310A0186800F016FF10BD88FEFF1FF0B5ADB044
S11310B019AC072200212000FFF70AFBAC4A0126E5
S11310C0209203220BAB24930DAB26930FAB2793F3
S11310D011AB289313AB299315AB2A9317AB09AD26
S11310E005A900202B9320AB1A7122912670089336
S11310F02395259401F08CF8300001F089F88022C2
S11311009C4B12021A6000F003FF002300961A00A1
S11311101900180000F0D6FB9749002000F0C6FB28
S1131120C82000F0D6FE9549002000F0BFFBC8207F
S113113000F0CFFE9249002000F0B8FBC82000F078
S1131140C8FE33008F4A02218F4800F005FF3100AA
S1131150300000F00DFF002002F06CF88B4B7C2176
S11311601D936B4600275B181F806B4602315B188A
S113117038001DA91F701E9602F088F8320039004D
S113118005A8FFF7A5FA69463A20199B0D93A28892
S11311900A87A27909180A706946032206380918D1
S11311A00A7069460F93A2880C3009180A806946B0
S11311B0A279023009180A703C216A46521837395C
S11311C011700993A2886946AA80A2791038AA717D
S11311D002222A700B93A2884C250A86A279091848
S11311E00A7069460422063809180A706946119380
S11311F0A2881C3009180A806946A27902300918AD
S11312000A7069460822063809180A706946139359
S1131210A2880C3009180A806946A279023009189C
S113122068460A7009214019017068461593A3881D
S11312300C3540190380A37968465A2400190370B9
S113124068460A23063C001903705C206B461B1891
S113125008AA1F7023A8330001F030F839000220D7
S113126000F0D0F84A494B4801F042FAFFF76EFE0D
S11312700820FF3001F056FAC82000F02AFE0820AA
S1131280FF3001F05DFAC82000F023FE0820FF3093
S113129001F048FAC82000F01CFE0820FF3001F0DD
S11312A04FFAC82000F015FE0820FF3001F03AFA8A
S11312B0C82000F00EFE0820FF3001F041FA364944
S11312C01D2000F018F9FFF7E1FE00F03FF93800A7
S11312D0FFF726FE314A06AB1A8040221BAD2A8056
S11312E02F4A3049126838006A600A68290002925D
S11312F00222009301923300033201F03BFC2A4E98
S11313002A49B84201D03800294900F0CFFA3068A0
S113131000F0DFFD0024234B22001B682900029308
S11313200223019307AB00930020012301F02FFC5B
S1131330071E0ED000201E4900F0B8FA306800F0F5
S1131340C8FDFA200134800000F0C3FD062CE2D170
S1131350E0E7184900F0AAFA6A466B46527F1B7F01
S1131360380000921449220000F09DFCE6E7C046D4
S1131370890E0000A0020020E83A0000033B0000B0
S1131380093B000064FEFF1F8CFFFF1FE007010004
S11313909CFEFF1F8CFEFF1F5C00002037390000FD
S11313A074FEFF1F78FEFF1F7CFEFF1F273B00001B
S11313B0103B00003B3B00004C3B00001FB5040009
S11313C001A9002001F08AFF694601A801F0C4FECA
S11313D0009B68461C1901A9009401F045FE0122F6
S11313E001A9002001F0A6FF1FBD00000022034B4D
S11313F01A608022024B1206DA67704700A01C585C
S113140004E100E070B50D000A2408281CD8FFF799
S11314108DFB051D2A3F54676C6F5C0001F0E4F8F6
S11314200524012810D0FFF7E1FF2800FFF7C6FFCD
S11314300021080000F064FF01210400002000F0F6
S113144097FD002C22D10024200070BD01F0CCF8BF
S113145006240128F8D0FFF7C9FF2800FFF7AEFFE4
S113146000210120E6E701F0BFF808240128EBD0B1
S113147000F0FCFD002803D00121002000F078FDDD
S11314800021022000F03CFF0028DCD00924DBE727
S113149001F0AAF807240028D6D0FFF7A7FF2800F8
S11314A0FFF78CFF0021032000F02AFF040001F065
S11314B09BF801210028C4D1C1E7FFF797FF28005A
S11314C0FFF77CFF00210420EEE70021082000F054
S11314D017FF041EDAD10121080000F049FDB3E72B
S11314E00021052000F00CFFD0E700210620F9E7D9
S11314F000210720F6E7C223FF3308704B607047D2
S113150037B50E25FF350400280001F00BF90A2039
S113151000F0DFFC280001F013F90C2001F010F9B1
S1131520FA23084A9B001470002101930123080048
S11315300093054B02F02CF80400280001F0F2F8A7
S113154020003EBDCD000020CC000020C02310B5FB
S113155080246B4A9B0013606A4A64001360FFF79F
S1131560B1FC694B20001C60684B1C60684B1C601C
S113157001F0D8F8642000F0ACFC200001F0E0F8A1
S1131580642000F0A6FC200001F0CCF8642000F0F8
S1131590A0FCAE20FFF7B4FFA020FFF7B1FF72203C
S11315A0FFF7AEFFA120FFF7ABFF0020FFF7A8FF76
S11315B0A220FFF7A5FF0020FFF7A2FFA420FFF75A
S11315C09FFFA820FFF79CFF3F20FFF799FFAD2066
S11315D0FFF796FF8E20FFF793FFB020FFF790FFF1
S11315E00B20FFF78DFFB120FFF78AFF3120FFF7B3
S11315F087FFB320FFF784FFF020FFF781FF8A20E5
S1131600FFF77EFF6420FFF77BFF8B20FFF778FF57
S11316107820FFF775FF8A20FFF772FF6420FFF739
S11316206FFFBB20FFF76CFF3A20FFF769FFBE2076
S1131630FFF766FF3E20FFF763FF8720FFF760FF99
S11316400620FFF75DFF8120FFF75AFF9120FFF787
S113165057FF8220FFF754FF5020FFF751FF8320EC
S1131660FFF74EFF7D20FFF74BFFAF20FFF748FF4A
S11316702620FFF745FF0120FFF742FF2520FFF753
S11316803FFF0020FFF73CFF0020FFF739FF5F20FA
S1131690FFF736FF3F20FFF733FF2220FFF730FF2D
S11316A00020FFF72DFF0020FFF72AFF5F20FFF740
S11316B027FF3F20FFF724FF0020FFF721FFFF2033
S11316C0FFF71EFF0020FFF71BFF0020FFF718FFA6
S11316D0FF20FFF715FF0020FFF712FF8220FFF71E
S11316E00FFFFF20FFF70CFF8720FFF709FF0F20F4
S11316F0FFF706FFB920FFF703FF002010BDC04627
S1131700209014542490145434A01454309014543D
S113171000A014540369C268934201D880681B185E
S1131720013B981A7047F7B58368C46801931F1B7F
S1131730436805000E001819A418974207D83A0008
S1131740FEF772FF019B6868E41A2200F119FEF7A4
S11317506BFFEC60F7BD0023F7B506001700C56802
S1131760019100933369B4689D421FD2013B5B1B16
S1131770641BBC4200D93C009C4200D91C00736825
S1131780220058190199FEF74FFF009B2D191B19D0
S11317900093019B3F1B1B190193B368AB4200D11B
S11317A00025F560002FDDD10098FEBD1B19DDE793
S11317B0022310B50F4C104A236163610F4BA261E1
S11317C0E361C823A2640E4A2362E2640023042274
S11317D0A3626362E362A3656365E3652265094905
S11317E0E01DFFF797F820000749FFF793F820233F
S11317F0A37110BDD00000206D3B00004C010020FF
S113180048010020763B00007A3B0000F8B5160042
S11318101822451C55434243164B0F005D199B1873
S1131820DC6A012C10D0022C1BD0002C1FD1280004
S1131830FFF770FF864205D8320039002800FFF711
S113184072FF34002000F8BD2800FFF763FF340066
S1131850864200D90400220039002800FFF763FF04
S1131860F0E732002800FFF776FF0400EAE70024DF
S1131870E8E7C046D0000020F8B50B4B04001B7805
S11318800E001700002B01D1FFF792FFEFF3108534
S1131890012181F310883A0031002000FFF7B6FFE0
S11318A085F31088F8BDC046D000002070B505004F
S11318B008000C00FFF736F8210002002800FFF7AB
S11318C0DBFF70BDF7B5164C0193237805000F00BC
S11318D01600002B01D1FFF76BFF2369AB421CD923
S11318E0EFF31082012181F31088002D0CD018230E
S11318F0691C59436B43675061184E600199E318A2
S1131900196200219962596218204543089B6419A1
S1131910E36282F310880020FEBD01204042FBE711
S1131920D0000020826810B504004068531C834234
S113193005D820688154A360E3680133E360A2689A
S113194063689A4209D121682069FFF795FFA3686B
S1131950984203D001235B42E36010BD0023A360DF
S1131960FBE70000F0B5050017000800012685B06C
S11319700A9C02910093B84219D2009A01969642A9
S113198000D2019201230B9A1A4003920B9A1A4235
S113199002D1002C10D10024EB680126002B4BDB74
S11319A0009B012B1FD9013B00937E43F8E73900CC
S11319B0FFF7D0F80136DEE70B9B20269B0704D502
S11319C0009B1036002B00D0103E019BA342E3D2B3
S11319D031002800FFF7A6FFEB68013C002BDBDB9E
S11319E0002CF2D1D7E731000298FFF7B3F8874211
S11319F0DBD902983100FFF733F9114B0291195CDE
S1131A002800FFF78FFFEB68002B05DB390030005F
S1131A10FFF7A0F8BE4211D2039B002B0CD0002C80
S1131A200AD0019BA34207D220212800FFF77AFFA6
S1131A30EB68013C002BF2DA05B0F0BD0600D8E7F4
S1131A40813B0000F0B59FB00EAB099340230A938D
S1131A5000230E00150007900B930D900C93317822
S1131A600136002907D10C9B0393002B00DD09E10B
S1131A700C981FB0F0BD252900D0B3E00027082240
S1131A80042006E0302B0DD1022300E001231F4384
S1131A900E003378711C2D2BF8D0F3D8232B10D0E3
S1131AA02B2B0CD000240A213378721C18003038F8
S1131AB0092808D84C43303C16001C19F4E70743A6
S1131AC0E6E71743E4E7002103912E2B0ED116001D
S1131AD00A203278711C1300303B092B06D8039B73
S1131AE00E004343303BD3180393F2E704233178C9
S1131AF00A0001369A43682A01D13178F8E7782937
S1131B0009D86F290BD8632967D017D8252969D03C
S1131B10582900D195E00C9B002BA0DAA3E770397B
S1131B2008000829F7D8FFF70BF8A500F6FFF6FF21
S1131B309400F6FF8300F6FFF6FF8C006429EAD1D7
S1131B402B681A1D1B682A60DA179818049301235E
S1131B5050400593092849DC039B059A0693934258
S1131B6000D20692002C05D0049B002B01DB7B07DE
S1131B7000D5013C02231F4202D0039B002B05D059
S1131B8001231F4202D1002C36D100240C9B059363
S1131B90002BC0DB049B002B3ADA2D215B4204931B
S1131BA009A8FFF7BFFE0C9B002BB4DB03233B40CB
S1131BB0022B05D1039B002B02D1002C2CD1002435
S1131BC00C9B0593002BA6DB0A22039B0499019727
S1131BD0009409A8FFF7C6FE9DE72B6819681A1D33
S1131BE02A60C9B209A8FFF79DFE94E70A21FFF70E
S1131BF03BF8059B0133ACE7069BA342C6D22021E8
S1131C0009A8FFF78FFE0C9B013C002BBBDABDE754
S1131C107B07C8D52B21C3E7069BA342D0D2302132
S1131C2009A8FFF77FFE0C9B013C002BC5DAC7E730
S1131C300A22296801970B1D2B60039B00940968F5
S1131C40C7E7296801970B1D2B60039B00941022A2
S1131C50F5E72B681A1D2A601C68217801340029D5
S1131C6000D158E709A8FFF75DFE0C9B0393002BF6
S1131C70F3DA50E729680B1D2B6000230193083326
S1131C800093E4E70B9A002A03D007980EA9FFF704
S1131C90F3FD0C9B03930B9B0493049A039B9446C0
S1131CA063440C93E4E60EB403B503AB02CB01AA80
S1131CB00193FFF7C7FE02B008BC03B0184710B584
S1131CC0002000F04BFD10BD10B5002001F090FB8A
S1131CD010BD0000082310B5164A9178194202D0AD
S1131CE091780B439370882100222220124B4901E2
S1131CF05A501249124C0870802012494002585020
S1131D001968114801401960195910480840C02148
S1131D1089040143195180210D4B1A7219767F39B8
S1131D201A7059700B490A700C3299791142FCD11E
S1131D3010BDC04600D007400070044000E00740DA
S1131D400410000044100000FFFFF3FFFFFFFFF04A
S1131D5000400640005006401249134810B5814225
S1131D6005D00022114B9B089B009A420FD1104BC7
S1131D70104A9960002310491048521A9A420AD115
S1131D8000210F4B0F4AD21A013A08D210BD8458D1
S1131D908C500432E9E7CC5CC4540133EEE719708B
S1131DA00133F1E700000000000000000000000023
S1131DB000ED00E08C3E0000E83C000000FEFF1F48
S1131DC0A4FFFF1FB0020020030041700020187020
S1131DD058609860704710B5437804000120FF2BC9
S1131DE008D000F033FA63780133DBB2637000F09B
S1131DF021FA002010BD70B504000D0000F026FA91
S1131E00E1682943E16000F015FA002070BD00008C
S1131E1000220A4B9A641A0040329A631A00303244
S1131E209A621A0020329A611A0010329A60044AA7
S1131E301360044B9B60DB607047C04618020020AF
S1131E4014020020680200200022024B1A60186865
S1131E5080B270470C007C5070B5437804000D00CC
S1131E60002B0BD0002500F0F1F96378013BDBB2C5
S1131E706370257000F0DEF9280070BD022000298F
S1131E80FBD02378002B17D0FFF7DEFF6368A2682E
S1131E90834204D8C01A824206D30320EDE7C01A55
S1131EA080235B02C018F6E700F0D0F9002323700A
S1131EB000F0C0F90220E0E74B1CEED000F0C6F9B8
S1131EC00123237000F0B6F9FFF7BEFFA560606040
S1131ED0E3E770B50500FFF7B7FF8026040076023C
S1131EE0FFF7B2FF0300844203D8031B9D42F7D2DD
S1131EF070BD301BC318F9E710B5012801D100F0FB
S1131F00A5F910BD10B5012801D100F093F910BD59
S1131F1010B5FFF77DFF01230020084A084913602C
S1131F20084A094C1060086004212160074C2160B4
S1131F3007490B6007490860136010BD38800450DE
S1131F4000008450000004500000045104000451B7
S1131F5004000C500000045310B5044C206021719F
S1131F600020A2602373637310BDC0467802002072
S1131F700422F0B587B005AC3B4E0190029120706D
S1131F80617033790092834226D90022337B150095
S1131F90737301230092A3700393334F3B7BAB42D3
S1131FA01DD8009B002B02D0029B012B48D101209D
S1131FB0FFF7A2FF0C20019B002558433368181833
S1131FC000F0B0F8019B012073710226FFF79AFF1D
S1131FD0A6703B7BAB421AD8009807B0F0BDBA6834
S1131FE0AB009B58002B0FD01A7903990A420BD0EF
S1131FF020001A6899689047002805D0029B7D73D9
S1132000002B1BD0052300930135EDB2C5E7BA6858
S1132010AB009B58002B0ED01A7932420BD0200013
S11320201A6899689047002805D0029B7D73002B9D
S113203017D0062300930135EDB2CAE705230093B8
S11320400023A370013DEDB2FF2DC5D0064BAA00BD
S11320509B68D358002BF5D020001A6899689047E4
S1132060F0E706230093B7E778020020014B587984
S11320707047C0467802002013B504000020217880
S11320800190022920D0032922D0012925D12279C7
S113209001AB144800F07CFF002814D1A3795A1E28
S11320A09341114ADB01137063785A1E93410F4A1E
S11320B05B001370A2780E4B1A70E2780D4B1A7005
S11320C062790D4B1A7016BD0100227901ABE0E76D
S11320D001A9044800F09EFFDEE701A9014800F0D1
S11320E03BFFD9E700400640184086530040865025
S11320F0004006500140065018401650F821084A86
S113210043099B009B180905C2050A40134380221A
S1132110520513431F2210401E3A82401A60704732
S113212028800440072373B5009300230400104D56
S11321301A000121280001F04DF92000FFF79CFF4F
S1132140637A280000930023217A1A0001F042F9EF
S1132150E379084A9B041360074BA17A1D682800A1
S113216000F074FF2800E17A00F077FF002076BDCC
S11321700070044000700C59E03B000010B50548A5
S113218000F0AAFE044B1968C9B20131FEF7E2FC63
S113219010BDC0460040064044801C5E10B5FFF7E9
S11321A0EDFF10BD10B5054800F096FE044B19680C
S11321B0C9B20131FEF7CEFC10BDC0460040064056
S11321C04480145810B5FFF7EDFF10BD0B4B1B688E
S11321D0DBB2022B0CD0032B0DD00020834206D19E
S11321E0074A106880221202904200D018007047FB
S11321F0044B1868FBE7FA208000F8E700700C59DC
S1132200A0020020A402002010B5FFF7DFFF10BDDC
S113221010B5024B185CFFF771FF10BD913B000035
S113222010B57620FFF76AFF10BD10B56620FFF7E2
S113223065FF10BD044A1368002B04D0013B1360F2
S1132240002B00D162B670478802002072B6024AA1
S113225013680133136070478802002010B5064CE0
S1132260064801F025FB042801D1002010BD013CE3
S1132270002CF5D10320F9E7EA03000000E0074051
S113228010B50B4B0B490A78002A07D0084C0A48B2
S113229001F00EFB012806D1002003E0013B002BD6
S11322A0F1D1032010BD013C002CF0D1F9E7C04668
S11322B0EA03000002D0075100E00740F7B5070029
S11322C00E00150001200193002F15D0002913D012
S11322D0FFF712FE094C102200212000FEF7F8F946
S11322E027602671002D03D0019BA56023736373BF
S11322F00120FFF707FE0020FEBDC0468C0200202F
S1132300F0B5B14C8DB002900391237B012063732F
S1132310FFF7F2FD2379029A934206D80120FFF7D2
S1132320F1FD022738000DB0F0BD029A2368920037
S1132330D35809AC1D780193039B2A002372029B96
S11323402370019B636002239A430492012A01D003
S1132350052D0AD101219D4801F0FEF9002807D17D
S11323600120FFF7CFFD0127DCE70321072DF2D879
S11323700123002763723C000593934E337BA342F1
S11323802AD80120FFF7BEFD914800F0C9FD049B47
S1132390012B4AD10138022835D9039B012B00D0E7
S11323A00DE106270120FFF7A7FD0023012609AD53
S11323B06B72013CE4B2FF2C00D1AFE0824BA2006F
S11323C09B68D358002BF4D01A793242F1D02800FC
S11323D01A6899689047ECE7B268A3009B58002BF1
S11323E00ED01A7905990A420AD01A68996809A880
S11323F09047002804D0039B04277473012BC0D199
S11324000134E4B2B9E7FFF7DDFE724B9842C4D859
S1132410FFF7B4FE704EB042BFD8FFF7C3FEB04220
S1132420BBD8FFF7BBFEB042B7D8039B012B00D04B
S1132430C1E00A2D00D9BCE02800FEF777FB060AAC
S11324400D1E879A7B822F737800002207AB1A70C7
S11324502DE0032207ABFAE75C4801F029FA0128D2
S113246008D00021594801F087F9FFF709FF071E3A
S113247000D057E7012207ABE9E7544801F018FA06
S1132480042808D00221514801F076F9FFF7E6FE4E
S1132490071E00D046E7042207ABD8E7072207ABA4
S11324A01A80019AD2789A70019A1279DA702B0004
S11324B0083B022B06D8019B06AA5B799372019B09
S11324C09B79D372019B5B78002B0AD0012D08D92C
S11324D0019B02229978414B00294DD019690A4386
S11324E01A613A4807A901F06BF9002800D00327C4
S11324F0002D45D1FFF7C4FE071E00D012E70027C8
S11325000120FFF7F9FC029B2F4D0024AB7302233B
S113251009AE737201932B7BA34236D80120FFF7D7
S1132520F1FCFFE6082207ABFF321A80BFE72C4A12
S113253007ABFAE7022207AB1A700222FF329A8035
S1132540B5E7022207AB1A70264AF8E7022207AB66
S11325501A70013A1D489A8001F0AAF90128A6D000
S113256000211A4801F008F9FFF78AFE071E9ED0E1
S1132570D8E6052207AB6AE7196991431961B0E708
S1132580012DBDD1FFF76AFEB6E7AA68A3009B58E8
S1132590002B0BD01A7901990A4207D030001A682F
S11325A099689047002801D005276C730134E4B280
S11325B0B1E70327B6E6002F00D13AE7F2E6002F91
S11325C000D0EFE6EDE6C0468C02002000E00740B4
S11325D00040064040420F0080841E0000ED00E0F1
S11325E0070300000102000010B5064801F060F97D
S11325F003000020012B03D00B30042B00D10A3838
S113260010BDC04600E00740F7B5FF2403681D4A2B
S11326101E0A26401C40B3009F581B4A05009B58C5
S113262030000193FFF7F4FD00222100380001F08F
S113263047F9019BA400E41884232A795B0523430A
S113264052001A6080236A795B0523431A60902341
S1132650AA795B05234312011A600C4B1C43EB79E6
S11326601B042360EB79002B0AD0094B9B57002BEA
S113267006D01F2213401E3A9A401300054A1360E5
S1132680F7BDC046E43B0000EC3B00000000181816
S1132690F43B000000E100E0F8B5FF240500036806
S11326A0114A180A20401C4083009F580F4A9E5824
S11326B0FFF7AEFD38002100012201F001F96A683C
S11326C02100380001F00BF988232A7AA400A41908
S11326D05B05234392001A6098235B051C436B7AC5
S11326E09B012360F8BDC046E43B0000EC3B0000C6
S11326F070B50C00002807D1002C0FD170BD050067
S11327000835FFF781FF280003680133F7D1F3E7A9
S1132710250020000C35FFF7BFFF2C002368013390
S1132720F6D1EBE7FF22030A044913409B005958F2
S11327300123104083404B607047C046E43B0000D7
S1132740FF22030A044913409B00595801231040F7
S113275083408B607047C046E43B0000084B820016
S1132760D258942310B502325B0513431B78002B17
S113277002D000F019FA10BD00F06CFAFBE7C04675
S1132780943B0000020080230C325B0513431A784B
S1132790002AFCD00171704770B50D00084B800011
S11327A0C458200029001830FFF756FB0328F8D03E
S11327B0002801D004232374207CC0B270BDC0461D
S11327C09C02002010B5104B8000C458E37C002B01
S11327D005D0237C052B02D0237C042B0BD10B4B7F
S11327E018589823821C5B05134300221A7001F0C9
S11327F0E5F801236374A37C002B03D02000183078
S1132800FFF7E9FA10BDC0469C020020943B00008B
S1132810F0B51700002289B005930EAB1B780500B4
S11328200393830032481E5832481C5807AB1A8061
S1132830A37C880A04930223FF3363828B0A0193E7
S1132840CBB21E2801D11A000B0A5B00D8B2019B3F
S113285000211E2B05D08F4203D1012303995B1A5B
S113286059B20143CBB202930299019807AB197094
S113287001211E2801D15A704918A3603000E1607B
S11328800299FFF77FFF28000F99FFF785FF237C4C
S1132890002B0CD1002F0AD0059BA760E360300009
S11328A03978FFF76FFF28000F99FFF775FF237C36
S11328B0039A1A4314D1019B1E2B01D0002F0FD071
S11328C0002301273000A360E76001F065F8029956
S11328D030003943FFF756FF28000F99FFF75CFFDC
S11328E00023207CE374049BC0B2A37409B0F0BD40
S11328F0943B00009C020020F7B583000193184B21
S11329008200D75805000C000126002F26D1154B54
S11329103900D358200024220193FDF7D9FE20006A
S113292039001830FFF750FA2800FFF77EFC0198B1
S113293000F0DDFF0A4BAA00D4501F220A4B5B5D56
S1132940134032009A40094B1A609C22019B5205A5
S113295002331343802266743E001A703000FEBDB9
S11329609C020020943B0000983B000000E100E042
S11329700A4B800070B5C5584B686A690C009342D5
S11329800BD0074BC658FFF70DFC0023010062680B
S1132990300000F0BBFF63686B6170BD9C020020D7
S11329A0943B0000F0B587B004920593334A0FAB13
S11329B01E7883009C580391627C0700002A03D18F
S11329C00320207407B0F0BD002E01D11E220E9208
S11329D02B4A3800D55800230399E360A36023747D
S11329E023606374A674FFF7C3FF90231021AA1C0D
S11329F05B05134319708423E91C5B050B43022117
S1132A00197098235B05134302934023029A28000C
S1132A10137000F0C1FF039B380019880E9B049AC1
S1132A20019301230093059BFFF7F2FE0D9B002BFE
S1132A3017D0237C002B11D10C9B2800A3600D9B85
S1132A40E3600C9B1978FFF79DFE002E03D038003D
S1132A500E99FFF7A1FE207CC0B2B3E7237C042BC0
S1132A60F9D100230126029A1370EB785B093342F3
S1132A7002D0280000F0A2FF6674ECE79C0200205C
S1132A80943B0000F0B589B0079311AB1B78069214
S1132A90364A029383009C580591627C0600002A02
S1132AA003D10320207409B0F0BD029A002A01D199
S1132AB01E32109200272E4A0599D5580E9B3000DD
S1132AC023600F9BA7606360029BE760A374277475
S1132AD06774FFF74DFF9023AA1C5B051A4310236C
S1132AE01370842304925B05EA1C134302221A70B8
S1132AF09823AA185B051A434023280013700392F5
S1132B0000F04AFF059B069A1988109B3000019338
S1132B100097079BFFF77CFE237CDAB2BB4215D1FA
S1132B20049BA91C1A708C235B050B430F99012984
S1132B3000D108221A702B79029B002B03D030009D
S1132B401099FFF729FE207CC0B2ACE7237C042B4C
S1132B50F9D10126039B1F70EB785B09334202D045
S1132B60280000F02BFF6674EDE7C0469C020020AD
S1132B70943B00001FB501240394089C0294079C15
S1132B800194069C0094FFF70DFF04B010BD1FB51F
S1132B9001240394089C0294079C0194069C0094CD
S1132BA0FFF770FF04B010BD244B70B58400E558E6
S1132BB08423EA1C5B05134302221A709023A9188C
S1132BC05B050B431B78EA78DBB292061DD5942291
S1132BD052050A431278002A17D0194AA458012B27
S1132BE014D1EA781A4204D004332374FFF7EAFDBF
S1132BF00BE0E368013BE360002BF7D0A3682800F7
S1132C005A1CA2605978FFF7BDFD70BD6268013A95
S1132C106260002A06D08C235B05012A0AD00022B8
S1132C200B4309E0FFF7CEFD23685A1C22602A7982
S1132C301A70EAE708220B431A70F5E7943B000088
S1132C409C020020C31C8420400518430223037007
S1132C50704700000122F0B5904B8100CD5889B037
S1132C60EB1C0193EB7890261B091A400592012274
S1132C70EB7876059B091A4002923200AB1D1A4389
S1132C80944612780090D2B20792942252051A43C5
S1132C901278AF1CD0B203909820400503431878F3
S1132CA0C0B206907E480C5831003943019109782E
S1132CB0C9B20491002A35D0079A002A0ED01023F5
S1132CC0624628001370FFF7BDFF236B002B52D020
S1132CD06A4601211078626B98474CE0069A002AF4
S1132CE020D0402228001A70FFF7ACFF23002C33B9
S1132CF01B78002B03D19822520517433B70236B9A
S1132D00002B04D06A4680211078626B9847E37DDB
S1132D10002B04D0200080211830FFF76CF80A2320
S1132D20237028E02800FFF78DFF059B002B24D09B
S1132D30EB1C1E4310233370029B002B10D0EB7846
S1132D405B07DA0F002B48DB019B1A70236B002B07
S1132D5004D06A4604211078626B98472B790AE004
S1132D60082323702C342378002B04D198235B058B
S1132D701F43029B3B7009B0F0BD029B002BDED1C8
S1132D80049B012B54D1EB78049A134230D0019B5D
S1132D90029A1A702B7923002C331B78002B07D14D
S1132DA0039B002B04D198235B051F43039B3B70BB
S1132DB0236B002B04D06A4608211078626B984775
S1132DC0A37D002B04D0200008211830FFF713F84E
S1132DD000236360E3602375CDE71023019A137029
S1132DE0236B002B04D06A4602211078626B98474B
S1132DF06368002B50D028008022E3680C30520511
S1132E001978024310780028FCD029710133E3605B
S1132E106368013B63606368002BACD1E360237596
S1132E20236B002BA7D06A4610211078626B53E7FE
S1132E302B79A268DBB2002A2CD022691370236993
S1132E4001332361A368013BA360A368002B00D076
S1132E5091E7039B002B11D123002C331B78002B0B
S1132E6004D198235B051F43039B3B70E37D002B38
S1132E7004D0200020211830FEF7BDFF0023637525
S1132E802361236B002B00D175E76A46202110785B
S1132E90626B21E7072343E7062341E7943B0000E5
S1132EA09C02002084225205024312780300D0B20F
S1132EB0002A0CD0802001334005034318780138E0
S1132EC043425841024B40421840024BC0187047DD
S1132ED0808D5B0080841E0010B50D4B821D134352
S1132EE01A780400D3B2002A0FD0012B07D1FFF7C0
S1132EF0D9FF084B08341C432378D84010BD002068
S1132F00022BFBD1044B1868F8E70448F6E7C046E7
S1132F100000081100009010A0020020006CDC02E8
S1132F200C4A811D0A4312780300D0B2012A04D04E
S1132F3002280BD000280BD17047802201335205A0
S1132F4013431B78002BF7D10220F5E70320F3E7A6
S1132F500520F1E70000081102009C2318325B05EC
S1132F60134380221A700022064B03431A70064B47
S1132F70063018430378DAB2002BFBD1034B100060
S1132F800B6070470000081300000811006CDC029D
S1132F90F8B504000D0016001F00FFF7C1FF01285B
S1132FA023D1002D25D08023621C5B0513431D70A3
S1132FB0842302225B0523431A702200104B08323B
S1132FC013437200D2B21A7040220E4B0E482343B0
S1132FD006341A7004432378012BFCD1002D0DD143
S1132FE00A4B334100203B60F8BD0228DBD1012DA0
S1132FF0D9D139002000FFF7AFFFD4E7044BF0E745
S113300000009010000008130000081180841E00C6
S113301000127A0010B50A4C030022680120002A2D
S11330200CD0084A7F301A43107007480633034314
S11330301A78022AFCD1002023680B6010BDC04618
S1133040A002002000000813000008119C23C901FD
S11330505B050343C9B219707047942349015B05AA
S11330600343C9B21970704770B506680C0030008C
S11330702049FDF76FFD1F4905003000FDF7F0FD05
S11330800E00E12130000901FDF764FDE121E0803B
S113309009013000FDF7E4FD0E003C213000FDF78E
S11330A059FD3C2120813000FDF7DAFD6E22A1722A
S11330B00321114BFF322380238895420AD80F49FC
S11330C09B0700D10E490123CA5CAA420CD363803A
S11330D0A58070BD01339BB223800B40AD1A5A42C8
S11330E05A416E32FF32E7E70133AD1A0D2BEBD1B3
S11330F0EEE7C04680510100B2070000C03B00006B
S1133100993B00000188114A03008A18002030B559
S1133110812A17D85A88541E0B2C13D89C88651EF4
S11331201E2D0FD8DD88172D0CD81D893B2D09D8ED
S11331309B7A3B2B06D88B0705D0054B9B5CA3429F
S11331404041C0B230BD034BF8E7C0464EF8FFFF24
S1133150C03B0000993B000070B5134D8388028882
S11331605B196E25FF35554344885B1995085B1937
S11331700E4D6600755B5B19920710D00B600A68F0
S11331800B4BC4885343827A00899B18E1221201B5
S113319062439B183C2242439B180B6070BD022C77
S11331A0ECD8013BEAE7C0464A05F5FFA63B000020
S11331B0805101008023084A1B0212689A4209D1F7
S11331C0A02310305B0518430368002B02D10133A0
S11331D0FF3303607047C046A00200200100802234
S11331E010B5002301245205103111430C600B600B
S11331F090214360490504601C3001430B60882121
S1133200490501430B6084214905014310430B60C8
S1133210036010BD0200902314325B0513430022A7
S11332201A604260103201601A60704703680B60D4
S113323070470000104B820070B5D55880220400FE
S11332400E4B92051A602800FFF7C8FF2800FFF70D
S1133250B1FF0B4B1F261A5D0123180009493240A8
S1133260095DC025314090408B40074A6D005051A4
S113327053511060136070BDD03B00003C80845EED
S1133280D43B0000D53B000000E100E0F7B5002787
S1133290114B8000C55808000E000197FFF732FF5C
S11332A00400B84216D001A93000FFF755FF3800DA
S11332B0FEF7AAFF010080200002814206D0FDF73C
S11332C049FC01000198FDF745FC01902800019993
S11332D0FFF7A0FF2000FEBDD03B0000F7B500259E
S11332E0124B8000C4580E00200001A90195FFF77D
S11332F09DFF2800FEF788FF05008020000285421C
S11333000ED00B4B290004341C43FDF723FC276823
S1133310019C29004443B8B2FDF71CFC2418019415
S1133320310001A8FFF7A0FEF7BDC046D03B000066
S113333000007810F0B50027184B800085B0C55800
S113334008000E0001920397FFF7DCFE0400B84268
S113335003D10024200005B0F0BD300003A9FFF71D
S1133360FBFE38002E68FEF74FFF010080200002AC
S1133370814206D0FDF7EEFB01000398FDF7EAFB5E
S11333800390039BB342E4D3AB6088231C355B05F5
S11333901D43019B9A002A60DCE7C046D03B000035
S11333A0044B8000C25888231C325B0513438900F8
S11333B019607047D03B0000054B8000C258882339
S11333C014325B0513431868431E9841C0B270471A
S11333D0D03B00006B46E0221B78D2021B04134052
S11333E0024A09070B438018036070474410000029
S11333F0084B8200D258902310B503325B05134367
S11334001B78002B02D000F0EFF810BD00F054F947
S1133410FBE7C046D83B00009C210C4B0C4A8000C3
S1133420C3588258002003324905114310B518715E
S11334300870942149050A4310701A7F824203D010
S113344020331800FEF7C7FC10BDC046A8020020B8
S1133450D83B0000F7B50C0005001B4B30220021BF
S113346087002000FE58FDF733F92800FEF7D8FE48
S1133470FEF798FE2060300000F0C1FA2000002121
S11334802030FEF7A1FCF31C01939023F21C5B0592
S11334901343102230001A70032100F0EEFA3000BA
S11334A0002100F00FFB094BFC50094B5A5D1F2310
S11334B01A401E3B9340074A13609823019A5B0508
S11334C0134340221A70F7BDD83B0000A802002025
S11334D0DC3B000000E100E00A4B800070B5C658F8
S11334E0094B0C00C358150030001A68096800F035
S11334F08DFA2860A37930006279217900F0CFFA3F
S113350070BDC046D83B0000A8020020F7B51E4A93
S113351083009C58050022790420002A16D11B4AF6
S11335209E58002903D0280001AAFFF7D5FF98234D
S113353000214020F21C5B051343197018702769A1
S11335408F4204D12800FFF767FF0020FEBD01234E
S1133550237194235B05A16133431B780720002B5F
S1133560F4D0A368191E02D019780133A360B17195
S11335702369013B2361A3690133A3619C235B0598
S11335801A4380231370E0E7A8020020D83B000010
S1133590F8B5134F134C85002C59ED590127069E9D
S11335A02777A2602661E3606661FFF7AFFF00281A
S11335B014D1200007992030FEF74EFC0328F8D0E0
S11335C000280BD09C23002203355B052B4322717A
S11335D01A70942303205B051D432A70F8BDC0466E
S11335E0D83B0000A802002010B51E4B8200D3581F
S11335F01979002934D01C4951585A69002A11D02C
S11336009C2252050A431278002A0BD08A79DC687E
S1133610D2B2002C03D02270DA680132DA605A691F
S1133620013A5A611A69002A12D0942252050A43B7
S11336301278002A0CD09A68141E02D01478013231
S11336409A608C711A69013A1A619A6901329A6115
S11336501A69002A04D15B69002B01D1FFF7DCFE53
S113366010BDC046A8020020D83B0000104A8000CC
S1133670815800220F4B10B5C3580331581CC27730
S11336809C2040050843DA621A701A835A629A62CF
S11336901A6302709420400501430A701A003832FC
S11336A01278002A03D00121181DFEF7A4FB10BDD7
S11336B0D83B0000A802002070B5254B8200D358E7
S11336C0591CC97F002942D022495258D96A00297D
S11336D017DB9421490511430978002911D0D969D0
S11336E0CCB2596A002905D0DD6A002D02DD0C78C0
S11336F0013159629471D96A0139D962596B013126
S11337005963D96A002905DA9421D41C4905214357
S113371000240C70196B002911DD9C21490511430B
S1133720097800290BD09279996AD2B2002903D082
S11337300A709A6A01329A621A6B013A1A63DA6A57
S1133740002A04DC1B6B002B01DCFFF78FFF70BD2C
S1133750A8020020D83B0000012903D0032909D086
S11337600020704794235B0518430078431E98415A
S1133770C0B2F6E78423F6E7431C03484901184323
S1133780C9B201707047C04600008812831C94209F
S1133790490140051843C9B201707047831C0348AE
S11337A089011843C9B201707047C046000008136C
S11337B0831C8C20C90040051843C9B201707047AE
S11337C0F7B50400364EE31C1E43337808780D0029
S11337D0DBB2072860D8FDF7A9F904192B0E192BC1
S11337E02B45304B01341C43002323703378012BC9
S11337F0FCD10020FEBD012BFCD12A4B01341C431B
S1133800402323703378042BFCD1F2E700210128F4
S113381001D004200231337898423FD12000FFF7D1
S1133820ABFF0421204A13698B43136130BFE0E7E7
S11338300227B84207D100270B79BB4203D02000EE
S11338404979FFF7ABFF194B01341C4327703378D8
S1133850154ADBB20193019B0133019304231169DF
S11338600B43E2E70421114B621C1A4311706A787E
S1133870A11C0B431A70002A06D1AB78002B03D08D
S11338802000E978FFF782FFAB79002BDFD020001E
S1133890E979FFF78DFFDAE70120ABE70320A9E719
S11338A0000030100000881200ED00E0000010104D
S11338B0C31C024818430078C0B27047000030109F
S11338C0012314308B40012A04D1802212051043B5
S11338D0036070478022D204DB431043F8E70123DE
S11338E08B40002A01D0436070478360FCE70023CB
S11338F0C222037043708370C37043718371C371B8
S1133900037242728372C37270470000F0B50024E0
S113391087B00293FA230126270025009B00534316
S113392003900491009301947642AB000593194BE4
S1133930AA009B1859880498A140FDF70BF9009B35
S1133940009AC31A824200D9131AB3421FD2114AF1
S1133950A900525C27000192002B02D00135322DC0
S113396013D10134032C01D0002B0DD1029A002A6B
S113397000D013603F220199BB0111400B43039A0D
S1133980DBB2537007B0F0BD00251E00CDE7330055
S1133990E4E7C046F63B0000942302305B05034392
S11339A01B78002B05D088235B0518430423037080
S11339B0704780231B0518433023F8E7942210B581
S11339C05205841C224311780300CAB20220012943
S11339D00DD18021C90421438024CD300870E40036
S11339E003331978490908001040114200D110BD71
S11339F0013C002C01D0C046F3E70920F7E704237B
S1133A00C37000238370437003717047F0B5130BC8
S1133A1089B00126039308230124764202939B195B
S1133A20079004910592019302270025631E0693D3
S1133A30210005987943FDF78DF8049B834207D351
S1133A401B1AB34204D21E00069B039002950193F5
S1133A5001357F00092D01D0002EE9D1082C02D0B8
S1133A600134002EE0D1019B029A1B0103981343F9
S1133A70079ADBB2537009B0F0BD842310B5022459
S1133A80C21C5B0513434A0022401A70902300199C
S1133A905B0518431023C9001940017010BD10B50F
S1133AA08C2403306405C9000443C9B22170882101
S1133AB0920049050143D2B20A7080225205104394
S1133AC0037010BD8023012202305B0503430A40CA
S1133AD01A708C235B051843082389001940017070
S1133AE07047000004FEFF1F0A0A0A0D426F6F743C
S1133AF0696E6720576172702C20696E20332E2EF8
S1133B002E2000322E2E2E2000312E2E2E0A0D00B5
S1133B1020636F6D6D756E69636174696F6E206685
S1133B2061696C65640A002077726974696E672044
S1133B307375636365656465640A00207265616416
S1133B40207375636365656465640A0020307825B5
S1133B503032782072656769737465723A20307800
S1133B6025303278203078253032780A0054657256
S1133B706D696E616C005254540053454747455279
S1133B8000303132333435363738394142434445D5
S1133B9046898A000060064008001F1D1F1E1F1E64
S1133BA01F1F1E1F1E1F000000001F003B005A00A5
S1133BB078009700B500D400F300110130014E01E4
S1133BC0001F1C1F1E1F1E1F1F1E1F1E1F00000084
S1133BD000D0034014150000006007400A000000F4
S1133BE00050064000F00F4040F00F4000900440A9
S1133BF000A004401E1F0000140001001600020073
S1133C00180003001A0004001C0005001E0009002F
S1133C102000060022000A002400070028000C00EF
S1133C202C001000300011003800120040000F007A
S1133C3044001300480014005000150058001900F7
S1133C406000160068001A007000170080001C0055
S1133C5090001D00A0001E00C0002200E0001F0014
S1133C60F00023000001240020012500400126006B
S1133C7080012A00C0012700E0012B0000022C0073
S1133C8040022D0080022E000003320080032F002A
S1133C90C0033300000434008004350000053600FE
S1133CA000063A000007370080073B0000083C008C
S1133CB000093D00000A3E00000C3F00000F000018
S1133CC0F8B5C046F8BC08BC9E467047F8B5C04677
S10B3CD0F8BC08BC9E467047D5
S10B3CD8D0C7FF7F01000000CA
S1073CE08504000053
S1073CE4590400007B
S1133CE804FEFF1F000000000000000000000000A8
S1133CF800000000000000000000000000000000B8
S1133D0800000000000000000000000000000000A7
S1133D180000000000000000000000000000000097
S1133D280000000000000000000000000000000087
S1133D380000000000000000000000000000000077
S1133D480000000068FEFF1F7D0E00000300000055
S1133D5800000000C8000000050000000A00000080
S1133D6801000000C800000001000000010100007B
S1133D7801010000FFFFFFFF000000000000000039
S1133D880100000001000000010000000100000023
S1133D980100000002000000010000000100000012
S1133DA805000000010000000100000008000000F8
S1133DB801000000010000000C00000001000000E8
S1133DC801000000000100000100000001000000E3
S1133DD805010000010000000100000006010000C8
S1133DE801000000010000000701000001000000BC
S1133DF8010000000A0100000100000001000000A9
S1133E080B01000001000000010000000D0100008A
S1133E180100000001000000020100000100000090
S1133E28010000000301000001000000010000007F
S1133E380401000001000000010000000600000069
S1133E48010000000100000007000000010000005C
S1133E58010000000900000001000000010000004A
S1133E68FFFFFFFF00000000000000000101000048
S1133E780000000000010000000000000000010034
S1073E880001000031
S903051DDA
