S02B00002F73747564656E74732F6E643433352F576172702D6669726D776172652F6275696C642F6B73646B20
S1130000000600201D050000450500004505000010
S113001000000000000000000000000000000000DC
S11300200000000000000000000000004505000082
S11300300000000000000000450500004505000028
S11300404505000045050000450500004505000084
S11300504505000045050000450500004505000074
S1130060EB3D000045050000F53D0000450500009E
S11300704505000045050000450500004505000054
S11300804505000045050000450500004505000044
S1130090052900001D290000450500004505000054
S11300A04505000045050000450500004505000024
S11300B04505000045050000450500004505000014
S1130400FFFFFFFFFFFFFFFFFFFFFFFFFE3DFFFFBB
S11304100448054B10B5834203D0044B002B00D095
S1130420984710BDA8FFFF1FA8FFFF1F0000000092
S113043006480749091A8B10C90FC91810B5491085
S113044003D0044B002B00D0984710BDA8FFFF1F1A
S1130450A8FFFF1F0000000010B5074C2378002BF5
S113046009D1FFF7D5FF054B002B02D0044800E06B
S113047000BF0123237010BDA8FFFF1F0000000070
S113048024610000054B10B5002B03D00449054836
S113049000E000BFFFF7CCFF10BDC0460000000025
S11304A0ACFFFF1F24610000402292029A1A924678
S11304B07047C046154B002B00D1114B9D46FFF7EA
S11304C0F3FF00218B460F461148124A121A00F01E
S11304D0FFF80C4B002B00D098470B4B002B00D09F
S11304E098470020002104000D000B4800F02EF86E
S11304F000F064F82000290002F00CFB00F034F84E
S113050000000800000000000000000000060020B9
S1130510A8FFFF1F580300209505000072B6064887
S11305200649074A02600A6003F06AFC03F0AAFC69
S113053062B6FFF7BFFF000080E100E080E200E068
S1130540FFFFFFFF004800474505000010B501000C
S113055000230022002000F055FA10BD014B18685A
S11305607047C04600FEFF1F084B10B50400002B67
S113057002D0002100F0B4FA054B1868836A002BFE
S113058000D09847200002F08FF9C046E10A00002D
S1130590105C000070B5074D074C641BA41005D017
S11305A0013CA300EB589847002CF9D105F0C0FD9D
S11305B070BDC046486100004C61000070B50C4D30
S11305C00C4E761BB61005D0002408CD0134984794
S11305D0A642FAD105F0A6FD074D084E761BB610CB
S11305E005D0002408CD01349847A642FAD170BD45
S11305F0446100004461000044610000486100005F
S113060010B5034B0100186800F00CF910BDC0468A
S113061000FEFF1F10B5034B0100186800F0ACF892
S113062010BDC04600FEFF1FF0B5C64600B50F2A38
S113063043D90B00032603431E400C000300002E85
S113064040D11500103D2D09AC462D01A84680442B
S113065000E03B00676825685F60E7681D60DF6055
S11306601F00A56810379D6010344345F1D16546DD
S11306700F230C2401352D01491913404519144247
S113068023D08C59AC5104369C1B032CF9D8032479
S1130690043B9B0801339B002240ED18C918561EE9
S11306A0002A07D0002300E02300CA5C5C1CEA5443
S11306B09E42F9D104BC9046F0BD0500561E002AA6
S11306C0F0D1F7E7561E0500ECE71A00F6E7C0463E
S11306D0F0B5050083074AD0541E002A44D0CEB298
S11306E00300032202E00135013C3DD301332E70A7
S11306F01342F8D1032C2FD9FF220A4015021543C7
S11307002A0415430F2C35D92700103F3F093E0119
S1130710B4461E001A001036664415605560956094
S1130720D5601032B242F8D10F260C2201373F01B6
S11307302640DB193700224217D03E1FB608B4000A
S1130740A4461A001C1D644420C2A242FCD1032406
S11307500136B6009B193C40002C05D0C9B21C19C7
S1130760197001339C42FBD1F0BD3400F4E714004E
S11307700300BFE72700E0E770B50500002915D0A6
S11307800C1F2368002B27DB280000F007FA244BFA
S11307901A68002A05D0A2420CD921686018824246
S11307A024D0626028001C6000F0FAF970BDA342F6
S11307B003D81A005368002BF9D111685018A042CD
S11307C01BD027D821686018834207D06360546027
S11307D0280000F0E5F9E9E7E418D5E718685B6854
S11307E084466144216063605460F1E71068526894
S11307F08446614421606260D4E720680918501877
S113080011608342E4D118685B68844661441160D6
S11308105360DDE70C2328002B6000F0C1F9C5E725
S1130820C4FFFF1FF8B50323CD1C9D430835060004
S11308300C2D2AD20C25A94229D8300000F0AEF99B
S11308402A4F3A68002A0AD013685B1B04D441E09B
S113085023685B1B1FD522005468002CF8D17B68E9
S1130860002B3DD02900300000F042F8431C2AD070
S11308700323C41C9C43A04205D0211A300000F07D
S113088037F8431C1FD0256010E0002DD3DA0C2369
S113089000203360F8BD0B2B05D86368A2421DD03D
S11308A0536003E014002360E4182560300000F076
S11308B077F9200007220B30231D9043C21AE9D098
S11308C01B1AA350E6E70C233000336000F068F9EC
S11308D00020DFE70B2BE5D8140053683B60E5E705
S11308E00021300000F004F87860BBE7C4FFFF1F6C
S11308F0002370B5064C05000800236001F0D6FF04
S1130900431C00D070BD2368002BFBD02B60F9E79B
S1130910540300200CB400B59DB00291069109491E
S11309201EAB07910491084904CB059102A90193D8
S113093000F02AFA0023029A13701DB008BC02B01A
S11309401847C046FFFFFF7F0802FFFF0EB400B543
S11309500B499CB0079104910A491DAB05910A49C2
S113096004CB02900690086802A9019300F00CFAE7
S11309700023029A13701CB008BC03B01847C04689
S1130980FFFFFF7F0802FFFF00FEFF1F03000A783E
S113099001311A700133002AF9D1704710B5830769
S11309A027D00378002B26D00300032102E01A7815
S11309B0002A1CD001330B42F9D119680F4A104C9C
S11309C08A188A4322420FD1043319680B4A8A18C1
S11309D08A43224208D104331968084A8A188A4390
S11309E02242F1D000E001331A78002AFBD1181A10
S11309F010BD0300E1E70020FAE7C046FFFEFEFE5B
S1130A0080808080F0B546464F46D646C0B51F006C
S1130A102F4B82B01C6805000E009046002C2DD090
S1130A2063681F2B50DC002D1CD08822A0589146EF
S1130A30002834D07832825894469A0091468144F2
S1130A40424649460A600121624699400A43944657
S1130A5080228A466146520081504946803A8F502E
S1130A60022D16D000205A1C02339B0062601E51D6
S1130A7002B01CBC90469946A246F0BD154C1C60C1
S1130A80154B002BCCD01B6801938823019AE250AC
S1130A90C6E75546843281580D438550E2E70F4B33
S1130AA0002B11D084204000FFF7AAFD00280BD0B2
S1130AB08022002352008350043283504B4600228C
S1130AC0E05094466368B8E701204042D0E7C0464E
S1130AD058000020CCFFFF1F0000000001060000AA
S1130AE0F0B5DE464E46454657462B4B88469B4658
S1130AF0E0B51E6883B00190002E45D08823756848
S1130B00F7586C1E40D40135AD00783375199A46F8
S1130B100AE0002F05D03B00A20080339B584345D8
S1130B2005D0043D013C2FD34346002BF1D173681B
S1130B302A68013BA34222D000232B60002AF0D074
S1130B4073689946002F18D001235146A340795861
S1130B50194212D0822040003858A10079580090E0
S1130B6018420ED1019890475B4672681B684A454B
S1130B7001D1B342D5D01E00BEE79047F4E77460BC
S1130B80DCE708009047EFE703B03CBC9046994689
S1130B90A246AB46F0BDC046580000207047C04690
S1130BA07047C046F0B546464F46D646C0B58E6837
S1130BB081460C0090461D0008689E4239D8902258
S1130BC08B89D200134211D135002A00414600F02E
S1130BD055FCA36800209E1B2368A6609C466544C0
S1130BE025601CBC90469946A246F0BD0969421A8C
S1130BF092466269681C5700BF18FA0FD7197F1014
S1130C0050443A00B84201D9070002005B0512D5EE
S1130C1011004846FFF706FE061E1FD05246216902
S1130C20FFF702FDA389124A134080221343A381D4
S1130C3006E01E00C9E7484600F07EFC061E09D007
S1130C403000534650446761FF1A266120602E002D
S1130C50A760BAE721694846FFF78EFD0C234A4690
S1130C60136040220120A38940421343A381B8E7C3
S1130C707FFBFFFFF0B54E464546DE465746E0B5DE
S1130C80936883B001900D009146002B6BD01768D8
S1130C9008688C6844E09022AB89D20013422ED0BD
S1130CA02969421A9346686942001218D00F8218C3
S1130CB0701C521058449046904201D9804602005C
S1130CC08020C000034237D011000198FFF7AAFD2D
S1130CD0041E53D05A462969FFF7A6FCAB89294A5A
S1130CE0134080221343AB81434620005A462C61B3
S1130CF0B046340058446B619B1A2860AB6042468E
S1130D00514600F0BBFBAB681C1B2B68AC60434432
S1130D102B6018004B469B689E1B4B469E6022D05E
S1130D203B687E689A460837A046002EF8D0A64253
S1130D30B1D23400B046E2E7019800F0FDFB041E96
S1130D40D2D1019C29692000FFF716FD0C232360F2
S1130D504022AB8901201343AB814A460023404221
S1130D609360536003E000234A460020536003B0BD
S1130D703CBC90469946A246AB46F0BD0C23019A72
S1130D801360E5E77FFBFFFFF0B54E46DE465746AE
S1130D904546E0B5A1B0049003911C008B899146AF
S1130DA01B0604D50B690593002B00D119E1002320
S1130DB008AD6B6120336B761033AB762F3B9846CE
S1130DC04B461B780794924F002B00D186E0252BCD
S1130DD000D104E14E4603E0252B00D18BE0260030
S1130DE07378741C002BF7D14B46E31A9A4675D0DE
S1130DF053464A4603990498FFF7D4FE431C6DD02A
S1130E006B6953446B617378002B67D00122002314
S1130E1052426A60443201342B60EB60AB60AB54E5
S1130E20AB6506E04346C01B834034002A68134385
S1130E302B6021780522380000F0E0FA661C0028B7
S1130E40F0D12B68B246DA0602D543222021A954F8
S1130E501A0702D543222B21A95421782A2950D1DB
S1130E60079A111D12680791002A00DA9AE0EA60D5
S1130E706178A61C2E295CD0664B03221800994683
S1130E8000F0BCFA002800D171E04B46C01A4023A0
S1130E9083402A68317813432B600622731C5E4812
S1130EA09946297600F0AAFA00286AD05B4B002BF9
S1130EB000D170E007AB0093039A594B29000498C2
S1130EC000E000BF83465B46013307D06B695B4497
S1130ED06B614B461B78002B00D078E7039B9B8902
S1130EE05B0600D58CE0686921B03CBC904699460D
S1130EF0A246AB46F0BD4B46E31A9A4600D185E7BD
S1130F0076E70A00303AA246092AB3D8EB681800FB
S1130F1001E03400013683001B1831785B00981817
S1130F200A00303A092AF4D9B246E860A61C2E29F0
S1130F30A2D1534659782A293AD1079B1A1D079200
S1130F4052469178D61C022294461B68E2446B6098
S1130F50002B00DB90E701235B426B602D4B0322E7
S1130F601800994600F04AFA002800D08DE7B146EF
S1130F705646317806222848297600F03FFA0028A0
S1130F8094D107AB0093039A254B2900049800F0F1
S1130F90E1F8834697E70722079B07339343083317
S1130FA0079393E75242EA60022213432B605FE700
S1130FB00A000023303A6B601800092A01D91CE0AA
S1130FC01E0083001B1871785B0098180A00303AE1
S1130FD0731C092AF4D99A46023668604CE74C46D9
S1130FE014E74021FFF71EFC039B186018610028DA
S1130FF009D04023039A5361D9E6B24601363BE750
S11310000120404270E70C23049A013813606BE717
S1131010E8600000F0600000F460000000000000E0
S1131020A50B0000F0B54F464646D646C0B51F0096
S1131030089B914698468A680B6906000C00934207
S113104000DA13004A4613604322A25C002A02D04D
S11310504A460133136023689A065AD54B461B68E7
S113106006209A1C4B461A6023681900184208D1BE
S1131070E16800258A1A19218A461900A244002A27
S11310803FDC4323E35C5A1E93418A060AD5302091
S1131090E1184331087045215A1C615CA21843329F
S11310A0023311702200390043323000C047431C20
S11310B019D006232068A26821690340042B30D08C
S11310C08A423ADD00239946521A91441A34002583
S11310D002E001354D4530DA0123220039003000A9
S11310E0C047431CF5D1012040421CBC90469946A0
S11310F0A246F0BD4B46E2681B680135D31AAB42E9
S113110020DD0123524639003000C047431CF1D191
S1131110E9E706221A4212D04323E35C5A1E9341A4
S1131120C0E74B46E0681B68C31AD843C017184091
S113113081468A42C8DC002BC8DC0020D5E74A4639
S1131140126895E743232168E35C5A1E93418A069B
S11311509DD4A7E7F0B557469A4643239C464E468E
S11311604546DE468C446346E0B587B003930B7E68
S1131170914680460C00109A6E2B00D1D8E000D81E
S113118071E0732B00D11AE100D881E0752B00D1F6
S1131190FFE0782B00D00BE10B68782045216054E8
S11311A094498B46116840C91160180603D4580647
S11311B001D53604360CDA0702D520221343236006
S11311C01027002E00D1C2E043230022E2546368BA
S11311D0A360002B00DAC5E004222168914321605A
S11311E0002E00D083E0002B00D0BDE0039D082F2B
S11311F000D18CE0039B5B1B2361534605AA00933B
S113120021004B464046FFF70DFF431C22D02369C3
S11312102A0049464046D047431C1BD02268059803
S1131220E368920700D47FE01A1A002A00DC7BE00E
S113123026000025193606E0E368059801351A1AD8
S1131240AA4200DC70E00123320049464046D04700
S1131250431CF1D10120404207B03CBC9046994662
S1131260A246AB46F0BD632B00D184E01FD8002B0F
S113127069D0582B00D09BE0452163545E49236814
S11312808B46116840C91160180600D48FE792E7B5
S11312906F2B7ED0702B00D08AE020230968782041
S11312A00B4345212360605452498B467AE7642BF3
S11312B001D0692B7CD111682368081D10601D06BC
S11312C04AD50A681600002A03DB4B4B0A279B46C3
S11312D07DE743222D21A15462687642A260002A50
S11312E002DB042293432360434B0A279B46039D5E
S11312F000E006003900300000F0EAF95B465B5C70
S1131300013D2B70BE42F4D2082F00D072E723684F
S1131310DB0700D46EE763682269934200DD69E766
S11313203023013D2B7065E7984295DA180093E766
S1131330136809681D1D606915601B680E0601D4D9
S113134049064BD418600023039D236155E72023ED
S113135022689A43226037E75D06B2D500228E5E8A
S11313603200B0E7002EC2D15B4625001A78422332
S11313704235E2543BE713682500191D11601A68D1
S11313804223E254413B4235236143230022E25489
S113139033E7116820680D1D1560060601D4400668
S11313A01ED40E686F2B1DD0134B0A279B460BE7E8
S11313B042222500A354012342352361E5E7136843
S11313C0191D11601D6862680021280000F016F8DC
S11313D000280BD0401B60602061D6E71880B2E77C
S11313E00E88DFE7044B08279B46EDE66068206122
S11313F0CBE7C04610610000FC60000070B5CDB2C0
S1131400830734D0531E002A1BD00278AA4219D075
S1131410032404E0013B14D30278AA4212D0013021
S11314202042F7D1032B0ED8002B0AD00278AA420F
S113143008D0C31802E00278AA4203D001308342E4
S1131440F9D1002070BDFF220C06240C1140214369
S11314500C04084E0C43026807496240511891433A
S11314603142E3D1043B0430032BF4D8DCE713000E
S1131470D8E7C04680808080FFFEFEFEF0B5C646F9
S113148000B588420CD98B18984209D2531E002A01
S113149003D0CA5CC254013BFBD204BC9046F0BDED
S11314A00F2A0CD80500561E002AF6D0002300E0AF
S11314B02300CA5C5C1CEA549E42F9D1EDE70B00A0
S11314C0032603431E400C000300002E2ED11500FA
S11314D0103D2D09AC462D01A846804400E02B00A8
S11314E01D00276810351F6067685F60A7689F60EC
S11314F0E7681034DF604345F1D165460F230C24BF
S113150001352D01491913404519144211D08C5944
S1131510AC5104369C1B032CF9D80324043B9B08D0
S113152001339B00ED18C9182240BCE7561E050084
S1131530BCE71A00B7E7C046F8B507000C00150071
S113154000291BD0002A15D000F01EF82600A8425E
S113155001D33000F8BD29003800FFF763F9061EF7
S1131560F7D021002A00FFF75FF821003800FFF7C9
S113157003F9EEE7FFF700F90026EAE71100FFF7A9
S113158051F90600E5E7C0460B1F1B68181F002B26
S113159000DB70470B58C018FBE7C04602B4714625
S11315A049084900095C49008E4402BC7047C046A2
S11315B003B47146490840004900095E49008E445D
S11315C003BC7047002243088B4274D303098B4247
S11315D05FD3030A8B4244D3030B8B4228D3030CFF
S11315E08B420DD3FF22090212BA030C8B4202D3A1
S11315F01212090265D0030B8B4219D300E0090AC9
S1131600C30B8B4201D3CB03C01A5241830B8B42D1
S113161001D38B03C01A5241430B8B4201D34B03BA
S1131620C01A5241030B8B4201D30B03C01A52411F
S1131630C30A8B4201D3CB02C01A5241830A8B42A4
S113164001D38B02C01A5241430A8B4201D34B028D
S1131650C01A5241030A8B4201D30B02C01A5241F1
S1131660CDD2C3098B4201D3CB01C01A52418309A5
S11316708B4201D38B01C01A524143098B4201D3DF
S11316804B01C01A524103098B4201D30B01C01A0A
S11316905241C3088B4201D3CB00C01A5241830884
S11316A08B4201D38B00C01A524143088B4201D3B1
S11316B04B00C01A5241411A00D201465241104611
S11316C07047FFE701B5002000F0F0F802BDC04606
S11316D00029F7D076E7704703460B437FD40022F6
S11316E043088B4274D303098B425FD3030A8B42B2
S11316F044D3030B8B4228D3030C8B420DD3FF221C
S1131700090212BA030C8B4202D31212090265D0E9
S1131710030B8B4219D300E0090AC30B8B4201D39C
S1131720CB03C01A5241830B8B4201D38B03C01AE3
S11317305241430B8B4201D34B03C01A5241030B5A
S11317408B4201D30B03C01A5241C30A8B4201D30B
S1131750CB02C01A5241830A8B4201D38B02C01AB6
S11317605241430A8B4201D34B02C01A5241030A2D
S11317708B4201D30B02C01A5241CDD2C3098B4212
S113178001D3CB01C01A524183098B4201D38B018F
S1131790C01A524143098B4201D34B01C01A524132
S11317A003098B4201D30B01C01A5241C3088B4277
S11317B001D3CB00C01A524183088B4201D38B0062
S11317C0C01A524143088B4201D34B00C01A524104
S11317D0411A00D201465241104670475DE0CA0FDB
S11317E000D04942031000D34042534000229C469B
S11317F003098B422DD3030A8B4212D3FC228901A5
S113180012BA030A8B420CD3890192118B4208D37A
S1131810890192118B4204D389013AD0921100E0DC
S11318208909C3098B4201D3CB01C01A52418309F0
S11318308B4201D38B01C01A524143098B4201D31D
S11318404B01C01A524103098B4201D30B01C01A48
S11318505241C3088B4201D3CB00C01A52418308C2
S11318608B4201D38B00C01A5241D9D243088B4218
S113187001D34B00C01A5241411A00D201466346BB
S113188052415B10104601D34042002B00D549421F
S1131890704763465B1000D3404201B5002000F05E
S11318A005F802BD0029F8D016E770477047C04616
S11318B070B500220C4B04000D0000F0AFFE0028B0
S11318C004D12000290000F00FFE70BD064B002259
S11318D02000290000F076FA00F006FE80231B06A3
S11318E09C466044F1E7C0460000E041F0B557462D
S11318F04E464546DE46E0B598460C034B000600CE
S1131900924687B0240B5B0DCF0F002B6CD0DD4AC1
S1131910934200D186E0420FE40014438022120473
S11319201443D94AC500944663440093002399465E
S11319309B46434642461E03D20F5B0050469046E8
S1131940360B5B0D00D178E0CE4A93421DD0CE49D0
S1131950420F8C4600996344F6008C46164380225D
S11319609C44120463461643C2000020009300996D
S1131970434601318C4649467B4001930F2900D9E7
S11319807EE0C24B890059588F465246009B324331
S113199000D056E1BB4900268C4663444946009377
S11319A00223194389460220E1E7434601933400A8
S11319B0150083465B46022B5ED0032B00D1F3E176
S11319C0012B00D018E1002200240025019B120500
S11319D02243DB071A432800110007B03CBC9046A1
S11319E09946A246AB46F0BD2500054300D141E12E
S11319F0002C00D1ADE1200000F01AFE010002002D
S1131A000B391D2310005B1A31003500083884405F
S1131A10D94085400C439E48831A0093002399467D
S1131A209B4686E70500254300D01CE1082200936D
S1131A300223002491469B467BE75246324300D161
S1131A400AE1002E00D176E1300000F0F1FD020041
S1131A500B3A1D2301009B1A52460839DA408E4086
S1131A60164352468A40009B8949181A03008C4643
S1131A706344002000937AE700240025814AA5E707
S1131A802F0C2D042D0C2B00110C1204120C53439B
S1131A909846130028007B439946484348448346AC
S1131AA040460B00000C824658467B435044029348
S1131AB0814506D99A4680235B029946CA44534617
S1131AC00293030C9B4643461B0400041B0C9846DC
S1131AD0030043440493330C99462B003604360C1C
S1131AE07343984633007B439A464B465D435F43BA
S1131AF043465544180C4019824503D980235B02A0
S1131B009A465744050CEB19059343461D042D0CC6
S1131B1000044019250C2404240C270057436A436D
S1131B2090462A003B0C9A464A436143414451443F
S1131B308344884503D980235B02984642443F048A
S1131B400B0C3F0C0904C919270098464B467743F0
S1131B505C436E435D433B0C9946A4194C44424498
S1131B600395A64204D980235B0298464544039515
S1131B70029B3F045B441E00834280412304984639
S1131B80059B3F0C4744984676188E42894147444A
S1131B9040423D18A846934649428A46C3449F4260
S1131BA0BF4180458041039BDA44984653464042F6
S1131BB07F420743240C934592418A4589413F194A
S1131BC0DC0D049B75021D43681E85415346524239
S1131BD049420A43BF184744F60D7F0235435A026F
S1131BE03C431543FB0100D4C1E001216A080D40C8
S1131BF01543E2071543640826496144002956DD6C
S1131C006B0709D00F222A40042A05D02A1DAA42B4
S1131C10AD416D4264191500E30104D580211E4ACB
S1131C20C900144061441D4A914200DD24E7620763
S1131C30ED08640249051543240B4A0DC6E60197D5
S1131C40B8E6104A0320944663444A4600930323AB
S1131C501A43914652468AE6494601231943894666
S1131C600026012083E60C220093032305009146FD
S1131C709B465EE604239946002300930133002427
S1131C809B4656E6FF07000001FCFFFF145C0000C2
S1131C900DFCFFFFFF030000FFFFFFFEFE07000037
S1131CA0002380240025444A019324038EE6012066
S1131CB0401A382800DD86E61F285BDD1F2223003A
S1131CC05242511ACB401900202803D03B4A6244A7
S1131CD0944025436A1E95412A000A4307210D00BA
S1131CE00024154011425BD00F2100241140042927
S1131CF053D0111D914292415242A4180A0023026A
S1131D004BD501220024002560E680231B031C42DE
S1131D1009D01E4207D133431C0343461500240B4C
S1131D20254A019352E68022120314432403224AD3
S1131D30240B01974AE600F07BFC03001A001532DD
S1131D4020301C2A00DC84E65646083B00229E40D4
S1131D5089E600F06DFC01000200153120321C29D7
S1131D6000DC4EE6340008380025844053E6009B2E
S1131D709C4641E71249220061442E008D408A406E
S1131D80C640691E8D4132432A43C4405307B6D02E
S1131D900F2111400429ACD1B1E765076402240B7B
S1131DA0D2081543002211E68022120314432403AF
S1131DB0014A240B0AE6C046FF0700003E04000067
S1131DC01E040000F8B557464E464546DE4604005C
S1131DD0E0B51F0010000B03620F4E00CD0F5B0A2D
S1131DE039031343490AE200440F2143C24C91468C
S1131DF09246C0007A008046760D520DFF0FA24233
S1131E0000D1B4E001246740BB46BD4200D188E064
S1131E10B41AA446002C00DCB2E0002A00D1C5E0CC
S1131E20B54A964200D18BE28022120411436246E5
S1131E30382A00DDA1E11F2A00DD16E220270C006C
S1131E40BF1ABC400200A0466446B840E240444683
S1131E5014430200501E82416046C14022435B1A73
S1131E6049468C1AA145924152429B1A98464346D0
S1131E701B0200D417E143465B025B0A98464346C3
S1131E80002B00D16CE1404600F0D2FB0200083A7E
S1131E90202120004346891A9340C84094400343BC
S1131EA0964200DD57E1961B711C1F2900DDCBE132
S1131EB0202218002600521A94409040CE40CB4075
S1131EC0621E94413043984600260443630709D0B8
S1131ED00F232340042B05D0231DA342A4416442B5
S1131EE0A0441C0043461B0200D4DFE0824B0136B1
S1131EF09E4200D1FBE04246804BE4081A401300A6
S1131F00710552075B0222431B0B490D0905ED07BE
S1131F101943294310003CBC90469946A246AB465F
S1131F20F8BDB41AA446002C58DD002A00D19EE066
S1131F30714A964200D13BE1802212041143624669
S1131F40382A00DDC1E01F2A00DCBBE10C00203A86
S1131F50D44022006446202C04D040273F1BB940C3
S1131F60084380464446611E8C411443B1E00C0092
S1131F7004432AD0BB46BD422DD0614CA446B44490
S1131F806446002C5CD0941BA446002E00D015E1BE
S1131F904D461D4300D1C3E1651E012C00D10CE266
S1131FA0554EB44200D1F8E1AC460EE10A000243BA
S1131FB000D136E12200013A012C00D1C6E14E4C99
S1131FC0A44500D1F4E0944631E701246740BB46C0
S1131FD0BD4200D01CE74A4CA446B4446446002CDD
S1131FE000D1CFE0941BA446002E00D15CE1424E08
S1131FF0B24200D1ECE18026360433436446382CE7
S113200000DDB3E11F2C00DD38E22026361B1C0066
S1132010B4404F46A0466446E74044463C434F46DE
S1132020B7403E00771EBE4134436646F340C918AC
S1132030241884429B415B429846160088444EE033
S1132040304A741C144200D0D6E04A461A43002E8B
S113205000D05BE1002A00D1A5E10A00024300D0D0
S1132060BBE14A465907D2080A43DB0827E00A00C5
S1132070024300D174E12200013A012C05D01E4C28
S1132080A44500D194E0944659E748444845924118
S11320905B189846040052429044434602261B02B1
S11320A000D5C4E0013E630700D011E74346B446BF
S11320B05907E2080A43DB080F498C4540D06146C2
S11320C01B0349051B0B490D20E701430C00611E4E
S11320D08C414C444C45924152429046984443466C
S11320E01B02E0D5044B01369E4200D09FE0310034
S11320F0002300220AE7C046FF070000FFFF7FFF1E
S113210001F8FFFFFE070000002A00D160E10A0089
S113211002434DD04A465C07D20822438024DB08A0
S11321202403234207D0CE08264204D15D4633005F
S1132130C20849070A43510FD200D20849070A438B
S11321401100194300D1C8E1802109030B431B038B
S1132150D5491B0BDAE6D549B61A0B409846B5E6C5
S1132160200000F065FA020018321F2A00DC8FE616
S1132170230008388340002492E608430200501EDE
S113218082416DE6CA4C721C224200D0ADE04A4640
S11321901A43002EB8D1002A00D158E10A000243A4
S11321A000D059E14A465907D2080A43DB0886E7BA
S11321B04A465907D2080A43DB08C1E7BA4DAA4286
S11321C000D11EE180252D042B436446382C5DDCB0
S11321D01F2C00DDD0E0202567462D1B4E461C0039
S11321E0FE40AC4034434E46AE403500FB406E1ECC
S11321F0B541C91A2C434EE04A46141AA1459241EE
S1132200524290465F1A3A004746D21B9046120249
S113221000D58BE04246224300D030E6002300255F
S11322204DE74A465907D2080A43DB0844E74246C9
S11322309E4B61081A401300012214400C43DA0734
S11322405B089846144341E61A001F3EF24016000C
S1132250202903D04022511A8B401C43621E944112
S113226000233443984600261DE70C00203AD4404E
S113227022006446202C04D040273F1BB940084369
S113228080464446611E8C412243E9E54C46234383
S11322901C00631E9C41041BA0429B415B42CB1A61
S11322A098465D461600E2E54E461E4300D1AEE078
S11322B0661E012C00D1FDE07B4FBC4200D107E13A
S11322C0B4469BE664462022121B0C00944007008F
S11322D09040A0466446421E90416246E740444610
S11322E0D1403C4304435B18F3E66F4CA24200D157
S11322F0D5E048445B184845894149425B18DC07EE
S113230040085B08984616000443CCE6002A00D037
S113231082E00A00024340D1802300251B0313E717
S11323204B07C2081A435D46CB08C5E64A46841AE1
S1132330A0429241CB1A52429B1A98465D469EE5B2
S11323404A465907D2080A43DB08F9E64A46141AF2
S1132350A14592415B1A52429B1A9846012686E592
S11323604A465907D2080A43DB08A5E64C462343EC
S11323701C00631E9C415BE665461E00203DEE404A
S1132380202C05D040252D1BAB404C461C43A246B7
S11323905446631E9C4134437DE74B07C2081A43ED
S11323A05D46CB08CCE60A00024300D136E74B0772
S11323B0C2081A435D46CB0881E64A46841AA04205
S11323C09241CB1A52429B1A98465D4601264EE52D
S11323D04B07C2081A43CB08B2E64A46141AA14571
S11323E092415F1A5242BA1A904612026BD54A467B
S11323F0841AA0429241CB1A52429B1A98465D46D7
S113240064E54B07C2081A435D46CB0898E64B07C0
S1132410C2081A43CB084FE60A00024390D04A464A
S11324205C07D20814438022DB081203134208D04D
S1132430CE08164205D1C0084907084304005D468A
S11324403300610FE2004907D2080A4378E64B07DC
S1132450C2081A43CB0832E648445B184845924107
S1132460984652429044434604001B0200D41AE6A4
S113247042460E4B01261A40904614E666461F005B
S1132480203EF740202C05D04026361BB3404C4656
S11324901C43A2465446631E9C413C43C8E51100BC
S11324A00023002232E5C046FF070000FFFF7FFF44
S11324B0FE0700004A461418844292415B1898466D
S11324C052429044E9E54246224300D1A6E6EAE5B9
S11324D04B07C2081A43CB0832E600220149130015
S11324E014E5C046FF0700000A0030B5134C530042
S11324F009030500090B00205B0DD20FA34204DD84
S11325000F48834202DD0F4BD01830BD80204003BA
S113251001430D48C01A1F2808DD0C48C31AD940CE
S11325200B005842002AF0D11800EEE7084CC540D1
S1132530A446634499400B002B43F2E7FE030000DA
S11325401D040000FFFFFF7F33040000130400009C
S1132550EDFBFFFF70B5002816D0C317C5185D400A
S1132560C40F280000F064F8114A121A0A2816DC75
S113257003002E0015339E400B23181AC540530543
S11325802D032D0B5B0D03E0002400230025002602
S11325901B052B43E40723433000190070BD0B389F
S11325A0854053052D0300262D0B5B0DF0E7C04637
S11325B01E0400008446101C62468C46191C6346A7
S11325C000E0C0461FB500F0FFF8002801D4002148
S11325D0C8421FBD10B500F049F84042013010BD9B
S11325E010B500F0F1F8002801DB002010BD012037
S11325F010BDC04610B500F0E7F8002801DD00204A
S113260010BD012010BDC04610B500F06BF80028C5
S113261001DC002010BD012010BDC04610B500F043
S113262061F8002801DA002010BD012010BDC04669
S11326301C2101231B04984201D3000C10391B0AEE
S1132640984201D3000A08391B09984201D30009B2
S1132650043902A2105C40187047C0460403020209
S1132660010101010000000000000000F0B54F4628
S11326704646D646944691461A03120B184DC0B5E9
S11326804C000F0392465A00060080463F0B01207F
S1132690640DC90F520DDB0FAC420AD0AA4203D01D
S11326A0944201D157450DD01CBC90469946A24690
S11326B0F0BD3D003543F7D1A242F5D152466546FF
S11326C02A43F1D10120C845EED1994206D0002C0D
S11326D0EAD13E433000461EB041E5E70020E3E77F
S11326E0FF070000F0B54E4645465746DE46040057
S11326F01800E0B516001B031B0B324D0F034A00F4
S113270099464300A446B0463F0B520DC90F5B0DDA
S1132710C00FAA4229D0AB4218D0002A2AD13C4388
S1132720A34665426541002B02D14C46264327D07F
S1132730002D15D1814228D00220013908400138EA
S11327403CBC90469946A246AB46F0BD4D462E434E
S11327502FD1002AEED13C4365426541002DE9D0DA
S11327600028EDD101204042EAE73D00254320D175
S11327709342EBD0002BDDD14C462643DAD1DBE784
S11327805B460020002BDBD0D6E79A420ADCE7DB6D
S11327904F45D1D810D000204F45D1D20029E1D0E7
S11327A00800CDE743425841022340421840013813
S11327B0C6E702204042C3E7C445BDD80020C44553
S11327C0BED2EBE7FF070000F0B54E46454657463C
S11327D0DE4604001800E0B516001B031B0B314D48
S11327E00F034A0099464300A446B0463F0B520DDE
S11327F0C90F5B0DC00FAA4211D0AB4214D0002AFE
S11328002FD13C43A34665426541002B14D14C466D
S1132810264311D15B460020002B17D010E03D0069
S1132820254312D193421CD14D462E430DD1002A8B
S113283004D13C4365426541002D0DD1814216D03F
S1132840022001390840013800E002203CBC9046D7
S11328509946A246AB46F0BD0028F7D1012040427C
S1132860F4E7002BEAD14C462643E7D1E8E79A4245
S113287006DD434258410223404218400138E5E74F
S11328809A42E9DB4F45DBD806D000204F45DDD224
S11328900029E3D00800D9E7C445D1D80020C445B5
S11328A0D4D2F5E7FF070000FEE7C0460A4A03005A
S11328B0116810B5002901D1084911601068084950
S11328C0C3188B4206D9FDF749FE0C23036001208F
S11328D0404210BD1360FCE75C0000205803002058
S11328E05803002083780220984280414042704778
S11328F0437A0020013B012B03D90B7801300133CB
S11329000B70704710B5002002F0ECFD002803D0D6
S11329100021080002F0DAFD10BD0000024A13682D
S1132920013313607047C0460401002037B500200E
S113293001F00CFDC02300240D4A9B0013600D4AD6
S11329400D4D13600D4A200013600D4B2C716C71FA
S1132950AC711A68FA239B0053430A492B6002F0B6
S11329600FFE2900200001AA02F04CFE37BDC0462C
S1132970189014541C9014545C01002000A01454AA
S113298084FEFF1F2C01002010B5002001F0E3FCA1
S11329908023054A9B001360044A00200449136005
S11329A002F040F810BDC0460CA0145410A01454FA
S11329B0080100200023364A70B51360354A01200F
S11329C01360354A0133FF331360344A34491360CA
S11329D0344A1360344A1360344A1360344A13602F
S11329E0344A1360344A14782500054004424DD01B
S11329F00B60324932480B600021016031480160AC
S1132A0031490B6031490B6031490B6031490B602E
S1132A1031490B6031490B601378DB0703D5022081
S1132A20FF3001F015FF092001F020FF0C2001F018
S1132A301DFF052001F01AFF082001F017FF0620F2
S1132A40FF3001F013FF0E20FF3001F00FFF832051
S1132A50400001F00BFF0820FF3001F007FF0C20BD
S1132A60FF3001F0F5FE0220FF3001F0FFFE802070
S1132A70400001F0FBFE072001F0F8FE062001F003
S1132A80F5FE8020400001F0F1FE70BD0D60B0E75E
S1132A900C9014541090145414901454189014540A
S1132AA004A014541C9014542090145424901454CE
S1132AB03090145400A0145480FEFF1F08A0145436
S1132AC00CA0145410A0145414A0145418A014549A
S1132AD01CA0145428A014542CA0145434A014542E
S1132AE010B5092001F0C2FE10BD10B50C2001F094
S1132AF0BDFE10BD10B5FFF7F3FFFFF7F6FF83200F
S1132B00400001F0A5FE024B186801F078FA10BDF0
S1132B1088FEFF1FF0B5BBB029AC072200212000BE
S1132B20FDF7D6FDF84A01272E92032219AB319303
S1132B301BAB32931DAB349321AB369323AB37934A
S1132B4025AB389327AB1FAE15A9002039932EABC4
S1132B501A713091277017933394359601F0EEFB78
S1132B60380001F0EBFB8022E84B12021A6001F0FE
S1132B7065FA002300971A001900180000F038FFC6
S1132B80E349002000F028FFC82001F038FAE149A9
S1132B90002000F021FFC82001F031FADE490020B6
S1132BA000F01AFFC82001F02AFA3B00DB4A022198
S1132BB0DB4801F067FA3900380001F06FFA0020B1
S1132BC002F0CEFB6C210025D64B28002B9312ABD0
S1132BD05B181D80023112AB5B182BA91D702C975A
S1132BE002F0EAFB3A00290015A8FDF771FD322036
S1132BF0299B12A91D93A2880A86A27909180A7032
S1132C000322063812A909180A701F93A28812A970
S1132C10B280A2790A38B271052232700226199361
S1132C20A2880A84A27909180A7012AA16771B933B
S1132C30A28812A90A85A279083009180A70042208
S1132C40063812A909180A702193A2881C3012A907
S1132C5009180A80A279801912A909180A70082291
S1132C60063812A909180A702393A2880C3012A9F5
S1132C7009180A80A279801912A909180A70092171
S1132C80063812AA121811702593A3880C3012AAC0
S1132C9012181380A379801912AA121813700A2328
S1132CA0063812AA12181370542212AB9B181D7006
S1132CB017AA3B0031A801F097FB2900300000F06F
S1132CC0B7F99949994801F0A9FDFFF773FE082067
S1132CD0FF3001F0BDFDC82001F091F90820FF305C
S1132CE001F0C4FDC82001F08AF90820FF3001F08A
S1132CF0AFFDC82001F083F90820FF3001F0B6FDD4
S1132D00C82001F07CF90820FF3001F0A1FDC820A3
S1132D1001F075F90820FF3001F0A8FD182084495E
S1132D2000F0FFF96820834900F006FA1020824978
S1132D3000F0FCF91D20814900F004FA4320804989
S1132D4000F005FA0E207F4900F006FA6A207E4959
S1132D5000F008FA77207D4900F00AFA5A207C49ED
S1132D6000F00AFA7B49682000F00CFAFFF7C2FE73
S1132D7000F096FA2800FFF707FE00F0EFFC86B299
S1132D8000F096FC642387B27B439BB2039300F06C
S1132D902DFC04000F90109011900A900C900D9748
S1132DA00E9706970B97049605960996079608962C
S1132DB000F0D4FC83B205000A2118001293FEF738
S1132DC087FCA8B28BB20A211393FEF7FBFB139B7B
S1132DD082B2614918A8FDF7B9FD18A9002000F0D6
S1132DE0F8FF5E4BADB2186801F009F90022FF212B
S1132DF0100000F039FA00F031FA082301212A20EA
S1132E0018AA00F0DBFB022301214220544A00F0FF
S1132E10D5FB049B0521E81AFEF75EFC3618B6B212
S1132E20731CAB4200DBB6E001234E4A190051206B
S1132E3000F0C4FB00F03CFC83B21A004A4916A817
S1132E401D000493FDF782FD16A9002000F0C4FDC7
S1132E50424B186801F0D3F800224521FF2000F00E
S1132E6003FA00F0FBF905231621362016AA00F018
S1132E70A5FB012344203D4A162100F09FFB049B3F
S1132E800D9A64209A1A14235343039A4543D31882
S1132E909BB20393F533FF339D4200DC84E00123AE
S1132EA01621304A1A3800F089FB00F09FFB0322F8
S1132EB02F4B05001A700022FF21100000F0D4F9F6
S1132EC000F0CCF90F9B0521E81AFEF705FC241845
S1132ED0A4B2230032339D4273DD0223254A3021FC
S1132EE0362000F06BFB0222214B1A70109B0F93CB
S1132EF0119B10930A9B11930C9B0C950A930E9BA8
S1132F000D93069B0E9337E0F12800004803002040
S1132F10545C00006F5C0000755C000064FEFF1FE1
S1132F2090FFFF1FE0070100A0FEFF1F90FEFF1FA0
S1132F308400002094000020A4000020F40000205D
S1132F40C4000020E4000020D4000020740000200D
S1132F50B4000020640000207C5C00007CFEFF1FA5
S1132F60825C00008C5C0000855C0000895C0000D1
S1132F70600000208B5C00000B9B0B970693059B65
S1132F80049F0493099B0593079B0993089B07934C
S1132F90129B08930CE7731EAB4202DD01230E4A19
S1132FA044E701230D4A41E7039BF53BFF3B9D4268
S1132FB004DA0123084A16214A2074E70123074A48
S1132FC0F9E72300323B9D4202DA0223044A86E7F2
S1132FD00223044A83E7C0468F5C0000925C000031
S1132FE08E5C0000915C00001FB5040001A9002064
S1132FF002F00AFA694601A802F044F9009B684607
S11330001C1901A9009402F0C5F8012201A90020AD
S113301002F026FA1FBD00000022034B1A60802232
S1133020024B1206DA67704700A01C5804E100E066
S113303070B50D000A2408281CD8FEF7AFFA051D48
S11330402A3F54676C6F5C0001F064FB052401287F
S113305010D0FFF7E1FF2800FFF7C6FF00210800AA
S113306001F0E4F901210400002001F017F8002C1C
S113307022D10024200070BD01F04CFB062401285D
S1133080F8D0FFF7C9FF2800FFF7AEFF00210120A9
S1133090E6E701F03FFB08240128EBD001F07CF8BF
S11330A0002803D00121002000F0F8FF00210220B5
S11330B001F0BCF90028DCD00924DBE701F02AFB8D
S11330C007240028D6D0FFF7A7FF2800FFF78CFFBE
S11330D00021032001F0AAF9040001F01BFB0121E7
S11330E00028C4D1C1E7FFF797FF2800FFF77CFF52
S11330F000210420EEE70021082001F097F9041EC6
S1133100DAD10121080000F0C9FFB3E7002105204E
S113311001F08CF9D0E700210620F9E7002107200F
S1133120F6E7C223FF3308704B607047014B087009
S11331304B60704701700000014B08704B60704792
S1133140010E0000C223FF3308704B607047052353
S113315008704B6070470000014B08704B6070476B
S113316001700000014B08704B607047010E0000B5
S1133170032308704B607047014B08704B60704725
S113318005000030012308704B60704737B50E25E9
S1133190FF350400280001F05BFB0A2000F02FFF3C
S11331A0280001F063FB0C2001F060FBFA23084ABD
S11331B09B00147000210193012308000093054B28
S11331C002F07CFA0400280001F042FB20003EBD1E
S11331D0750100206B01002073B50E25FF35040036
S11331E028000E0001F034FB0A2000F008FF28003C
S11331F001F03CFB0C2001F039FBFA2300219B0079
S11332002200080001930096044B02F057FA0400D0
S1133210280001F01DFB200076BDC0466B01002094
S113322000B50D4A030010780138032812D8FEF7C0
S1133230B5F902070B0F02221A6001230B6000BDCF
S113324001221A600223F9E702221A600A60F6E7F3
S11332500622FAE70122F8E76A010020014B1880F0
S11332607047C04666010020C008800183B2890807
S11332700B435B0198B2D2081043704710B5252068
S1133280FFF784FF0020FFF781FF0020FFF77EFF98
S11332905F20FFF77BFF3F20FFF778FF10BD0000A2
S11332A0C02310B58024504A9B0013604F4A640029
S11332B01360FFF73BFB4E4B20001C604D4B1C6022
S11332C04D4B1C6001F0C4FA642000F098FE20000D
S11332D001F0CCFA642000F092FE200001F0B8FA6C
S11332E0642000F08CFEAE20FFF750FFA020FFF713
S11332F04DFF7220FFF74AFFA120FFF747FF002090
S1133300FFF744FFA220FFF741FF0020FFF73EFF35
S1133310A420FFF73BFFA820FFF738FF3F20FFF76B
S113332035FFAD20FFF732FF8E20FFF72FFFB020CF
S1133330FFF72CFF0B20FFF729FFB120FFF726FF33
S11333403120FFF723FFB320FFF720FFF020FFF722
S11333501DFF8A20FFF71AFF6420FFF717FF8B2059
S1133360FFF714FF7820FFF711FF8A20FFF70EFF05
S11333706420FFF70BFFBB20FFF708FF3A20FFF79D
S113338005FFBE20FFF702FF3E20FFF7FFFE872068
S1133390FFF7FCFE0620FFF7F9FE8120FFF7F6FE9B
S11333A09120FFF7F3FE8220FFF7F0FE5020FFF795
S11333B0EDFE8320FFF7EAFE7D20FFF7E7FEAF2056
S11333C0FFF7E4FE2620FFF7E1FE0120FFF7DEFE13
S11333D0FFF754FF02220020084B1A70084B033AEF
S11333E01880084B1A8010BD209014542490145453
S11333F034A014543090145400A014546A010020D2
S1133400640100206601002070B505000C00252031
S11334101600FFF7BBFE2800FFF7B8FE2000FFF7F9
S1133420B5FE0620704328181234C0B2FFF7AEFE72
S1133430E0B2FFF7ABFE70BDF0B50E00002187B01F
S113344007000092019307220CAB04A81D88039186
S1133450FDF73EF9262303AC022120002380FFF769
S1133460BBFE212323703B1C5F2F00D95F236370B5
S1133470331C3F2E00D93F23A3706B46009A1B7860
S11334805F2A00D95F23E3706B46019A1B793F2AB8
S113349000D93F232371EB0A5B0063716B059B0E1C
S11334A0A3713E236D001D4008212000E571FFF744
S11334B093FEFA20400000F0A2FD07B0F0BD00002A
S11334C0F0B53A4B14003A4A87B0107019700A2CC0
S11334D005D1002009311070197007B0F0BD250026
S11334E01F3D602DF9D8592806D900200931C9B2E9
S11334F0107035290DD8197005A904A8FFF790FE9E
S11335000622624300242B4BC03AD31802930025B1
S11335101BE01870F0E7029B09271B780393002334
S1133520002607E06A46127B52B2002A21DA0133F0
S1133530DBB201360599B142F4DC039A013F520033
S1133540D2B20392002FEBD10135049B9D42E2DB02
S1133550029B013401330293062CD8D105A904A897
S1133560FFF75EFE049A124B54431A78A4181C7099
S1133570B3E7002BDDD004980D4A604312787943F9
S113358080180A4A40191278023B89180A4A891B92
S11335901288C9B2C0B2CB180139DBB20092C9B2E9
S11335A00200FFF749FF0023C3E7C046690100207A
S11335B068010020945C000066010020F7B50192C8
S11335C0DAB206000F001D000024FFF71DFF0620DD
S11335D060433018C0B2AC4200DBF7BD019B390038
S11335E01A5DFFF76DFF0134F1E700003623F0B5F3
S11335F089B006AC2380234B234D1B6821006360F4
S11336002B68029302230193204B009300231A009A
S1133610180001F045FB1E4B1E4F1F49187000286F
S113362001D000201D4900F0D7F9386800F0E7FC0C
S11336302B6805AE029302230193002321001A0094
S11336401800009601F039FB0025154B0400187092
S1133650A84214D13578737812492D021D4300F025
S1133660BBF9737832781049200000F0B2FB2A00CD
S113367020000E4900F0ADFB386800F0C0FC2800C3
S113368009B0F0BD74FEFF1F78FEFF1F8CFEFF1F04
S1133690770100207CFEFF1FF75E0000D45E00006F
S11336A076010020175F0000345F00004A5F0000CD
S11336B0E522F0B589B005AB1A8006ACA53A2280A4
S11336C0204A214F1268022507923A68009300238A
S11336D021001800029201951A0001F0E1FA060097
S11336E00F2000F08CFC3B6801950293002304AD8D
S11336F01A0021001800009501F0DFFA002E02D014
S11337000024A0421BD12B786C781B0223437D2418
S11337105C43240C0D490020063C00F05DF9A4B282
S11337206B782A780A49002000F053FB220000201D
S1133730084900F04EFB084B186800F060FC2000BC
S113374009B0F0BD74FEFF1F78FEFF1F505F00003C
S1133750345F00004A5F00007CFEFF1FE322F0B5E7
S113376089B005AB1A8006ACA33A2280284A294FB7
S11337701268022507923A6800930023210018007A
S1133780029201951A0001F08BFA06000F2000F056
S113379036FC3B6801950293002304AD1A00210016
S11337A01800009501F089FA002E02D00024A042EE
S11337B02BD12B7868781B021843FEF7CBFE164AF0
S11337C0164BFEF793F80022154BFEF78FF8154AB7
S11337D0154BFEF7F7FA0022144BFEF787F8FEF7B5
S11337E067F8134984B2002000F0F6F86B782A7861
S11337F01049002000F0EDFA220000200E4900F0EC
S1133800E8FA0E4B186800F0FAFB200009B0F0BD8E
S113381074FEFF1F78FEFF1FD7A3703D0AF76540B3
S11338200000F03ECDCCCCCCCC6C47400000244012
S1133830715F0000345F00004A5F00007CFEFF1FE0
S11338400369C268934201D880681B18013B981A27
S11338507047F7B58368C46801931F1B436805006C
S11338600E001819A418974207D83A00FCF7DCFE9A
S1133870019B6868E41A2200F119FCF7D5FEEC609C
S1133880F7BD0023F7B506001700C5680191009342
S11338903369B4689D421FD2013B5B1B641BBC426D
S11338A000D93C009C4200D91C00736822005819BE
S11338B00199FCF7B9FE009B2D191B190093019B7C
S11338C03F1B1B190193B368AB4200D10025F5607F
S11338D0002FDDD10098FEBD1B19DDE7022310B5D2
S11338E00F4C104A236163610F4BA261E361C8234B
S11338F0A2640E4A2362E26400230422A362636288
S1133900E362A3656365E36522650949E01DFDF78C
S11339103DF820000749FDF739F82023A37110BDB5
S113392078010020955F0000F4010020F0010020E0
S11339309E5F0000A25F0000F8B516001822451C27
S113394055434243164B0F005D199B18DC6A012C4A
S113395010D0022C1BD0002C1FD12800FFF770FFC1
S1133960864205D8320039002800FFF772FF340080
S11339702000F8BD2800FFF763FF3400864200D919
S11339800400220039002800FFF763FFF0E732004B
S11339902800FFF776FF0400EAE70024E8E7C046C2
S11339A078010020F8B50B4B04001B780E001700BB
S11339B0002B01D1FFF792FFEFF31085012181F372
S11339C010883A0031002000FFF7B6FF85F3108815
S11339D0F8BDC0467801002070B5050008000C0051
S11339E0FCF7DCFF210002002800FFF7DBFF70BDBD
S11339F0F7B5164C0193237805000F001600002B31
S1133A0001D1FFF76BFF2369AB421CD9EFF310829E
S1133A10012181F31088002D0CD01823691C59430F
S1133A206B43675061184E600199E31819620021D5
S1133A309962596218204543089B6419E36282F332
S1133A4010880020FEBD01204042FBE778010020E1
S1133A50826810B504004068531C834205D820686E
S1133A608154A360E3680133E360A26863689A4207
S1133A7009D121682069FFF795FFA368984203D014
S1133A8001235B42E36010BD0023A360FBE7000059
S1133A90F0B5050017000800012685B00A9C0291C4
S1133AA00093B84219D2009A0196964200D201922C
S1133AB001230B9A1A4003920B9A1A4202D1002C4A
S1133AC010D10024EB680126002B4BDB009B012B5B
S1133AD01FD9013B00937E43F8E73900FDF772FDDF
S1133AE00136DEE70B9B20269B0704D5009B10368E
S1133AF0002B00D0103E019BA342E3D231002800EA
S1133B00FFF7A6FFEB68013C002BDBDB002CF2D1B6
S1133B10D7E731000298FDF755FD8742DBD90298BB
S1133B203100FDF7D5FD114B0291195C2800FFF718
S1133B308FFFEB68002B05DB39003000FDF742FDF9
S1133B40BE4211D2039B002B0CD0002C0AD0019B47
S1133B50A34207D220212800FFF77AFFEB68013C3B
S1133B60002BF2DA05B0F0BD0600D8E7A95F00002B
S1133B70F0B59FB00EAB099340230A9300230E00C7
S1133B80150007900B930D900C93317801360029A2
S1133B9007D10C9B0393002B00DD09E10C981FB0A7
S1133BA0F0BD252900D0B3E000270822042006E058
S1133BB0302B0DD1022300E001231F430E00337884
S1133BC0711C2D2BF8D0F3D8232B10D02B2B0CD019
S1133BD000240A213378721C18003038092808D8C8
S1133BE04C43303C16001C19F4E70743E6E717433F
S1133BF0E4E7002103912E2B0ED116000A2032781F
S1133C00711C1300303B092B06D8039B0E00434361
S1133C10303BD3180393F2E7042331780A000136CA
S1133C209A43682A01D13178F8E7782909D86F29AD
S1133C300BD8632967D017D8252969D0582900D112
S1133C4095E00C9B002BA0DAA3E770390800082943
S1133C50F7D8FDF7ADFCA500F6FFF6FF9400F6FFDC
S1133C608300F6FFF6FF8C006429EAD12B681A1D45
S1133C701B682A60DA1798180493012350400593AF
S1133C80092849DC039B059A0693934200D20692C5
S1133C90002C05D0049B002B01DB7B0700D5013CE5
S1133CA002231F4202D0039B002B05D001231F4295
S1133CB002D1002C36D100240C9B0593002BC0DBD1
S1133CC0049B002B3ADA2D215B42049309A8FFF7E9
S1133CD0BFFE0C9B002BB4DB03233B40022B05D11E
S1133CE0039B002B02D1002C2CD100240C9B0593A8
S1133CF0002BA6DB0A22039B04990197009409A8D0
S1133D00FFF7C6FE9DE72B6819681A1D2A60C9B221
S1133D1009A8FFF79DFE94E70A21FDF7DDFC059B4A
S1133D200133ACE7069BA342C6D2202109A8FFF7C2
S1133D308FFE0C9B013C002BBBDABDE77B07C8D58B
S1133D402B21C3E7069BA342D0D2302109A8FFF759
S1133D507FFE0C9B013C002BC5DAC7E70A222968C9
S1133D6001970B1D2B60039B00940968C7E7296822
S1133D7001970B1D2B60039B00941022F5E72B6821
S1133D801A1D2A601C6821780134002900D158E7E3
S1133D9009A8FFF75DFE0C9B0393002BF3DA50E7B1
S1133DA029680B1D2B600023019308330093E4E77B
S1133DB00B9A002A03D007980EA9FFF7F3FD0C9B7A
S1133DC003930B9B0493049A039B944663440C93C0
S1133DD0E4E60EB403B503AB02CB01AA0193FFF7EB
S1133DE0C7FE02B008BC03B0184710B5002000F0AD
S1133DF04BFD10BD10B5002001F090FB10BD00007C
S1133E00082310B5164A9178194202D091780B43D1
S1133E109370882100222220124B49015A501249E2
S1133E20124C0870802012494002585019681148F9
S1133E3001401960195910480840C0218904014300
S1133E40195180210D4B1A7219767F391A705970E5
S1133E500B490A700C3299791142FCD110BDC0464D
S1133E6000D007400070044000E007400410000048
S1133E7044100000FFFFF3FFFFFFFFF00040064087
S1133E80005006401249134810B5814205D0002263
S1133E90114B9B089B009A420FD1104B104A99601A
S1133EA0002310491048521A9A420AD100210F4B9C
S1133EB00F4AD21A013A08D210BD84588C500432E9
S1133EC0E9E7CC5CC4540133EEE719700133F1E740
S1133ED000000000000000000000000000ED00E011
S1133EE0F46200004C61000000FEFF1FA8FFFF1FEA
S1133EF05803002003004170002018705860986037
S1133F00704710B5437804000120FF2B08D000F05F
S1133F1033FA63780133DBB2637000F021FA0020D6
S1133F2010BD70B504000D0000F026FAE1682943C5
S1133F30E16000F015FA002070BD000000220A4B79
S1133F409A641A0040329A631A0030329A621A0054
S1133F5020329A611A0010329A60044A1360044BAA
S1133F609B60DB607047C046C0020020BC0200209A
S1133F70100300200022024B1A60186880B27047B8
S1133F800C007C5070B5437804000D00002B0BD05E
S1133F90002500F0F1F96378013BDBB26370257012
S1133FA000F0DEF9280070BD02200029FBD0237840
S1133FB0002B17D0FFF7DEFF6368A268834204D8A2
S1133FC0C01A824206D30320EDE7C01A80235B02A5
S1133FD0C018F6E700F0D0F90023237000F0C0F910
S1133FE00220E0E74B1CEED000F0C6F90123237059
S1133FF000F0B6F9FFF7BEFFA5606060E3E770B5B7
S11340000500FFF7B7FF802604007602FFF7B2FF32
S11340100300844203D8031B9D42F7D270BD301BBA
S1134020C318F9E710B5012801D100F0A5F910BDB6
S113403010B5012801D100F093F910BD10B5FFF7B8
S11340407DFF01230020084A08491360084A094CEF
S11340501060086004212160074C216007490B604F
S113406007490860136010BD388004500000845074
S113407000000450000004510400045104000C50DA
S11340800000045310B5044C206021710020A2608C
S11340902373637310BDC046200300200422F0B5CF
S11340A087B005AC3B4E019002912070617033796A
S11340B00092834226D90022337B150073730123B7
S11340C00092A3700393334F3B7BAB421DD8009BFC
S11340D0002B02D0029B012B48D10120FFF7A2FF45
S11340E00C20019B002558433368181800F0B0F8E1
S11340F0019B012073710226FFF79AFFA6703B7B98
S1134100AB421AD8009807B0F0BDBA68AB009B5810
S1134110002B0FD01A7903990A420BD020001A6899
S113412099689047002805D0029B7D73002B1BD013
S1134130052300930135EDB2C5E7BA68AB009B587F
S1134140002B0ED01A7932420BD020001A689968DD
S11341509047002805D0029B7D73002B17D00623BF
S113416000930135EDB2CAE7052300930023A37041
S1134170013DEDB2FF2DC5D0064BAA009B68D35874
S1134180002BF5D020001A6899689047F0E70623C1
S11341900093B7E720030020014B58797047C046CD
S11341A02003002013B50400002021780190022987
S11341B020D0032922D0012925D1227901AB14482A
S11341C000F07CFF002814D1A3795A1E9341114AB0
S11341D0DB01137063785A1E93410F4A5B0013701E
S11341E0A2780E4B1A70E2780D4B1A7062790D4B5F
S11341F01A7016BD0100227901ABE0E701A9044859
S113420000F09EFFDEE701A9014800F03BFFD9E77B
S11342100040064018408653004086500040065037
S11342200140065018401650F821084A43099B00E3
S11342309B180905C2050A40134380225205134303
S11342401F2210401E3A82401A60704728800440A2
S1134250072373B5009300230400104D1A000121B5
S1134260280001F04DF92000FFF79CFF637A280035
S113427000930023217A1A0001F042F9E379084AF5
S11342809B041360074BA17A1D68280000F074FF9B
S11342902800E17A00F077FF002076BD007004402A
S11342A000700C590860000010B5054800F0AAFE23
S11342B0044B1968C9B20131FDF784F910BDC04639
S11342C00040064044801C5E10B5FFF7EDFF10BDB2
S11342D010B5054800F096FE044B1968C9B20131C7
S11342E0FDF770F910BDC0460040064044801458E4
S11342F010B5FFF7EDFF10BD0B4B1B68DBB2022BB3
S11343000CD0032B0DD00020834206D1074A10683D
S113431080221202904200D018007047044B1868A3
S1134320FBE7FA208000F8E700700C5948030020EE
S11343304C03002010B5FFF7DFFF10BD10B5024B92
S1134340185CFFF771FF10BDB95F000010B576204F
S1134350FFF76AFF10BD10B56620FFF765FF10BDBB
S1134360044A1368002B04D0013B1360002B00D1D6
S113437062B670473003002072B6024A13680133F4
S1134380136070473003002010B5064C064801F056
S113439025FB042801D1002010BD013C002CF5D1DF
S11343A00320F9E7EA03000000E0074010B50B4BD7
S11343B00B490A78002A07D0084C0A4801F00EFB82
S11343C0012806D1002003E0013B002BF1D103209A
S11343D010BD013C002CF0D1F9E7C046EA0300000F
S11343E002D0075100E00740F7B507000E001500A2
S11343F001200193002F15D0002913D0FFF712FEDE
S1134400094C102200212000FCF762F92760267174
S1134410002D03D0019BA560237363730120FFF774
S113442007FE0020FEBDC04634030020F0B5B14CA9
S11344308DB002900391237B01206373FFF7F2FD9B
S11344402379029A934206D80120FFF7F1FD02274F
S113445038000DB0F0BD029A23689200D35809AC1D
S11344601D780193039B2A002372029B2370019BF6
S1134470636002239A430492012A01D0052D0AD1D4
S113448001219D4801F0FEF9002807D10120FFF722
S1134490CFFD0127DCE70321072DF2D801230027F4
S11344A063723C000593934E337BA3422AD80120C8
S11344B0FFF7BEFD914800F0C9FD049B012B4AD1D2
S11344C00138022835D9039B012B00D00DE10627C2
S11344D00120FFF7A7FD0023012609AD6B72013C03
S11344E0E4B2FF2C00D1AFE0824BA2009B68D3580A
S11344F0002BF4D01A793242F1D028001A68996856
S11345009047ECE7B268A3009B58002B0ED01A79B1
S113451005990A420AD01A68996809A890470028A0
S113452004D0039B04277473012BC0D10134E4B27B
S1134530B9E7FFF7DDFE724B9842C4D8FFF7B4FE2B
S1134540704EB042BFD8FFF7C3FEB042BBD8FFF7EE
S1134550BBFEB042B7D8039B012B00D0C1E00A2DAB
S113456000D9BCE02800FDF719F8060A0D1E879A49
S11345707B822F737800002207AB1A702DE0032290
S113458007ABFAE75C4801F029FA012808D00021BA
S1134590594801F087F9FFF709FF071E00D057E7D4
S11345A0012207ABE9E7544801F018FA042808D0BF
S11345B00221514801F076F9FFF7E6FE071E00D00C
S11345C046E7042207ABD8E7072207AB1A80019A13
S11345D0D2789A70019A1279DA702B00083B022B78
S11345E006D8019B06AA5B799372019B9B79D372CF
S11345F0019B5B78002B0AD0012D08D9019B022274
S11346009978414B00294DD019690A431A613A48F7
S113461007A901F06BF9002800D00327002D45D12C
S1134620FFF7C4FE071E00D012E700270120FFF7A2
S1134630F9FC029B2F4D0024AB73022309AE737265
S113464001932B7BA34236D80120FFF7F1FCFFE650
S1134650082207ABFF321A80BFE72C4A07ABFAE700
S1134660022207AB1A700222FF329A80B5E70222B7
S113467007AB1A70264AF8E7022207AB1A70013A10
S11346801D489A8001F0AAF90128A6D000211A48F1
S113469001F008F9FFF78AFE071E9ED0D8E605222E
S11346A007AB6AE7196991431961B0E7012DBDD1E0
S11346B0FFF76AFEB6E7AA68A3009B58002B0BD04D
S11346C01A7901990A4207D030001A68996890470C
S11346D0002801D005276C730134E4B2B1E7032745
S11346E0B6E6002F00D13AE7F2E6002F00D0EFE65D
S11346F0EDE6C0463403002000E0074000400640D9
S113470040420F0080841E0000ED00E0070300001B
S11347100102000010B5064801F060F90300002012
S1134720012B03D00B30042B00D10A3810BDC04636
S113473000E00740F7B5FF2403681D4A1E0A26401F
S11347401C40B3009F581B4A05009B58300001933E
S1134750FFF7F4FD00222100380001F047F9019B26
S1134760A400E41884232A795B05234352001A60C9
S113477080236A795B0523431A609023AA795B0539
S1134780234312011A600C4B1C43EB791B04236076
S1134790EB79002B0AD0094B9B57002B06D01F2224
S11347A013401E3A9A401300054A1360F7BDC046F1
S11347B00C60000014600000000018181C60000069
S11347C000E100E0F8B5FF2405000368114A180A67
S11347D020401C4083009F580F4A9E58FFF7AEFDAF
S11347E038002100012201F001F96A682100380033
S11347F001F00BF988232A7AA400A4195B0523434A
S113480092001A6098235B051C436B7A9B0123601A
S1134810F8BDC0460C6000001460000070B50C00C8
S1134820002807D1002C0FD170BD05000835FFF713
S113483081FF280003680133F7D1F3E72500200046
S11348400C35FFF7BFFF2C0023680133F6D1EBE7EB
S1134850FF22030A044913409B00595801231040C6
S113486083404B607047C0460C600000FF22030A7F
S1134870044913409B0059580123104083408B6026
S11348807047C0460C600000084B8200D258942345
S113489010B502325B0513431B78002B02D000F0E5
S11348A019FA10BD00F06CFAFBE7C046BC5F0000CB
S11348B0020080230C325B0513431A78002AFCD0D3
S11348C00171704770B50D00084B8000C45820007A
S11348D029001830FFF756FB0328F8D0002801D030
S11348E004232374207CC0B270BDC046440300205E
S11348F010B5104B8000C458E37C002B05D0237CFA
S1134900052B02D0237C042B0BD10B4B1858982376
S1134910821C5B05134300221A7001F0E5F80123A1
S11349206374A37C002B03D020001830FFF7E9FA4E
S113493010BDC04644030020BC5F0000F0B5170062
S1134940002289B005930EAB1B7805000393830006
S113495032481E5832481C5807AB1A80A37C880A78
S113496004930223FF3363828B0A0193CBB21E2884
S113497001D11A000B0A5B00D8B2019B00211E2B47
S113498005D08F4203D1012303995B1A59B2014325
S1134990CBB202930299019807AB197001211E282A
S11349A001D15A704918A3603000E1600299FFF701
S11349B07FFF28000F99FFF785FF237C002B0CD184
S11349C0002F0AD0059BA760E36030003978FFF719
S11349D06FFF28000F99FFF775FF237C039A1A4392
S11349E014D1019B1E2B01D0002F0FD000230127CF
S11349F03000A360E76001F065F8029930003943A4
S1134A00FFF756FF28000F99FFF75CFF0023207C77
S1134A10E374049BC0B2A37409B0F0BDBC5F000092
S1134A2044030020F7B583000193184B8200D75844
S1134A3005000C000126002F26D1154B3900D35850
S1134A40200024220193FBF743FE20003900183094
S1134A50FFF750FA2800FFF77EFC019800F0DDFF15
S1134A600A4BAA00D4501F220A4B5B5D134032004C
S1134A709A40094B1A609C22019B5205023313434E
S1134A80802266743E001A703000FEBD440300208C
S1134A90BC5F0000C05F000000E100E00A4B800042
S1134AA070B5C5584B686A690C0093420BD0074B2C
S1134AB0C658FFF70DFC002301006268300000F0C7
S1134AC0BBFF63686B6170BD44030020BC5F0000E2
S1134AD0F0B587B004920593334A0FAB1E78830078
S1134AE09C580391627C0700002A03D103202074A0
S1134AF007B0F0BD002E01D11E220E922B4A3800C1
S1134B00D55800230399E360A3602374236063747E
S1134B10A674FFF7C3FF90231021AA1C5B0513435F
S1134B2019708423E91C5B050B4302211970982337
S1134B305B05134302934023029A2800137000F08C
S1134B40C1FF039B380019880E9B049A019301232B
S1134B500093059BFFF7F2FE0D9B002B17D0237CDF
S1134B60002B11D10C9B2800A3600D9BE3600C9BD0
S1134B701978FFF79DFE002E03D038000E99FFF739
S1134B80A1FE207CC0B2B3E7237C042BF9D100231F
S1134B900126029A1370EB785B09334202D0280095
S1134BA000F0A2FF6674ECE744030020BC5F000041
S1134BB0F0B589B0079311AB1B780692364A02937D
S1134BC083009C580591627C0600002A03D10320CF
S1134BD0207409B0F0BD029A002A01D11E3210924D
S1134BE000272E4A0599D5580E9B300023600F9B51
S1134BF0A7606360029BE760A37427746774FFF780
S1134C004DFF9023AA1C5B051A43102313708423C1
S1134C1004925B05EA1C134302221A709823AA1813
S1134C205B051A43402328001370039200F04AFFE7
S1134C30059B069A1988109B300001930097079BE7
S1134C40FFF77CFE237CDAB2BB4215D1049BA91C7E
S1134C501A708C235B050B430F99012900D108229C
S1134C601A702B79029B002B03D030001099FFF7A8
S1134C7029FE207CC0B2ACE7237C042BF9D10126A9
S1134C80039B1F70EB785B09334202D0280000F0CD
S1134C902BFF6674EDE7C04644030020BC5F0000B0
S1134CA01FB501240394089C0294079C0194069C5C
S1134CB00094FFF70DFF04B010BD1FB50124039449
S1134CC0089C0294079C0194069C0094FFF770FFD3
S1134CD004B010BD244B70B58400E5588423EA1C4D
S1134CE05B05134302221A709023A9185B050B433A
S1134CF01B78EA78DBB292061DD5942252050A434A
S1134D001278002A17D0194AA458012B14D1EA7832
S1134D101A4204D004332374FFF7EAFD0BE0E3687E
S1134D20013BE360002BF7D0A36828005A1CA26063
S1134D305978FFF7BDFD70BD6268013A6260002AD0
S1134D4006D08C235B05012A0AD000220B4309E01C
S1134D50FFF7CEFD23685A1C22602A791A70EAE70D
S1134D6008220B431A70F5E7BC5F000044030020DF
S1134D70C31C8420400518430223037070470000BD
S1134D800122F0B5904B8100CD5889B0EB1C019302
S1134D90EB7890261B091A4005920122EB787605E0
S1134DA09B091A4002923200AB1D1A4394461278B2
S1134DB00090D2B20792942252051A431278AF1C83
S1134DC0D0B203909820400503431878C0B20690EF
S1134DD07E480C583100394301910978C9B20491D5
S1134DE0002A35D0079A002A0ED0102362462800E4
S1134DF01370FFF7BDFF236B002B52D06A460121CD
S1134E001078626B98474CE0069A002A20D0402222
S1134E1028001A70FFF7ACFF23002C331B78002BFB
S1134E2003D19822520517433B70236B002B04D007
S1134E306A4680211078626B9847E37D002B04D08A
S1134E40200080211830FFF76CF80A23237028E033
S1134E502800FFF78DFF059B002B24D0EB1C1E437D
S1134E6010233370029B002B10D0EB785B07DA0F12
S1134E70002B48DB019B1A70236B002B04D06A467D
S1134E8004211078626B98472B790AE00823237079
S1134E902C342378002B04D198235B051F43029BF9
S1134EA03B7009B0F0BD029B002BDED1049B012BAB
S1134EB054D1EB78049A134230D0019B029A1A70B1
S1134EC02B7923002C331B78002B07D1039B002B59
S1134ED004D198235B051F43039B3B70236B002B7A
S1134EE004D06A4608211078626B9847A37D002B92
S1134EF004D0200008211830FFF713F80023636062
S1134F00E3602375CDE71023019A1370236B002B04
S1134F1004D06A4602211078626B98476368002BBC
S1134F2050D028008022E3680C30520519780243DF
S1134F3010780028FCD029710133E3606368013BD9
S1134F4063606368002BACD1E3602375236B002B93
S1134F50A7D06A4610211078626B53E72B79A268B8
S1134F60DBB2002A2CD02269137023690133236138
S1134F70A368013BA360A368002B00D091E7039BC7
S1134F80002B11D123002C331B78002B04D1982340
S1134F905B051F43039B3B70E37D002B04D0200083
S1134FA020211830FEF7BDFF002363752361236BB6
S1134FB0002B00D175E76A4620211078626B21E747
S1134FC0072343E7062341E7BC5F000044030020B6
S1134FD084225205024312780300D0B2002A0CD076
S1134FE08020013340050343187801384342584177
S1134FF0024B40421840024BC0187047808D5B0042
S113500080841E0010B50D4B821D13431A780400D2
S1135010D3B2002A0FD0012B07D1FFF7D9FF084BD9
S113502008341C432378D84010BD0020022BFBD148
S1135030044B1868F8E70448F6E7C0460000081176
S11350400000901048030020006CDC020C4A811D13
S11350500A4312780300D0B2012A04D002280BD0EC
S113506000280BD1704780220133520513431B786B
S1135070002BF7D10220F5E70320F3E70520F1E741
S11350800000081102009C2318325B0513438022A0
S11350901A700022064B03431A70064B063018435D
S11350A00378DAB2002BFBD1034B10000B6070477E
S11350B00000081300000811006CDC02F8B50400BD
S11350C00D0016001F00FFF7C1FF012823D1002D9A
S11350D025D08023621C5B0513431D7084230222A8
S11350E05B0523431A702200104B083213437200ED
S11350F0D2B21A7040220E4B0E48234306341A7063
S113510004432378012BFCD1002D0DD10A4B3341EC
S113511000203B60F8BD0228DBD1012DD9D1390034
S11351202000FFF7AFFFD4E7044BF0E70000901036
S1135130000008130000081180841E0000127A0089
S113514010B50A4C030022680120002A0CD0084A3A
S11351507F301A4310700748063303431A78022A33
S1135160FCD1002023680B6010BDC046480300201A
S113517000000813000008119C23C9015B050343C8
S1135180C9B219707047942349015B050343C9B23E
S11351901970704770B506680C0030002049FCF7A0
S11351A011FA1F4905003000FCF792FA0E00E121C4
S11351B030000901FCF706FAE121E0800901300022
S11351C0FCF786FA0E003C213000FCF7FBF93C2189
S11351D020813000FCF77CFA6E22A1720321114B6E
S11351E0FF322380238895420AD80F499B0700D1B8
S11351F00E490123CA5CAA420CD36380A58070BD0A
S113520001339BB223800B40AD1A5A425A416E328D
S1135210FF32E7E70133AD1A0D2BEBD1EEE7C046C1
S113522080510100B2070000E85F0000C15F000088
S11352300188114A03008A18002030B5812A17D842
S11352405A88541E0B2C13D89C88651E1E2D0FD80B
S1135250DD88172D0CD81D893B2D09D89B7A3B2B53
S113526006D88B0705D0054B9B5CA3424041C0B2D6
S113527030BD034BF8E7C0464EF8FFFFE85F00007F
S1135280C15F000070B5134D838802885B196E25D9
S1135290FF35554344885B1995085B190E4D66002C
S11352A0755B5B19920710D00B600A680B4BC488BE
S11352B05343827A00899B18E122120162439B18AE
S11352C03C2242439B180B6070BD022CECD8013B7E
S11352D0EAE7C0464A05F5FFCE5F000080510100B1
S11352E08023084A1B0212689A4209D1A023103075
S11352F05B0518430368002B02D10133FF330360BD
S11353007047C046480300200100802210B50023E6
S113531001245205103111430C600B60902143604D
S1135320490504601C3001430B6088214905014391
S11353300B6084214905014310430B60036010BDD9
S11353400200902314325B05134300221A6042606A
S1135350103201601A60704703680B6070470000E8
S1135360104B820070B5D558802204000E4B920574
S11353701A602800FFF7C8FF2800FFF7B1FF0B4BA6
S11353801F261A5D0123180009493240095DC02512
S1135390314090408B40074A6D005051535110608A
S11353A0136070BDF85F00003C80845EFC5F000009
S11353B0FD5F000000E100E0F7B50027114B80001D
S11353C0C55808000E000197FFF732FF0400B842E9
S11353D016D001A93000FFF755FF3800FEF7AAFFE9
S11353E0010080200002814206D0FCF7EBF80100A6
S11353F00198FCF7E7F8019028000199FFF7A0FF56
S11354002000FEBDF85F0000F7B50025124B8000B8
S1135410C4580E00200001A90195FFF79DFF280044
S1135420FEF788FF05008020000285420ED00B4B5A
S1135430290004341C43FCF7C5F82768019C2900A3
S11354404443B8B2FCF7BEF824180194310001A813
S1135450FFF7A0FEF7BDC046F85F0000000078101B
S1135460F0B50027184B800085B0C55808000E0021
S113547001920397FFF7DCFE0400B84203D1002435
S1135480200005B0F0BD300003A9FFF7FBFE380093
S11354902E68FEF74FFF010080200002814206D0F3
S11354A0FCF790F801000398FCF78CF80390039B39
S11354B0B342E4D3AB6088231C355B051D43019BD9
S11354C09A002A60DCE7C046F85F0000044B8000C5
S11354D0C25888231C325B05134389001960704746
S11354E0F85F0000054B8000C258882314325B0526
S11354F013431868431E9841C0B27047F85F000018
S11355006B46E0221B78D2021B041340024A0907AF
S11355100B4380180360704744100000084B82005E
S1135520D258902310B503325B0513431B78002B2C
S113553002D000F0EFF810BD00F054F9FBE7C046CC
S1135540006000009C210C4B0C4A8000C358825818
S1135550002003324905114310B5187108709421D5
S113556049050A4310701A7F824203D02033180081
S1135570FEF7C7FC10BDC0465003002000600000C9
S1135580F7B50C0005001B4B3022002187002000DA
S1135590FE58FBF79DF82800FEF7D8FEFEF798FEAC
S11355A02060300000F0C1FA200000212030FEF716
S11355B0A1FCF31C01939023F21C5B0513431022FE
S11355C030001A70032100F0EEFA3000002100F0E0
S11355D00FFB094BFC50094B5A5D1F231A401E3B1D
S11355E09340074A13609823019A5B0513434022B2
S11355F01A70F7BD00600000500300200460000032
S113560000E100E00A4B800070B5C658094B0C005D
S1135610C358150030001A68096800F08DFA286034
S1135620A37930006279217900F0CFFA70BDC046C9
S11356300060000050030020F7B51E4A83009C5808
S1135640050022790420002A16D11B4A9E580029FD
S113565003D0280001AAFFF7D5FF9823002140209A
S1135660F21C5B0513431970187027698F4204D12B
S11356702800FFF767FF0020FEBD01232371942358
S11356805B05A16133431B780720002BF4D0A3688A
S1135690191E02D019780133A360B1712369013B4B
S11356A02361A3690133A3619C235B051A4380230F
S11356B01370E0E75003002000600000F8B5134FBA
S11356C0134C85002C59ED590127069E2777A260BB
S11356D02661E3606661FFF7AFFF002814D1200064
S11356E007992030FEF74EFC0328F8D000280BD091
S11356F09C23002203355B052B4322711A709423EB
S113570003205B051D432A70F8BDC04600600000FD
S11357105003002010B51E4B8200D358197900297C
S113572034D01C4951585A69002A11D09C22520580
S11357300A431278002A0BD08A79DC68D2B2002C92
S113574003D02270DA680132DA605A69013A5A6188
S11357501A69002A12D0942252050A431278002AA8
S11357600CD09A68141E02D0147801329A608C719D
S11357701A69013A1A619A6901329A611A69002A0E
S113578004D15B69002B01D1FFF7DCFE10BDC046DC
S11357905003002000600000104A8000815800225D
S11357A00F4B10B5C3580331581CC2779C204005D9
S11357B00843DA621A701A835A629A621A63027090
S11357C09420400501430A701A0038321278002AE6
S11357D003D00121181DFEF7A4FB10BD00600000DA
S11357E05003002070B5254B8200D358591CC97F43
S11357F0002942D022495258D96A002917DB942142
S1135800490511430978002911D0D969CCB2596AE4
S1135810002905D0DD6A002D02DD0C7801315962C2
S11358209471D96A0139D962596B01315963D96AC2
S1135830002905DA9421D41C4905214300240C7065
S1135840196B002911DD9C214905114309780029B0
S11358500BD09279996AD2B2002903D00A709A6A5D
S113586001329A621A6B013A1A63DA6A002A04DC7A
S11358701B6B002B01DCFFF78FFF70BD5003002072
S113588000600000012903D0032909D000207047DB
S113589094235B0518430078431E9841C0B2F6E791
S11358A08423F6E7431C034849011843C9B2017035
S11358B07047C04600008812831C942049014005AB
S11358C01843C9B201707047831C03488901184307
S11358D0C9B201707047C04600000813831C8C20B5
S11358E0C90040051843C9B201707047F7B50400F8
S11358F0364EE31C1E43337808780D00DBB20728CC
S113590060D8FBF74BFE04192B0E192B2B45304B9B
S113591001341C43002323703378012BFCD1002075
S1135920FEBD012BFCD12A4B01341C4340232370C0
S11359303378042BFCD1F2E70021012801D00420A4
S11359400231337898423FD12000FFF7ABFF0421A6
S1135950204A13698B43136130BFE0E70227B84242
S113596007D100270B79BB4203D020004979FFF708
S1135970ABFF194B01341C4327703378154ADBB253
S11359800193019B01330193042311690B43E2E763
S11359900421114B621C1A4311706A78A11C0B4339
S11359A01A70002A06D1AB78002B03D02000E978C6
S11359B0FFF782FFAB79002BDFD02000E979FFF7F6
S11359C08DFFDAE70120ABE70320A9E700003010E0
S11359D00000881200ED00E000001010C31C024813
S11359E018430078C0B2704700003010012314300F
S11359F08B40012A04D180221205104303607047B2
S1135A008022D204DB431043F8E701238B40002AB1
S1135A1001D0436070478360FCE70023C222037017
S1135A2043708370C37043718371C3710372427294
S1135A308372C37270470000F0B5002487B00293EC
S1135A40FA230126270025009B0053430390049169
S1135A50009301947642AB000593194BAA009B185E
S1135A6059880498A140FBF7ADFD009B009AC31A26
S1135A70824200D9131AB3421FD2114AA900525CC0
S1135A8027000192002B02D00135322D13D10134AD
S1135A90032C01D0002B0DD1029A002A00D01360F0
S1135AA03F220199BB0111400B43039ADBB25370AF
S1135AB007B0F0BD00251E00CDE73300E4E7C04683
S1135AC01E600000942302305B0503431B78002B07
S1135AD005D088235B051843042303707047802393
S1135AE01B0518433023F8E7942210B55205841C93
S1135AF0224311780300CAB2022001290DD180216A
S1135B00C90421438024CD300870E400033319789C
S1135B10490908001040114200D110BD013C002C7D
S1135B2001D0C046F3E70920F7E70423C37000233C
S1135B308370437003717047F0B5130B89B001266D
S1135B40039308230124764202939B19079004913E
S1135B500592019302270025631E069321000598F0
S1135B607943FBF72FFD049B834207D31B1AB342EF
S1135B7004D21E00069B03900295019301357F0019
S1135B80092D01D0002EE9D1082C02D00134002EB9
S1135B90E0D1019B029A1B0103981343079ADBB2DD
S1135BA0537009B0F0BD842310B50224C21C5B05F8
S1135BB013434A0022401A70902300195B051843CE
S1135BC01023C9001940017010BD10B58C24033096
S1135BD06405C9000443C9B22170882192004905B3
S1135BE00143D2B20A70802252051043037010BDE3
S1135BF08023012202305B0503430A401A708C2380
S1135C005B051843082389001940017070470000A0
S1135C1004FEFF1F801A0000AE190000AE19000038
S1135C20AA190000B4190000B4190000A01C000057
S1135C30AA190000B4190000A01C0000B419000047
S1135C40AA1900003E1C00003E1C00003E1C00007F
S1135C500A1D00000A0A0A0D426F6F74696E6720FC
S1135C60576172702C20696E20332E2E2E20003244
S1135C702E2E2E2000312E2E2E0A0D0025642E25C8
S1135C8064007E430025640A0025007D7D007B7B43
S1135C90007C7C0000000000000000005F000000A9
S1135CA0040304030000287E143F0A00242A7F2AE8
S1135CB01200231308646200304E5926500000007D
S1135CC00201000000001C22410041221C000000CF
S1135CD022140814220008083E080800503000006E
S1135CE00000080808080800606000000000201098
S1135CF0080402003E5149453E0000427F40000036
S1135D006251494946002241494936001814127F1C
S1135D1010002F45454539003E494949320001618B
S1135D2019050300364949493600264949493E00C8
S1135D300036360000000056360000000008142229
S1135D404100141414141400412214080000020128
S1135D50590906003E415D552E00601C131C60006D
S1135D607F49494936003E41414122007F41412259
S1135D701C007F49494941007F09090901001C228F
S1135D8041493A007F0808087F0000417F41000034
S1135D90204040403F007F08142241007F404040A3
S1135DA000007F0418047F007F0408107F003E4138
S1135DB041413E007F09090906003E4151215E0030
S1135DC07F091929460026494949320001017F010A
S1135DD001003F4040403F00031C601C03000F7063
S1135DE00F700F00413608364100010678020100A9
S1135DF061514945430000007F41410015167C165E
S1135E00110041417F0000000002010200004040F7
S1135E10404040000001020000000020545478007B
S1135E20007F444438000038444428000038444487
S1135E307F0000385454180000043E050100000897
S1135E4054543C00007F0404780000007D000000EE
S1135E500040403D0000007F1028440000017F0006
S1135E6000007C047C047800007C04047800003882
S1135E7044443800007C14140800000814147C0006
S1135E80007C0804040000485454240000043E44E8
S1135E904000003C40407C00007C20100C001C6052
S1135EA01C601C00006C10106C00004C50301C0076
S1135EB0004464544C000204487070780808083E9A
S1135EC01C0820100907070F00020502000000004B
S1135ED00000000020534F494C2073656E736F72AD
S1135EE020636F6D6D756E69636174696F6E206692
S1135EF061696C65640A0020534F494C2073656ED8
S1135F00736F722077726974696E67207375636347
S1135F1065656465640A0020534F494C2073656EBF
S1135F20736F722072656164207375636365656461
S1135F3065640A0020726561643A20307825303245
S1135F4078203078253032782C002025640A0A0025
S1135F50205349373032312068756D69646974792A
S1135F602072656164207375636365656465640AA2
S1135F7000205349373032312074656D7065726189
S1135F8074757265207265616420737563636565F9
S1135F906465640A005465726D696E616C005254E4
S1135FA05400534547474552003031323334353677
S1135FB0373839414243444546898A0000600640E7
S1135FC008001F1D1F1E1F1E1F1F1E1F1E1F000057
S1135FD000001F003B005A0078009700B500D40071
S1135FE0F300110130014E01001F1C1F1E1F1E1F54
S1135FF01F1E1F1E1F00000000D0034014150000C8
S1136000006007400A0000000050064000F00F4006
S113601040F00F400090044000A004401E1F000008
